:020000040800F2
:100000000004002091040108412300084123000856
:100010004123000841230008412300084123000830
:100020004123000841230008412300081111000862
:100030004123000841230008412300084123000810
:100040004123000851AF0008413500081135000870
:10005000412300084123000831B1000801B1000824
:10006000D1B00008A1B0000871B0000831B4000898
:1000700001B40008D1B30008A1B3000871B30008AF
:1000800041B3000811B300084123000841230008D0
:1000900041230008412300084123000801B0000863
:1000A00041230008412300084123000841230008A0
:1000B000813400084123000841230008412300083F
:1000C0004123000841230008412300084123000880
:1000D0004123000841230008412300084123000870
:1000E00081AF000821AF0008F1AE000841230008ED
:1000F000412300084123000841230008E1B2000821
:1001000041230008A1D7000841230008412300082B
:10011000412300084123000841230008412300082F
:10012000B1B2000881B2000851B2000821B2000843
:10013000F1B1000841230008A1350008412300085F
:10014000412300084123000841230008015800080A
:10015000C1B1000891B1000861B100084123000855
:1001600041230008412300084123000841230008DF
:100170007135000821580008412300084123000878
:1001800041230008412300084123000841230008BF
:1001900041230008412300084123000841230008AF
:1001A000412300084123000841230008412300089F
:1001B000412300084123000841230008412300088F
:1001C0004FF46053C4F2020300224FF0FF3118696C
:1001D0002DE9804819611A61586959615A61186A94
:1001E00060F080541C621A62586A59625A621D6C2F
:1001F0004FF4E046C4F2000645F080571F643168B2
:1002000041F4807030601C6F04F44075B5F5007FD8
:100210009DB003D04FF480361E671A6746F270080F
:1002200046F2580146F2880C08F56E704FF4E04E25
:10023000C4F2000E01F56E7400F178080CF56E71D1
:100240004FF4C04001F1780CC4F20200DEF8043033
:1002500013907834ACF58C6C46F27000C4F2020C4A
:10026000C4F20200A4F58964CDF814C00790C4F26A
:10027000020446F2A00C46F2B8000494C4F2020C48
:10028000C4F2020046F28804CDF828C00B90C4F2F4
:10029000020446F2284C46F240400894C4F2020C94
:1002A000C4F2020046F21044CDF834C00E90C4F2FD
:1002B000020446F2704C46F2884009930C94C4F252
:1002C000020CC4F2020046F25844CDF840C011902E
:1002D000C4F2020409980F944FF4605CC4F2020C5B
:1002E00046F2B844CDF818C0C4F2020420F4007CF1
:1002F00046F2100946F2280BBE4A1294C4F20209D3
:10030000CEF804C0C4F2020BDFF810E3DDF81CC025
:100310000898B94BDFF808A3B84DB94EB94F00247F
:10032000CEF80040C9F800401460DDF81090CBF81A
:100330000040DDF814B09460C9F800401461CBF8B7
:1003400000409461CCF8004014620460DDF828E0BD
:10035000DDF82C90DDF830B00D989462DDF838C0EF
:10036000CEF80040C4F202081463DDF83CE0C9F89E
:1003700000409463DDF84090CBF8004014640460C2
:1003800011989464CCF800401465CEF80040946550
:10039000C9F80040146604609466C8F80040DDF8AF
:1003A000488014674FF4C841C8F80040C4F2020105
:1003B0009467139A4FF0FF309060D0608860DDF84A
:1003C00018B0C860DBF830106FEA51206FEA4022A5
:1003D000CBF830204FF48052C4F20202DBF8501008
:1003E00002924FF4A052C4F2020204924FF4E0527F
:1003F0000891C4F2020207924FF4C05E089AC4F258
:10040000020ECDF814E06FEA522E45F25452C4F2B7
:1004100015020A924FF48072C2F680220B9245F2C6
:100420005552C0F255020C922246CCF60C420D9267
:100430004FF6FF72CFF655520E924CF6CC42C0F2F8
:100440000C020F922246C0F2AA2210924FF44052A0
:10045000C4F2010211921622C0F2016209924622F0
:10046000C0F2016212924FF46052C4F200024FF0E7
:1004700001091392162269F31F421492462269F36E
:100480001F421592A046069AC4F202086FEA4E2E49
:10049000C2F850E04FF4614E4FF0FF32CDF820E04B
:1004A000C8F80440C8F808200A9AC8F80C204FF68B
:1004B000EF72C8F814204FF42A22C8F820404FF4F5
:1004C0008060C8F824200B9AC4F20200C8F800200B
:1004D0004FF0FF32446082600C9AC2604FF6FF72A8
:1004E00042610D9A04624FF4006B42624FF0224267
:1004F0000260C4F2020B0E98CBF804404FF0553264
:10050000CBF808004FF44061CBF80C204EF2FF000E
:100510000F9ACBF81400C4F202011098CBF82040D7
:10052000CBF824201022CBF800004C604FF4406040
:100530008A60CA6020224C6108624C620A6002999B
:100540004FF4005C4C608C60CC604C610C62049891
:10055000059A4C62C4F2020C0C60079944608460F6
:10056000C460446104624462046054600F2094607B
:10057000D460546114625462146003224C60886039
:10058000CC604A610C624C620C60CCF80440CCF840
:100590000840CCF80C40CCF81440CCF82040CCF803
:1005A0002440CCF8004045F29C2CC2F2010C1649C4
:1005B000164ACCF80010164883F800904FF0FF312F
:1005C0001180119A1349CCF8440003F10C00186112
:1005D000D860DA611962099A5C6001F13C001299F5
:1005E000586213989A62D9620B4A9C6042F688411D
:1005F00018E000BFA0360020304B0120781B0020FF
:10060000401D00204867012000440108701B0020A5
:10061000743C0108503C0108143C01089836002045
:10062000604B01205C61CAF81C000AF10C03C2F2A5
:1006300000011498CAF81030CAF80C3002F10C030B
:100640008CF80490CCF83440CCF82C40CCF82840FE
:10065000CCF83C40CAF8202081F800904C60CAF8E1
:1006600024308AF80090CAF80440CAF80840CAF852
:100670001440964BCAF82800159AEB664FF0A0413B
:10068000CAF82C20A96685F800906C606C62AC6397
:10069000AC62EC63EC622C642C636C646C63AC64E1
:1006A0002C816C81AC67EC6786F800907460746292
:1006B000B463B462F463F462346434637464746382
:1006C000B46434817481DDF818C08148DCF84010CE
:1006D000F0664FF46142CEF20002089222464FF0DB
:1006E000804341EA0901C4F20402B266B467F467C8
:1006F00042F2CF02CCF840104FF46D4E4FF0FF3174
:100700009A62CEF2000ED9629C615C63DC605C6030
:10071000C3F81490C3F80090089B4FF080506FF01E
:100720007F0283F81C23C3F880011860CEF80840CC
:10073000DEF80C004FF6FF014FF440720140C0F2AA
:10074000FA524EF6F05C41EA0203CEF2000CCDF80C
:1007500010C0CEF80C30DCF80C00049A4FF4805C2A
:10076000CEF2000C40F08071D160DCF8003043EA3A
:100770000901CCF8001007F11C03202110228EF88B
:100780001F208EF822103B62FB614FF0FF337F6029
:1007900000227B6216A83F6016930023CDE91A233E
:1007A000BC607F613F61BC62FC621794CDF80CC0F5
:1007B0001894199401F0A4FD16A801F079FD454B99
:1007C000454A78691899586102F11000506110612A
:1007D0004248D3F814C0F96220F0070E40489461F3
:1007E000C0F800E03F48946020F0070E3E48D46017
:1007F000C0F800E03D481F611060402003F128016F
:1008000098600022D86303F124007B615A77CCF80A
:1008100010309C635C6383F81E909C615862D962BF
:100820009962BB6183F81C9084F3118862B63049E9
:10083000BA69304B9161304800944A46D82100F0A3
:10084000CFFF049CDDF80CC0E36843F08070E060EB
:10085000DCF8002042EA0901CCF80010082409F075
:1008600057F940462146A8F81A40092203F038FA01
:1008700004231946A8F818304046092203F030FA3C
:10088000584649460922ABF8189003F029FA404629
:10089000202140F28A2203F023FA4046402140F210
:1008A0008A2203F01DFA4046802140F28A2203F09A
:1008B00017FA4FF0200888F311889AF800000F4BC0
:1008C0004845CAF8043000F0778319E0401B01085E
:1008D000901C0108902C0020D82C00208B67012050
:1008E0000C1F002000C001209C3600205110000881
:1008F000801B0108F1100008C0350020601B0108B2
:100900005A89DAF8281002F4006083B2002B00F054
:100910004583DAF82C4021F4F04024F4F04340F40D
:10092000205143F42054CAF82810CAF82C40DAF8B1
:100930001C4042F441724FF000090720C4F80090B7
:100940002260606021684FF0020B41F04003236099
:100950008AF800B089F311884FF4006AC4F2020AE1
:100960004FF48064C4F20204092250465946AAF8A2
:1009700018B003F0B5F94FF4806140F28A222046A6
:1009800003F0AEF90421504640F28A2203F0A8F9A0
:100990004FF400680821504640F28A2203F0A0F983
:1009A000092241462046A4F81A8003F099F94FF431
:1009B0000250C0F2050001F0ABFC4DF24050C0F215
:1009C0003500A4F8188001F0A3FC07F0B1F90B285A
:1009D0000ED07B4C09F08CF8204684F8009007F08C
:1009E00037F994F80090B9F10102504250EB020936
:1009F00046F2447EC2F2010E8EF800909EF800107E
:100A0000002940F0FD8009F083F8DFF8EC814046D2
:100A10000BF06EF84FF0200A8AF311886949C5F887
:100A200024800224C8F85412C5F83880C5F82880FC
:100A300088F808404FF0000B8BF31188DFF8BC9169
:100A400048460BF055F88AF311885F4BC6F824909E
:100A5000C9F85432C6F83890C6F8289089F808408A
:100A60008BF31188A86EB36E826B22F40021816330
:100A7000986B20F400229A6341F288300BF030FA30
:100A80008AF31188514B52486B60C5F80CB0C5F819
:100A900010B0C5F814B0C5F818B0C5F81CB0C5F84A
:100AA00020B009F08DF82C708BF31188AD6EA96B16
:100AB00041F40010A863AA6B42F40023AB638AF3ED
:100AC0001188444D44487560C6F80CB0C6F810B0A3
:100AD000C6F814B0C6F818B0C6F81CB0C6F820B0F6
:100AE00009F06EF834708BF31188B66EB46B44F471
:100AF00000214FF47A70B1630BF0F2F946F24470C2
:100B0000C2F201000278002A4FD10025BF69334BA1
:100B10002C462E46BB61C4F202042EB3317F0F294E
:100B200008BF0026002D30D02B7F0F2B08BF0025DB
:100B3000236940F6C41713F0010F4FF0100A0CBFE1
:100B400038464FF4FA70A4F818A00BF0C9F92169DF
:100B5000A4F81AA011F0010F0CBF38464FF4FA7038
:100B60000BF0BEF9002ED9D1D8F8540202681778DC
:100B7000042FD7D100961A481A4B40F6C8014022DC
:100B800000F02EFE0646002DCED1D9F8541208688A
:100B90000278042ACCD100951348144B40F6C801C2
:100BA000402200F01DFE0546C2E7CDF800B0104B14
:100BB000104840F6C801402200F012FEA5E700BF31
:100BC000081F0020A01B0108501B0108701B010812
:100BD000781B0020701C0108401D0020801C0108AB
:100BE00020370020A1F10008F82C002041F1000876
:100BF00001070108101F0020D8270020302A0020FC
:100C00004FF4806BC4F2020B58468021002203F09F
:100C100067F858464021002203F062F85846002247
:100C20004FF4807103F05CF8584600224FF40071D5
:100C300003F056F8082401214FF0100A4FF0200865
:100C4000ABF81A105846ABF81A400922ABF81AA0B4
:100C5000ABF81A8003F044F858462146092203F005
:100C60003FF858465146092203F03AF858464146A3
:100C7000092203F035F888F3118842F68840C2F261
:100C80000000CC4A03784260012B65D14FF46143E8
:100C9000CEF2000360224FF400704FF480614FF4F5
:100CA000807E4FF0F00C4FF040094FF080084FF479
:100CB000000A4FF0020B83F80623C3F88091C3F8B3
:100CC000009083F80723C3F88081C3F8008083F87D
:100CD0000823C3F880E1C3F800E083F80923C3F8D0
:100CE0008001186083F80A23C3F88011196083F823
:100CF0001723C3F880A1C3F800A083F82823C3F802
:100D000084E1C3F804E083F80123C3F880B1C3F899
:100D100000B083F829C3C3F8840158604FF08040C5
:100D200083F82A23C3F88411596083F83E230421F1
:100D3000C3F88401586083F84C234FF48052C3F801
:100D400088219A6083F802C3C3F88011196083F880
:100D500003C3C3F880411C6042F688444FF46050DE
:100D6000C2F200044FF47053C4F20100D4F804B08E
:100D7000DFF840A205900022C4F20103012191E0B6
:100D80000F2A1ED84FEA920E02F003000EF1020C59
:100D90004FEA800E059850F82C000490C4F303101D
:100DA00006904FF00F0909FA0EF80498DDF8189034
:100DB00020EA080809FA0EFE059848EA0E0840F8ED
:100DC0002C80E00740F1C480D3F8089001FA02FEBD
:100DD0004EEA090CC3F808C06FEA0E0C0AEBC20A0F
:100DE00014F0020FDC68DAF8040014BF4EEA0404C1
:100DF0000CEA0404DC60002800F0A1801C684EEAC4
:100E0000040018605C680CEA040058600132172A7C
:100E10006DD05BF832C01CF0040F72D00F2A18D8C6
:100E200094080234DDF8148002F0030E4FEA8E0EAF
:100E300058F824800F2000FA0EFACCF3031909FAAF
:100E40000EFE28EA0A08DDF8149048EA0E0A49F86E
:100E500024A01CF0010F00F09680D3F808E001FAFE
:100E600002F444EA0E09C3F808906FEA04001CF08B
:100E7000020F00F08180D3F80CA044EA0A0EC3F8F8
:100E80000CE00BEBC209D9F804C0BCF1000F6AD02A
:100E9000D3F800A044EA0A041C605C682040586053
:100EA0000132DA465AF8324060073FF569AFD3F8AD
:100EB00000C001FA02FE6FEA0E0000EA0C09C3F856
:100EC0000090D3F8048000EA080AC3F804A0D3F81D
:100ED00008C000EA0C09C3F80890D3F80C8001326E
:100EE00000EA0804172ADC60C3F814E091D142F646
:100EF0008842C2F2000202231370002181F311889C
:100F000083E5D3F8008001FA02FE6FEA0E0404EADA
:100F10000809C3F80090D3F804A004EA0A0CC3F847
:100F200004C0D3F8088004EA0809C3F80890D3F88D
:100F30000CA004EA0A00D860C3F814E0B0E75C68CB
:100F40004EEA040058601C680CEA040018605DE773
:100F5000D3F8089001FA02FE6FEA0E0C0CEA0908B9
:100F6000C3F808803AE7D3F8048044EA08045C60D8
:100F70001C682040186093E7D3F80CC000EA0C0806
:100F8000C3F80C807DE7D3F8088001FA02F46FEA19
:100F9000040000EA080AC3F808A068E7DAF82C00A1
:100FA00021F4F04120F4F043CAF82810CAF82C309C
:100FB000BDE400BFB01B01080A21114ADAF8200085
:100FC00053460AF02DFD0F4ADAF824000A21534651
:100FD0000AF026FDDDF81880DAF82010DAF824305F
:100FE000D8F84040DAF81C2008681968DAF80430AC
:100FF0000C3244F48044C8F8404082608A607FE448
:101000005156000861510008AFF30080AFF3008033
:101010002DE9F04FC1F80CD0D0F80CD0BDE8F08F1E
:10102000002383F311882846A0470FF0C1FB0FF07F
:10103000E7FB00DFFEE7000000000000000000000A
:1010400044F2B803C2F2000301221A70704700BFD5
:10105000202383F31188094A094913680968073076
:1010600020F00700C91A88429ABF181810600023A0
:10107000002282F311881846704700BF0C1F002021
:101080009C360020AFF30080AFF30080AFF3008008
:10109000202383F31188017F07290ED8DFE801F0B0
:1010A0001D0D0D2108040D08036A9A68511C9960F2
:1010B00090E80C001A60026853604FF0FF32026241
:1010C00081680A4B002202771B689A688A42FBD229
:1010D00059680360416008605860002080F31188FF
:1010E0007047036A00211960E7E700BF48670120E5
:1010F000024B034A98698261FEE700BF48670120FE
:10110000D0110108AFF30080AFF30080AFF300808F
:10111000EFF30983203383F30988002080F31188DB
:10112000704700BFAFF30080AFF30080AFF30080E3
:101130001E4B1A684AB1202181F31188507F40F07C
:1011400004015177002282F31188586848B12021A8
:1011500081F31188427F42F004014177002080F33F
:1011600011889A684AB1202181F31188507F40F09C
:1011700004015177002282F31188D86848B12021F8
:1011800081F31188427F42F004014177002080F30F
:1011900011881B694BB1202282F31188597F41F0DD
:1011A00004005877002383F311887047504A0020C9
:1011B00010B4202383F311884FF080440023646A25
:1011C00083F31188641A511A8C4209D3054A0649DF
:1011D00001231370054A0B701060184610BC70474D
:1011E0001846FBE790410020D0410020AC41002090
:1011F000DFF874C0F0B4184FDCF80060F21BD207BF
:101200003B4614D5BE4217D911F8012B3C787B1C04
:1012100094420CD016E01B7812F8015BAB4204F14B
:1012200001030FD14D782478511CAC420AD19E4263
:101230000A4603F10104EED80B781BB9CCF8007014
:10124000184607E0054A064B01211170054A19703E
:1012500010600846F0BC70479C410020904100207F
:10126000D0410020AC41002094410020AFF3008029
:1012700041B9054A054901231370054A0B701060F6
:10128000184670470020704790410020D041002050
:10129000AC410020AFF30080AFF30080AFF30080DB
:1012A000202383F3118844F29411C2F200010A68EA
:1012B00002F8010B00200A6080F31188704700BF1C
:1012C00008B50078FFF7ECFF002008BDAFF3008001
:1012D00038B50178084D41B10446286803689A681A
:1012E000904714F8011F0029F7D1286803490368C3
:1012F00002221B68984738BD984100203812010827
:1013000038B5017849B1054D0446286803689A68E4
:10131000904714F8011F0029F7D138BD98410020EB
:10132000F0B585B0002837D00DF101054CF6CD465B
:101330002B46CCF6CC46A6FB0012D40804EB840165
:10134000A0EB41003030C1B2204603F8011C1C461E
:1013500001330028EFD16A4694421BD9601BC007B5
:10136000114F11D5386803689A68904714F8021C29
:10137000013C09E0386814F8021C0368661E9A688C
:10138000904716F8021C023C386803689A68904738
:10139000AC42EFD105B0F0BD0349086803683021C5
:1013A0009A689047F6E700BF98410020AFF30080AD
:1013B00038B50B4D4C24286803682D219A68904756
:1013C00028680168013C8B682D219847013CF2D1C7
:1013D000034804490068026813680222984738BD30
:1013E0009841002038120108AFF30080AFF300806D
:1013F00008B52022034682F31188006828B10268EC
:101400001A60002383F3118808BD99680029F8D079
:1014100058688847F5E700BFAFF30080AFF300805E
:10142000202383F31188024600E01A4613688342A2
:1014300003D08B42F9D108681060002181F3118834
:10144000704700BFAFF30080AFF30080AFF30080C0
:1014500038B5202383F311880F4B18689969826887
:101460008C68A24203D2002080F3118838BD026844
:10147000012553601A609861002305770B770346B6
:101480001B689A689442FBD95A680B604A601160E5
:101490005960FFF7BDFDE6E748670120AFF3008024
:1014A0002DE9F00346F24875C2F20105A1F1240CC2
:1014B00000EB0C076969C76040F80C30069B7B6045
:1014C00041F221039046C0F600033B62002600F182
:1014D00028020561416100F12409C0F80880022357
:1014E000686108610121044603774677C0F83C80B3
:1014F0008663466381778661C0F82490C262826207
:10150000BDE8F003704700BFAFF30080AFF3008089
:101510000D4B18689969026830B453608C681A6082
:1015200001259861002305770B77034600E01B68CF
:101530009A68A242FBD85A680B604A6011605960F1
:1015400030BCFFF765BD00BF48670120AFF30080E6
:10155000044B1A68986991688368994200D870476B
:10156000FFF7D6BF48670120AFF30080AFF30080DC
:1015700010B5202383F3118808498A69D46B9368D6
:101580009C4201D0834200D29060D063FFF7E0FF1D
:10159000002080F31188204610BD00BF486701205D
:1015A000F8B54F4EB3699C68651C2846FFF7E0FF0D
:1015B000B0EB040CDCF1000151EB0C0107460120FB
:1015C000FFF756FE00B1F8BDB06982680220B5EBA6
:1015D000020EDEF1000353EB0E01FFF749FE002877
:1015E000F1D13846FFF7C4FF281A41424141032098
:1015F000FFF73EFE0028E6D1B26993680420E21AA4
:1016000051425141FFF734FE0028DCD1202787F3F7
:101610001188B3699A68911C996080F31188B06948
:101620008368A71C0520FA1A51425141FFF720FE9A
:101630000028C8D12846FFF79BFFB0EB040CDCF173
:10164000000050EB0C010620FFF712FE0028BAD173
:10165000B3699A680720B7EB020EDEF1000151EB87
:101660000E01FFF705FE0028ADD1B069C36B08205D
:10167000EA1A51425141FFF7FBFD0028A3D1E71CB4
:101680003846FFF775FF281A434253EB0001092043
:10169000FFF7EEFD002896D1B26991680A20B7EBFA
:1016A000010CDCF1000353EB0C01FFF7E1FD002816
:1016B00089D1B069C26B0B20B7EB020EDEF10001DD
:1016C00051EB0E01FFF7D4FD00287FF47CAF2023FF
:1016D00083F31188B1698C60CC6380F3118872E761
:1016E00048670120AFF30080AFF30080AFF30080C4
:1016F000F0B4144F8568BE690446B06821620023C7
:1017000085420CD82377394609688A689542FBD907
:1017100048682160606004604C60F0BC70473377BB
:10172000394609688A689042FBD948683160706020
:1017300006604E600123204631462377BC61F0BC31
:10174000FFF766BC48670120AFF30080AFF300806D
:1017500038B5154B04462021986981F31188256816
:10176000E368AC4283631BD0C16B4BB11A689342F0
:1017700003D09268914238BF1146DB68002BF5D147
:101780002B68AA6B8160236028465C600021A560FD
:10179000E260AC63FFF7ACFF002080F3118838BD36
:1017A0000022A260F8E700BF48670120AFF3008085
:1017B00008B52022034682F311888068411C002965
:1017C000996003DD002383F3118808BD186802685F
:1017D00000211A605360FFF78BFFF3E7AFF300803F
:1017E0002DE9F04198460446202383F3118846F200
:1017F0004876C2F2010624394718D6F814E0C760CB
:1018000040F801800699796041F22101C0F600019B
:101810003962002500F12803826000F1240CC263C4
:10182000022701220661C0F814E02946706107779B
:10183000CEF8100045778563456382778561C0F8EF
:1018400024C0C3628362FFF753FF85F311882046EB
:10185000BDE8F081AFF30080AFF30080AFF300800C
:1018600046F24873C2F2010310B41A689969146809
:10187000087701201077104663601C609A6110BCE5
:10188000FFF7C6BBAFF30080AFF30080AFF300807B
:1018900010B5202383F311880B4CA269134653F82B
:1018A000280F984208D0016891620D224B600277A0
:1018B000002383F3118810BD0E20FFF7D1FFA2692A
:1018C000134653F8280FEEE748670120AFF3008076
:1018D00010B50346202282F311888068411E00293A
:1018E000996004DB0020002282F3118810BD074CB0
:1018F000A269136259681360516005205A600A603A
:10190000FFF7AEFFA369186AEDE700BF4867012043
:1019100010B5044640F60000C2F20000FFF7D8FF01
:101920002078FFF7BDFC002010BD00BFAFF30080A2
:1019300010B540F60004C2F200042046FFF7C8FFCD
:101940002046FFF735FF002010BD00BFAFF3008039
:1019500010B546F2487482B002ABC2F2010443F8FB
:10196000040DA269026003201362FFF779FFA069EA
:10197000006B02B010BD00BFAFF30080AFF300807A
:10198000202383F311884FF46D40CEF200004168AC
:1019900011F4006202D182F311887047EFF30983DA
:1019A0004FF0807043F8040CA3F1200181F3098803
:1019B000054A106892698168906881428CBF03482B
:1019C000034843F8080C7047486701202F100008AF
:1019D00032100008AFF30080AFF30080AFF3008057
:1019E00000228168054B02771B689A688A42FBD205
:1019F000596803604160086058607047486701207B
:101A00000E4A70B59469202585F3118800F12805E8
:101A10002562067FC26A25600E2E21636260C46261
:101A2000146007D00C20FFF71BFF206A002181F310
:101A3000118870BDFFF7D4FFF4E700BF48670120AD
:101A4000426B037F11430A2B41630AD00B2B00D05A
:101A50007047026A11408A42FAD100210162FFF701
:101A6000BFBF036A1942F8D1704700BFAFF30080CF
:101A700070B50468A04206460D460ED0E36845EAFC
:101A80000300E06015B12269104203D06068A168CC
:101A9000FFF7D6FF2468A642F0D170BDAFF30080F7
:101AA000134B70B520209C6980F31188A36BD3B1D0
:101AB00000260BE01168956B196010464B609A6028
:101AC000DD609363FFF78CFFA36B43B11A68D9689D
:101AD0009342A163EED19E60A36B002BF6D1E06B25
:101AE000A060FFF735FD002282F3118870BD00BFB2
:101AF00048670120AFF30080AFF30080AFF30080B0
:101B000030B40446114A2568C3689069AC428363C7
:101B100017D0C16B4BB11A68934203D092689142BF
:101B200038BF1146DB68002BF5D12B68AA6B8160AA
:101B3000284623605C60A560E260AC6330BCFFF7C0
:101B40004FBF0023A36030BC704700BF486701202F
:101B5000F8B52F4A836894690546002B51D0A168D7
:101B60009868814206D91A7F9960062A31D0072ADF
:101B70001CD092B128460068854203D08368A168D2
:101B80008B42F8D242682060626044600620146094
:101B90002562BDE8F840FFF763BE93E806001160D8
:101BA000196818464A60FFF71BFFE3E758681F688B
:101BB0001E6A07601F68324678601268964202D03B
:101BC00090688842F9D251681A6059600B6053607E
:101BD000D0E758681F681E6A07601F683246786041
:101BE0001268964212D090688842F9D251681A6001
:101BF00059600B605360B368A1689A688A42B2D397
:101C0000B8E7A36B8460C360A063F8BD3246EDE71C
:101C100048670120AFF30080AFF30080AFF300808E
:101C200008B5202383F31188FFF792FF002080F38B
:101C3000118808BDAFF30080AFF30080AFF30080E0
:101C400038B540F60C040546C2F200042046FFF702
:101C5000E7FF2878FFF724FB2046FFF779FD0020F7
:101C600038BD00BFAFF30080AFF30080AFF300805A
:101C700038B540F638040546C2F200042046FFF7A6
:101C8000CFFF2878FFF70CFB2046FFF761FD00200F
:101C900038BD00BFAFF30080AFF30080AFF300802A
:101CA000F8B50E4C002818BF044604F11006304663
:101CB0000F46FFF7B5FFA3686BB10022144628CB8F
:101CC00001345219002BFAD107B13A603046FFF7C0
:101CD0003FFD2046F8BD1A461C46F5E7D82C0020EB
:101CE000F8B550F8085C05F110070646A0F10804A5
:101CF00008353846FFF794FF2B46AB421A6801D0EF
:101D0000A34202D21AB1944201D31346F5E756F822
:101D1000041C46F8082C1C6001F1080256F8085C07
:101D2000A018A8420AD05A6802F1080019188C427B
:101D300012D03846BDE8F840FFF70ABD4068A25807
:101D40000918083146F8041C46F8082C5A6802F1B4
:101D5000080019188C42ECD156F8040C56F8081CEF
:101D60001218083283E80600E3E700BFAFF30080F3
:101D700030B40346202181F31188827F541EE2B2E1
:101D80008277002484F3118812B9047F0F2C01D0CC
:101D900030BC7047447F04F00304012C0FD0022CA8
:101DA000F6D144690569006C25611D696C6181F398
:101DB000118801681960036082F31188E8E74269BD
:101DC0000169116103695A6130BCFFF789BF00BF27
:101DD00038B50446202383F31188007F0F2807D0ED
:101DE0000849626A8D6909202A606562FFF738FD3B
:101DF000256A002383F311882046FFF7B9FF2846A0
:101E000038BD00BF48670120AFF30080AFF300800A
:101E100010B5124C206818B1FFF7DAFF00232360D9
:101E2000606820B1FFF7D4FF0C4800224260A06830
:101E300020B1FFF7CDFF094B00219960E06820B188
:101E4000FFF7C6FF05480022C260206920B1FFF7F6
:101E5000BFFF024B0021196110BD00BF504A002096
:101E600070B5284E2848B369284D9C6882B0FFF7AA
:101E7000D7FE274A274B00924FF4A471621C2648D4
:101E8000FFF7AEFC28602548224B0090A21C4FF4BF
:101E9000A4712348FFF7A4FC686022481D4B009002
:101EA000E21C4FF4A4712048FFF79AFCA8601F4879
:101EB000184B0090221D4FF4A4711D48FFF790FCB1
:101EC000E8601C48134B00904FF4A471621D1A483F
:101ED000FFF786FC28610C48FFF73AFCFFF798FFF4
:101EE000B1698B680120E21A51425141FFF7C0F9F4
:101EF00008B102B070BD1149022002B0BDE87040C7
:101F0000FFF776B9486701200C080020504A0020EE
:101F1000E4110108411C0008E84300209422010854
:101F200030450020DC19010878460020D81101084E
:101F3000C0470020DC11010808490020E011010819
:101F4000F0B546F24877C2F2010783B0BB6944F2AC
:101F5000E8359A6841F2C12641F2E410C2F2000568
:101F6000C0F60006C0F60100053A334600904FF473
:101F7000A4712846FFF734FC44F65024C2F2000452
:101F8000B9698B68206042F294204FF4A471C0F6C6
:101F900001001A1F009033466818FFF721FCBA6948
:101FA0006060936841F6DC10C0F60100DA1E009014
:101FB00033464FF4A47105F52470FFF711FCB9699D
:101FC000A0608A6841F2D810C0F60100023A334698
:101FD00000904FF4A47105F57670FFF701FCBB6922
:101FE000E0609A6841F2DC10C0F601004FF4A47181
:101FF000013A3346009005F5A460FFF7F1FB20613C
:10200000FFF706FF41F2E0110120C0F6010103B025
:10201000BDE8F040FFF7ECB8AFF30080AFF300800D
:102020002DE9F04146F24876C2F2010682B0B3696A
:1020300039489A6841F2C12542F29421C0F6000560
:10204000C0F60101043A2B4600914FF4A471FFF74A
:10205000C7FB44F65024C2F20004B769BB68606055
:1020600044F2E83741F2E410C2F20007C0F6010082
:102070005A1F00902B4638464FF4A471FFF7B0FB6F
:10208000B2692060916841F2DC10C0F601004A1E7E
:102090002B4600904FF4A47107F5A460FFF7A0FB56
:1020A000B36920619A6841F2D811C0F6010100912C
:1020B00007F576704FF4A471023A2B46FFF790FBB8
:1020C0004FF02008E06088F31188B06941F6DC1316
:1020D0008268C0F60103009307F524702B464FF485
:1020E000A471033AFFF7DCF90025A06085F311889D
:1020F000A06888F31188FFF773FC85F31188FFF758
:1021000087FE41F2E0110120C0F6010102B0BDE8F6
:10211000F041FFF76DB800BF30450020AFF30080FD
:1021200010B5202383F31188074904698C4209D034
:10213000A27F531CA377002181F31188FFF718FEBB
:10214000204610BD0024F6E748670120AFF3008069
:10215000F8B5224E002818BF064606F110070731D1
:10216000384621F0070506F10804FFF759FD00E0A5
:102170001C4623680BB358688542F9D805F108015D
:10218000814217D84FF6F87ECFF6FF7EC5EB0E02E0
:1021900003EB010C12181868CCF8042058505D604D
:1021A000C4F800C01C46384644F8086BFFF7D0FA64
:1021B0002046F8BD19682160F4E73846FFF7C8FAF1
:1021C00032684AB105F10800904728B100F10804CF
:1021D000066045602046F8BD0024E9E7D82C0020C1
:1021E000F0B583B00D4617461E46FFF7B1FF044613
:1021F00090B1202383F31188089C29463A46334640
:102200000094FFF74DF90121417700210446FFF7C3
:102210006FFA002080F31188204603B0F0BD00BFA4
:1022200082680346501C0028986000DD70471A68D9
:102230001168104619604B6000231362FFF7D0BB92
:10224000F8B5876881600137002F044629DC4068B3
:10225000436863601C60FFF7C3FB6FF0010607F083
:10226000010106627D1CEFB149B16068426862609D
:102270001460FFF7B5FB0135012D066213D06068CD
:10228000436863601C60FFF7ABFB066260684168EF
:1022900061600C60FFF7A4FB6A1C06620235002A2D
:1022A000EDD1F8BDF8BDF8BDAFF30080AFF300800D
:1022B0004FF48053CEF200030E4A5968F0B486689A
:1022C000D76AC5684468D0E90423891BC91B013556
:1022D000521843F10003A142C5608160C0E90423A4
:1022E00005D80368994238BF0160F0BC704741606F
:1022F000FBE700BF48670120AFF30080AFF3008029
:102300004FF48053CEF2000359688160704700BFDC
:102310004FF48053CEF2000319465A688018904259
:102320004B6802D99A4202D970479A42F7D998422B
:1023300094BF00230123002BF1D17047AFF300803D
:10234000FEE700BFAFF30080AFF30080AFF3008083
:102350002DE9F04F8449854DADF5377D044606F0F3
:10236000BFF92046824906F0BBF9EE69A8696A6A9E
:102370002B6A804900960190204606F0B1F97E490B
:10238000204606F0ADF9642009F0AAFD2846002198
:102390007A4A012309F0E4FE0646A8B978492046A6
:1023A00006F09EF9642009F09BFD7649204606F070
:1023B00097F9642009F094FD31462846724A0123BA
:1023C00009F0CEFE014648B12046704906F088F972
:1023D00001F066FE0DF5377DBDE8F08F28466C4AAA
:1023E000012309F0BDFE01460028EDD12846694AC7
:1023F000012309F0B5FE0028E6D16149204606F028
:102400006FF9642009F06CFD6349204606F068F915
:10241000642009F065FD614B552103F580555A1C78
:1024200059700233AB425170F9D15D4A552002F523
:102430008056511C50700232B2424870F9D14B485C
:102440004E4A0021082309F08BFE0028BCD120460B
:10245000544906F045F94FF47A781EE047480EF0EB
:10246000D7F907465049204637BB06F039F93946B7
:102470004E4A3E48082309F073FE4C494FF48052FF
:102480000028A1D13D480EF0C3F94749A0B9204624
:1024900006F026F9B8F1010815D00021434A334867
:1024A000082309F05DFE08F1FF384FF480523F49E0
:1024B0000028D3D088E7444620463D4906F010F96D
:1024C00001F0EEFD86E72E49204606F009F964206A
:1024D00009F006FD2046374906F002F9642009F0AC
:1024E000FFFC2E4B5520591C587002339D424870FA
:1024F000F9D12B4955204A1C487002318E42507048
:10250000F9D11A48204A0021082309F029FE0028A1
:102510007FF45AAF4FF47A77A04616E017480EF0D2
:1025200077F904460146244A10480823002CC2D1FA
:1025300009F016FE1D494FF4805290B90F480EF075
:1025400067F90028B7D1013F38D000211A4A07485F
:10255000082309F005FE013F14494FF4805200287A
:10256000DCD0444630E700BF744401089C5201208F
:10257000101201082C1201083C120108E45201203B
:10258000F440010864120108E552012054120108C8
:10259000E6520120E752012080120108E352012097
:1025A0005F0B00209C12010808130108600B00203B
:1025B000A0120108AC120108610B0020AD49404691
:1025C00006F08EF8642009F08BFC4046AA4906F01C
:1025D00087F8642009F084FCA84B4446AA205A1CC2
:1025E000587002339D425070F9D1A548A54A002188
:1025F000012309F0ADFC002840F0B380A24A014657
:10260000501C5170023296424170F9D19C489F4A49
:102610000021012309F0A4FD00287FF4D5AE9948DC
:102620009A494FF400720EF0F3F800287FF444AF9B
:102630009049204606F054F82046954906F050F897
:10264000642009F04DFC8F4BFF20187003F8010F38
:10265000591C587002339D424870F9D188488D4A00
:102660000021012309F074FC00287AD18749087001
:1026700001F8010F0246481C4A7002318E42427036
:10268000F9D17F48844A0021012309F069FD00281F
:102690007FF49AAE7F4880494FF400720EF0B8F88C
:1026A00000287FF409AF7349204606F019F8204648
:1026B0007A4906F015F8642009F012FC724BAA253D
:1026C0005A1C5D7002339E425570F9D14FF480352B
:1026D0002946082305F108066C4A6948F51809F0EF
:1026E00037FC3146694A0823002841D1644809F083
:1026F0002FFC00283CD1B5F5883FE9D14FF4803557
:102700005F4F604A294608233846ED1809F028FD36
:102710005E494FF4805258BB5A480EF079F838BBE6
:10272000B5F5883FECD15E4E5249204605F0D8FF02
:102730000FCE16AD0FC530685A492860204605F007
:10274000CFFF642009F0CCFB57480CF059FF064638
:10275000A8B120465549324605F0C2FF01F0A0FC61
:1027600038E62046524905F0BBFF01F099FC31E6FE
:102770002046504905F0B4FF01F092FC2AE64E4A8B
:102780004E494FF0010882F80080204605F0A8FF6E
:102790004B49204605F0A4FF642009F0A1FB4949FC
:1027A00011A8119100F0D4FF002812DB464D55F816
:1027B00020501DB310F0FF032E701DD1387905286D
:1027C00009D003222046414905F08AFF01F068FC48
:1027D00000E60B22F6E7B86A7F280DD9A0F13F0882
:1027E0004FF4FA673A4AB8FBF7F732F81360B7428A
:1027F00006D20133F9E754460122E3E70C22E1E770
:10280000344A32F81330590A14BF8A464FF0010A8D
:10281000B8FBFAF740F6F57297421BD902F5704201
:10282000974240F294818237B9004B1E00225F0A22
:102830004FF0030905924FF0200C05990CF13F0B66
:102840007B1803EB0B01AAF13F025318984543D2C2
:102850000E22B7E7032101FB07F77B1C5F087B18FB
:102860004FF0010903F2FF1720227F0A05924FF073
:10287000010CE2E7F4400108C8120108E35201200C
:102880009C520120E45201205F0B0020600B0020CD
:10289000F0120108E5520120610B00200C13010821
:1028A000F4150108A015010868500120341301082F
:1028B000E012010890150108984C012074440108A9
:1028C00048130108C82801085C0B0020CC1501083A
:1028D00010160108F011010801F1FF0222F0FF03B8
:1028E000B9F1030FC1EB030100F042817F18CCEB7B
:1028F00008020599D31B5A1AB2FBFAF3B9F1020F79
:10290000069300F02981B8F5803F34BF01210621EC
:10291000002305F134069E4606F803E00133002249
:10292000B3F5007FF8D143F6C16EB0FBFEFE4FEA6F
:102930009E00CDF80CE040F03F00C8F3072ECDF824
:102940001CE00B9085F8F6115FFA88FEFE21CDF8A9
:1029500020E085F8F711C8F3074E0B99CDF824E075
:10296000104685F8F52185F8FB2185F8FC2185F8CE
:10297000FD214FEA186E089ACDF828E085F8F81185
:10298000DDF80CE085F8FE213F2185F8FA110A9A5E
:10299000099985F8F9E1DDF81CE085F800120123BA
:1029A00085F801225521AA2285F8321285F83322B2
:1029B00085F8F33185F8F43185F8FFE131460246B8
:1029C000CDF810C08DF81CE009F07AFBDDF810C0DE
:1029D00000287FF411AF0346F0540133B3F5007FB4
:1029E000FAD1A84A0020815C315401300B28FAD179
:1029F0000023CCF30721B9F1030F14BF02221A46BA
:102A0000022085F843100121B8F5803F85F83F305A
:102A100085F8400085F841A085F842C085F844104B
:102A200085F8453085F8462080F0B580089B9DF8F4
:102A30001CE085F8473085F848E000233F22F82065
:102A4000FF21B9F1030F85F8490085F84C2085F87E
:102A50004D3085F84E1085F84F3085F8502085F8B8
:102A6000513085F8523085F8533000F0A280C7F31A
:102A70000722212085F85D0085F84B20292080223F
:102A8000814985F8582085F85B3085F85C3085F8F9
:102A90005E3085F84A7085F85A0005F15F02585C8F
:102AA000D0540133132BFAD15521AA2285F83212C2
:102AB00085F83322002031463F22012309F000FB34
:102AC00000287FF499AE0020024632540130B0F560
:102AD000007FFAD1FF23B9F1030F00F0B880B9F1FC
:102AE000010F14BF18460020F82185F8341085F82E
:102AF000353085F8363085F83700002031465A46A3
:102B0000012309F0DDFA0BF1010800287FF474AE0F
:102B100003460246F2540133B3F5007FFAD1D4469E
:102B2000A246CBEB080401230020A74242463146CF
:102B300008EB030440F2AC80CDF810C009F0C0FAF5
:102B4000DDF810C000287FF456AEA046E9E7B91CB6
:102B50004B004FF0020985E6069A40F6F5718A426D
:102B60007FF676AEB8F5803F2CBF06210421CFE674
:102B70008C44CCEB0803DDF814E0DA1BCEEB020347
:102B8000B3FBFAF28B444FF6F5718A4206927FF658
:102B90005FAE0C21BCE6089B9DF81C2009980A99A1
:102BA00085F8543085F8552085F8560085F857107B
:102BB00043E7C7F30720390C3A0E85F8590085F82A
:102BC0005A10022001214FF0210E85F85B2085F874
:102BD0006000062285F8641080202921DFF8ACC04F
:102BE00085F8662085F8773085F8783085F879E0C3
:102BF00085F87A3085F8587085F8613085F862304C
:102C000085F8633085F8653085F8673085F874009D
:102C100085F8761005F17B0213F80C00D0540133CF
:102C2000132BF9D15523AA2185F8323285F83312B6
:102C3000002031463F22012309F042FA00287FF4A8
:102C4000DBAD31464522012309F03AFA3BE7F82192
:102C50000F2285F8341085F8353085F8363085F840
:102C6000373085F8383085F8393085F83A3085F8CE
:102C70003B3085F83C3085F83D3085F83E3085F8AE
:102C80003F203AE75813010878130108641301083C
:102C9000059FB9F1030F08BF674654464744E24613
:102CA000424600203146012309F00AFA08F10108E2
:102CB00000287FF4A1ADB845F2D18346B9F10300F5
:102CC000D0F10009DDF818C059EB0009C9EB0C017F
:102CD00013AF0AFB0182531E3846C7F800807B60A1
:102CE00009F0CEFBB9F1000F3FD0069885F821B26C
:102CF000431E612241214FF0520E72204FEA136CA5
:102D0000C3F307294FEA134885F8362085F83710B2
:102D100085F81A1285F81B2285F81C3255220223E9
:102D2000AA2185F8180285F8190285F8203285F85D
:102D3000322285F8331240223146012385F834E0EF
:102D400085F835E085F81D9285F81E8285F81FC24A
:102D500085F822B285F823B2584609F0B1F95846F1
:102D600031464622012309F0ABF99749204605F088
:102D7000B7FC9649204605F0B3FC642009F0B0F892
:102D800010A80FA90CF0ACFE024638B120469049BD
:102D900005F0A6FC01F084F9FFF71CBB20468A4928
:102DA0008C4D05F09DFC8C48109A83788B4950021D
:102DB00003FB00F00090204605F092FC8849204675
:102DC00005F08EFC642009F08BF812222DA829460C
:102DD00004F026FA024638B12046824905F080FC0C
:102DE00001F05EF9FFF7F6BA7749204605F078FC66
:102DF0007D49204605F074FC642009F071F8142226
:102E00002DA816A90EAB0BF01BFA024638B12046CE
:102E1000764905F065FC01F043F9FFF7DBBA6A4932
:102E2000204605F05DFC2046714905F059FC2DA8AF
:102E30000BF056F9024638B120466E4905F050FCB9
:102E400001F02EF9FFF7C6BA5F49204605F048FCAD
:102E50002046694905F044FC2DA82946012204F0CA
:102E6000DFF90646642009F03BF846B120465D498B
:102E7000324605F035FC01F013F9FFF7ABBA2DA887
:102E80005E4914220DAB0BF0FBFA08BB16A85B4998
:102E900014220DF0BDFC00287FF40EAB4A492046F9
:102EA00005F01EFC1BAE2046554905F019FC3046C6
:102EB00012A9012212950CF0A3F9054680B1204613
:102EC00050492A4605F00CFC01F0EAF8FFF782BAF7
:102ED00020464D4905F004FC01F0E2F8FFF77ABA0C
:102EE0004FF40071FFF734F9804698B130461299DB
:102EF000C6F81C80B76101F053FE054630B9B569CC
:102F0000EB7A03F02002D1B231B106254046FEF73C
:102F1000E7FED4E71125D2E77069002852D0C77ABE
:102F200017F0010F0CBF002507253368C77E1A78FC
:102F3000817E032A41EA072705D1437D017D41EACD
:102F4000032247EA0247CDB9C07A00F01003D9B294
:102F500000296FD0012F40F2B8800DF19009725D09
:102F600009F805200135242DF9D148460221C9F878
:102F700008700BF07DFB054600284FD04046FEF759
:102F8000AFFE002D9BD12149204605F0A9FB284624
:102F90000CF036FB20460C4905F0A2FB20461C49EC
:102FA00005F09EFB642008F09BFF1A4809F020FB07
:102FB000002871D02046184905F092FB01F070F806
:102FC000FFF708BA0625B0E774440108DC150108CC
:102FD0008C1301080414010868500120A013010893
:102FE000E413010814140108241401084014010812
:102FF000541401087014010884140108300A0020D8
:10300000B4140108D4140108A8140108E814010834
:10301000001501089C5201201C150108484607F0C4
:103020004FFD0546002852D0306843699F424ED07C
:10303000042DA3D1B6F80690318C4FF6FF75A94246
:1030400008BF494630460BF013FB054600287FF4C5
:103050005DAFAB464FF0E50A3068316909F048F9D9
:10306000A0B9716901F800B001302028FAD1726965
:1030700082F800A0306801230371F588A9451ED9A4
:10308000304600210AF094FF0028E5D004280546C8
:103090007FF43CAF022539E72046144905F020FBB8
:1030A0002046134905F01CFB2046124905F018FB89
:1030B000642008F015FF00F0F3FFFFF78BB947B964
:1030C000306809F02DFA054658E7022556E707252E
:1030D00054E7012FDED981698F42DBD239460BF0EC
:1030E0005FF8054600287FF411AFE9E7F4400108D6
:1030F000301501086C150108AFF30080AFF30080B4
:103100000369C2689A4205D04168CA5C0133036111
:10311000104670476FF00100704700BFAFF30080AA
:10312000C36882689A4206D04268D154C1684B1C79
:10313000C360002070476FF001007047AFF300805C
:1031400044F27013C2F2000344F240121968C2F252
:103150000002481C1860012313607047AFF3008021
:10316000022906D0032906D00748012918BF0020EC
:10317000704706487047032A03D8054800EBC20091
:1031800070470020704700BF00170108A016010813
:10319000201A0108AFF30080AFF30080AFF3008086
:1031A000022906D0032906D00748012918BF0020AC
:1031B000704706487047032A03D8054800EBC20051
:1031C00070470020704700BF801A0108401A0108AC
:1031D000601A0108AFF30080AFF30080AFF3008006
:1031E00000207047AFF30080AFF30080AFF30080A2
:1031F00001207047AFF30080AFF30080AFF3008091
:103200000079053818BF0120704700BFAFF3008078
:1032100038B5C36885680446ED1A4068AA4238BFCD
:1032200015462A46C0180DF003FBE1684A19E26012
:10323000284638BDAFF30080AFF30080AFF30080C5
:1032400038B5044608462369E5686168ED1AAA4264
:1032500038BF15462A46C9180DF0EAFA2069421906
:103260002261284638BD00BFAFF30080AFF3008075
:1032700038B50C46054669B108460DF089FB40F2A9
:10328000FE33411E9942024604D8296828460B683D
:103290002146984738BD00BFAFF30080AFF30080F0
:1032A00041F2507110B5C0F601010446FFF7E0FF8E
:1032B00041F270712046C0F60101FFF7D9FF41F2DB
:1032C0008C712046C0F60101FFF7D2FF41F2AC71CC
:1032D0002046C0F60101FFF7CBFF41F2D071204636
:1032E000C0F60101FFF7C4FF41F2F0712046C0F6BD
:1032F0000101FFF7BDFF41F60C012046C0F60101B8
:10330000FFF7B6FF41F630012046C0F60101FFF796
:10331000AFFF41F64C012046C0F60101FFF7A8FFC0
:1033200041F66C012046C0F60101FFF7A1FF41F60E
:1033300090012046C0F60101FFF79AFF41F6BC015B
:103340002046C0F60101FFF793FF41F6D801204661
:10335000C0F60101FFF78CFF41F60C112046C0F6C4
:103360000101FFF785FF41F638112046C0F6010143
:10337000FFF77EFF41F660112046C0F60101FFF71E
:1033800077FF41F690112046C0F60101BDE81040DC
:10339000FFF76EBFAFF30080AFF30080AFF30080A4
:1033A00041F2507110B5C0F601010446FFF760FF0D
:1033B00041F270712046C0F60101FFF759FF41F25A
:1033C0008C712046C0F60101FFF752FF41F2AC714B
:1033D0002046C0F60101FFF74BFF41F2D0712046B5
:1033E000C0F60101FFF744FF41F2F0712046C0F63C
:1033F0000101FFF73DFF41F60C012046C0F6010137
:10340000FFF736FF41F630012046C0F60101FFF715
:103410002FFF41F64C012046C0F60101FFF728FFBF
:1034200041F66C012046C0F60101FFF721FF41F68D
:1034300090012046C0F60101FFF71AFF41F6BC01DA
:103440002046C0F60101BDE81040FFF711BF00BFE4
:1034500010B541F6CC11C0F601010446FFF708FF94
:1034600041F6D4112046C0F60101BDE81040FFF737
:10347000FFBE00BFAFF30080AFF30080AFF300806A
:103480004FF0804300212DE9F0471961202787F391
:1034900011881C4CD3F82490E369A06A9A68C0EBA9
:1034A0000905954204F11C0618D3A0468A4601E09E
:1034B000D8F828001968D3F80CC08018A062AD1A9B
:1034C000C3F80CA04E60E1618AF311881869E047E7
:1034D00087F31188E3699A68AA42E9D9B3420BD00D
:1034E0004FF0804002EB09014163002181F3118814
:1034F000BDE8F047FEF744BA4FF080430022DA609F
:10350000F3E700BF48670120AFF30080AFF300800E
:1035100042F68840C2F2000008B54FF4705342688A
:10352000C4F201034FF480015961D2F8B43016217E
:103530009847BDE80840FEF723BA00BFAFF300800C
:1035400042F68840C2F2000008B54FF4705342685A
:10355000C4F201034FF400115961D2F8AC301521C7
:103560009847BDE80840FEF70BBA00BFAFF30080F4
:1035700042F68840C2F2000008B54FF4705342682A
:10358000C4F201034FF480115961D2F8A430142120
:103590009847BDE80840FEF7F3B900BFAFF30080DD
:1035A00042F68840C2F2000008B54FF470534268FA
:1035B000C4F201034FF400215961D2F89C30132169
:1035C0009847BDE80840FEF7DBB900BFAFF30080C5
:1035D000826E890141F02003136110698306FCD4D7
:1035E0000C20FEF795BE00BFAFF30080AFF3008064
:1035F00030B585B0002300930193029303930B1E13
:1036000004466D4607DC0CD1D4F8D020206869460A
:10361000904705B030BD68461021054A0DF040F9CD
:10362000F2E768461021034A5B420DF039F9EBE7F7
:10363000D8190108E0190108AFF30080AFF300804A
:1036400010B586B00446012341F6E812102100931C
:1036500002A8C0F6010268230DF022F9D4F8D020A8
:10366000206802A9904706B010BD00BFAFF30080EC
:10367000F0B40023064690F8584018461CB98B4217
:103680002BDBF0BC70478B42FBDA03F15804341992
:1036900042F820400130072824DCF51895F85850EE
:1036A000002DECD0DF4314F8015F7F1807F001070D
:1036B000013375B18B42E4D017B105E08B42E0D005
:1036C00014F8015F013325B114F8015F0133002DB7
:1036D000F4D19942D5DD8B42D3DA0133F41894F852
:1036E0005840CBE74FF0FF30CBE700BFAFF300808F
:1036F00000B5036883B00DF107015B6801229847AC
:1037000008B19DF8070003B000BD00BFAFF3008013
:1037100030B40C4A002307E04988ABB25C1C8142FC
:1037200009D0A3B2802B0AD05488911C5D1C84421E
:1037300001F10202F0D1803398B230BC7047002012
:10374000FBE700BF7E420108AFF30080AFF30080CB
:10375000F0B405680746002D29D02C781F2C0BD912
:103760003A2C2FD06E1C334601E03A2A07D0194676
:1037700013F8012B1F2AF8D80020F0BC7047A4F1E1
:103780003000092801D88E4214D0481C0E49A4F1FB
:1037900061060135192E11F8013F01D8203CE4B231
:1037A0001BB1A34203D12C78F1E7854207D04FF03B
:1037B000FF30E2E70028FAD102353D60DDE73D60E9
:1037C0001846DAE7681CE1E7F3190108AFF3008057
:1037D00070B4436A046A866A24681B68C06AE2603F
:1037E00041F6703546F48066C2F2000561602660DD
:1037F000DD6059601860226842F00101216018689C
:1038000040F001021A6070BC704700BFAFF3008047
:10381000028942FA01F313F00103F0B402D001204F
:10382000F0BC704701F14805846E6D0101276659AF
:1038300007FA01F10A4346F0044602816651D4F8C2
:1038400034080143C4F834181846E9E7AFF30080A0
:10385000428942FA01F313F00103F0B402D00120CF
:10386000F0BC704701F15804856E640101272E59A0
:1038700007FA01F10A4346F08066428118462E514C
:10388000EEE700BFAFF30080AFF30080AFF300803E
:1038900000EB810330B4DC68626953681361A3B143
:1038A00069B15D1E228A806EAC18B4FBF2F200EBA7
:1038B000411143EAC243C1F8103930BC7047402B74
:1038C000EFD9402353603F25ECE7806E00EB4112B7
:1038D0004FF40021C2F81019EFE700BFAFF30080EA
:1038E00000EB810330B4DC68A2695368136139B915
:1038F000402B05D9402353603F25C6F2000302E068
:103900005D1E43F0C043628A806EAC18B4FBF2F2D5
:1039100000EB411143EAC243C1F8103B30BC704791
:10392000F8B5046AD4F8542213681978042900D031
:10393000F8BD207A0228FBD15279598903EB820322
:1039400041FA02F0DA68538A10F00102F0D1E56919
:10395000A06961692D1A6D1AAB42E9D882F311880A
:10396000D4F854623068717900EB8107B5FBF3F548
:10397000FE68B66903FB05F3012704F10C05B2608C
:103980003770F5607360FFF7ABFF202282F3118878
:10399000D4F8541208684979BDE8F840FFF758BFD9
:1039A000F8B5876E07EB41130546D3F8084B22079D
:1039B0000E46C3F8084B03D5D7F81428130719D4BB
:1039C000E10716D5D7F81408C20712D505EB860112
:1039D000CA68936959681869814211D36989D368A3
:1039E000012202FA06F221EA0200688131462846E5
:1039F0009847F8BD00EB8103DA6853689847DFE722
:103A0000411A002459609C6028463146FFF768FF40
:103A1000202383F311885836A86E7601825942F02C
:103A20008061815184F31188F8BD00BFAFF300803D
:103A30002DE9F8430746506914460E4618B1002197
:103A400014220CF025FFA06918B1002114220CF0FB
:103A50001FFF2368BD6E06F1020807EB880203F022
:103A60000300022854604FF4004953D0032854D077
:103A70004946C1F20001C1F20409012818BF894674
:103A80007301E918E2680020C1F8100B002A47D042
:103A9000618A06F15802500149EA0101295006F1F4
:103AA0001002D5F81C18012000FA02F20A43C5F8EA
:103AB0001C28EB18A0680021C3F81019002842D078
:103AC000A28B238A9B08012A88BF53433A6F06F1D1
:103AD0003F01981805EB810142EA034338673846F5
:103AE00007EB88074B603146FFF772FD7968088A5B
:103AF00006F1480240EA8653520143EA0901A950FF
:103B00000122D5F81C0802FA06F60643C5F81C681F
:103B1000BDE8F883C1F20809B2E7C1F20C09AFE7CA
:103B200006F158014A0106F11000A95821F400419C
:103B3000A9500122D5F81C1802FA00F221EA02006D
:103B4000C5F81C08B5E706F13F0205EB82004FF40B
:103B50008063C0F20023436031463846FFF738FDEA
:103B600006F1480148012A5822F400432B50012055
:103B7000D5F81C1800FA06F621EA0606C5F81C68F6
:103B8000BDE8F883AFF30080AFF30080AFF30080AF
:103B90002DE9F84F804600210225A0F8641088F82E
:103BA000661080F8671001814181C1600161416147
:103BB0008161C161016288F84C100570846EFFF765
:103BC00007FDD8F86CB0DBF808A04FF00061FF22C9
:103BD000C4F800190AF00107C4F8001B0123C4F857
:103BE0000829C4F8082BBAF1000F33D067B1554546
:103BF000C4F8201904F53267C4F8201B2B46C4F81A
:103C00002829C4F8282B25D85F1C03F1480903F1A3
:103C1000580C03F1490E03F1590004EB431604EB71
:103C2000471540014FEA49194FEA4C1C4FEA4E1E16
:103C30000233534544F8091044F80C10C6F808291B
:103C4000C6F8082B44F80E102150C5F80829C5F80D
:103C5000082BD9D9DBF80030D8F868204FF0FF31B5
:103C60004FF001161025C4F81818C4F81C68C8F8DD
:103C7000703063621561106910F01005FBD10C20E3
:103C8000FEF746FBD4F80038D8F8701023F4FE6233
:103C9000C4F80028A66946F44020092240F0100626
:103CA000A66148F24003C4F81028C4F814280B4A4F
:103CB000C1F2000301F1100041F48011C8F80C209A
:103CC000C4F8105BC4F8003BC4F81059C4F80039BC
:103CD000C8F87000A162BDE8F88F00BFC0230108DA
:103CE0002DE9F00F002302F00307C2F38006C2F3B0
:103CF000C105C2F341144FF00F09C2F3C3124FF0D4
:103D0000010A38E0D0F820B02BEA0C0C4CEA080885
:103D1000C0F82080D0F804B00AFA03FC2BEA0C08A3
:103D200048EA060BC0F804B04FEA430C4FF0030B0F
:103D3000D0F808800BFA0CFC6FEA0C0C0CEA0808AF
:103D400048EA0508C0F80880D0F80C800CEA08089A
:103D500048EA0408C0F80C80D0F800800CEA080C8F
:103D60004CEA070CC0F800C049081AD07600AD0034
:103D7000A400BF00013303F0070C4FEA8C0C11F0D4
:103D8000010F02FA0CF809FA0CFCEDD0072BB9D997
:103D9000D0F824B02BEA0C0C4CEA0808C0F82480B8
:103DA000B8E7BDE8F00F7047AFF30080AFF30080D5
:103DB00001F001038A0748BF43F002034A0748BFE6
:103DC00043F008030A0748BF43F00403CA0648BF8C
:103DD00043F010038A0648BF43F02003426B890575
:103DE00048BF43F0400342EA03014163704700BF0C
:103DF00038B54FF43055C4F2010541F48861AA602A
:103E0000E960696B4FF4305211F04504C4F20102CD
:103E1000F7D0946311F0050403D15169204619606D
:103E200038BDFFF7C5FF012038BD00BFAFF30080EC
:103E30002DE9F047466C4FF43053347A3568C4F2BC
:103E4000010307464FF03D0E7068D3F834C00EFAF8
:103E500004F404602B6823F01F04894690462C600C
:103E6000296811F00104FBD1327A4FF43055C4F2C5
:103E700001053D2140F2FF7301FA02F2C0F2C003D6
:103E800002606146AB633846EC63EC62FFF790FF7B
:103E9000B9F1010F07D938460C2122464346BDE847
:103EA000F047FFF7A5BFBDE8F08700BFAFF3008084
:103EB0002DE9F047202307468946904683F3118871
:103EC0004FF43054C4F20104E06B002832D14FF4B7
:103ED0003051C4F201014A6B12F4807425D07E6C1B
:103EE00035682B6813F00104FBD1317A72684FF406
:103EF0003055C4F201053D2040F2FF7300FA01F194
:103F0000C0F2C0031160AB63EC6284F31188B9F1B5
:103F1000010F07D938460C2122464346BDE8F04739
:103F2000FFF766BF2046BDE8F08784F311880120C3
:103F3000BDE8F08707F13C00FDF70AFDC7E700BFC9
:103F4000F0B51D46436C066C044618686B029F086A
:103F5000C2604760066007684FF43052C4F2010245
:103F600040F2FF7647F001070760C0F2C00640F25A
:103F70002A309663D06393629B23D362266B0A46F2
:103F8000F10683B058BF5202012D01AE204619D967
:103F900012213346FFF72CFF60B94EF20801019A57
:103FA000CFF6FF51114029B9204629463246FFF786
:103FB0007FFF28B1204629463246FFF739FF01200E
:103FC00003B0F0BD11213346FFF712FF0028E4D003
:103FD000F0E700BFAFF30080AFF30080AFF30080E5
:103FE000F0B51D46436C066C044618686B029F08CA
:103FF00046F04006C2604760066007684FF43052E2
:10400000C4F2010240F2FF7647F001070760C0F2F8
:10401000C00640F21A309663D0639362236BD806D1
:1040200083B00A4658BF4A02012D01AE20461FD96F
:1040300019213346FFF7DCFE90B94EF20801019AD0
:10404000CFF6FF51114059B94FF43050C4F201007E
:104050009923C362294620463246FFF729FF28B13B
:10406000204629463246FFF7E3FE012003B0F0BDAB
:1040700018213346FFF7BCFE0028DED0F0E700BF72
:1040800008B5202282F311888168002905DDFDF73B
:104090005FFA002080F3118808BDFEF7C1F8F6E74B
:1040A00010B5074C237843B100200BF0A9FA05485E
:1040B00008F09EFA0020207010BD4FF0FF3010BDB8
:1040C000984C01209C520120AFF30080AFF3008098
:1040D0002DE9F041202682B086F31188A54CA16815
:1040E0000120D1F1010138BF0021FDF7C1F80546DB
:1040F00008BB80F3118886F311884121204602F025
:10410000C7FC4221204602F0C3FC4321204602F0B6
:10411000BFFC2046442102F0BBFC85F3118886F3E6
:1041200011886269A3699A4252D029460220FDF79C
:104130009FF8054628B1002282F3118802B0BDE83D
:10414000F08180F311884FF0200888F31188894EA0
:104150000146304602F09CFC043014BF00210121CE
:104160000320FDF785F8074678BB80F311884FF0F0
:10417000FF31304601F004FCC0B2FDF791F84FF07A
:10418000FF31304601F0FCFBC0B2FDF789F84FF07B
:10419000FF31304601F0F4FBC0B2FDF781F84FF07B
:1041A000FF31304601F0ECFBC0B2FDF779F888F33F
:1041B0001188B1680420D1F1010138BF0021FDF759
:1041C00057F850B187F31188B8E785F31188B5E740
:1041D000A068011C18BF0121A8E780F31188052001
:1041E0006549FDF705F805460028A7D188F3118831
:1041F0004121304602F04CFC4221304602F048FC9E
:104200004321304602F044FC3046442102F040FC99
:1042100085F3118808222B465849304601F0E8FB07
:10422000B0F1040CDCF1000555EB0C010620FDF7A4
:104230001FF80546002881D188F31188B768072048
:10424000D7F1010138BF0021FDF712F80746002819
:10425000BBD180F3118888F311884121304602F0E8
:1042600017FC4221304602F013FC4321304602F095
:104270000FFC3046442102F00BFC87F31188022228
:104280003E493B46304601F0B3FBB0F1020EDEF191
:10429000000252EB0E010820FCF7EAFF00287FF431
:1042A0004DAF022203463549304601F0A1FB831E83
:1042B000584250EB03010920FCF7DAFF07460028BB
:1042C0007FF43CAF88F31188B1680A20D1F1010175
:1042D00038BF0021FCF7CCFF054600287FF472AF01
:1042E00080F3118888F311880146304602F0D0FB34
:1042F000304605F075FB85F3118888F31188B268A4
:104300000B20D2F1010138BF0021FCF7B1FF0028DA
:104310007FF411AF002585F311881948194B816985
:1043200019488A6800954FF4A4710132FDF758FAD4
:10433000164B1860202080F31188A1680C204A1BBE
:10434000534253EB0201FCF793FF00287FF43DAF8B
:1043500080F31188FDF75CFD0A21064801F010FB8F
:10436000B0F1FF30414241410D2002B0BDE8F041C3
:10437000FCF77EBF50080020E020010830450020F7
:104380004867012041960008E8430020504A002079
:104390002DE9F0438BB0437901910446002B40F0A6
:1043A000FE80481E7E2800F24B81DFE810F06E018F
:1043B0005F01E0014901D30139014901C5018901CA
:1043C000EA007F0149017F007A0149017501490135
:1043D000490149014901EF004901490149014901E8
:1043E00049015C014901490149014901490149016A
:1043F000490149014901490149014901490149016D
:10440000490149014901490149014901490149015C
:10441000490149014901490149014901490149014C
:10442000490149014901490149014901490149013C
:10443000490149014901490149014901490149012C
:10444000490149014901490149014901490149011C
:10445000490149014901490149014901490149010C
:1044600049014901490149014901490149014901FC
:1044700049014901490149014901490149014901EC
:1044800049014901490149014901490149014901DC
:1044900049014901490149014901490149014901CC
:1044A00049014901490149014901C501D4F8D02018
:1044B0002068B4499047D4F8C070002F40F3A6811B
:1044C0003E2F00F3A381A36CE26CE01804F1080610
:1044D000057A002D00F09581C2F1400E991A03EB88
:1044E0000E0001380139934200F37C81874280F24B
:1044F0007C815FFA87F9002D00F08281C2F13F05CF
:10450000531CAF4204F1580880F2CE81F0184146A6
:104510003A460CF08DF9E06C3F187D1C3F2DE564A8
:10452000C8BFA7F13F0504EB000204EB0503C8BFB9
:10453000E564002182F808901972D4F8C0702165F2
:104540003946204602AAFFF793F8431C014600F0C3
:10455000B881002805DDD4F8C85015B1206802AA3A
:10456000A84700252068616DD4F8D0209047C4F892
:10457000C050C4F8C4504046294665220CF088F962
:1045800025650BB0BDE8F08309F012FBD4F8C42018
:10459000002A2046F8DC002109F032FBF1E7C9B21D
:1045A0005B293AD00379012B04D07E2924D0002145
:1045B0006171E6E737390D29F9D801A252F821F0E7
:1045C0007F470008C1470008AF450008AF45000815
:1045D000AF450008AF450008AF450008AF450008EB
:1045E000AF450008AF450008B9470008B1470008CB
:1045F00091470008C7470008022B00F06D81032B8C
:10460000D5D1D0F8C020D0F8C410511AFEF7F0FF71
:10461000D4F8C000C4F8C400C9E701202071B0E795
:10462000D4F8C400D4F8C0309842AADA0121204658
:10463000FEF7DEFFD4F8C4104A1CC4F8C420A0E77B
:10464000202900F010811F299BDD204601A90122AD
:1046500009F04EFA002894D0D4F8C4202046511E08
:1046600009F0CEFA8DE7012161718AE7D4F8C41010
:10467000002986D020464FF0FF31FEF7B9FFD4F86D
:10468000C430581EC4F8C4007BE72046FEF7D8FFAC
:104690000022C4F8C42074E72046002109F0E8FA9B
:1046A0006FE72046012109F0E3FA6AE72068D4F8B1
:1046B000D03035499847D4F8C400C4F8C00060E74A
:1046C000D4F8CC1000293FF45CAF02AA2046D4F8FD
:1046D000C410FEF7CDFFD4F8C460A219074692F8C3
:1046E000573033B90AA800EB8701284E013741F84B
:1046F000206CD4F8CC302068394602AA9847064688
:10470000006800283FF43DAF7268002A00F0B180D5
:1047100001200025411E5AB156F82130515D5B5DE4
:104720008B4276D1002B74D00135411E002AF3D183
:10473000013056F82020EDE7D4F8C410002904DD3C
:10474000204609F035FAD4F8C41020460A4609F08C
:1047500057FA16E7D4F8C010D4F8C4302046C91A66
:10476000FEF746FFD4F8C000C4F8C40009E7D4F847
:10477000D420002A3FF405AF2068904701E70223C8
:104780000371FEE63812010800210108C82801085B
:10479000D0F8C420D0F8C0309A42BFF608AF01214B
:1047A000FEF726FFD4F8C410481CC4F8C400FEE687
:1047B000012109F05DFAFAE6002109F059FAF6E65E
:1047C00003220271DDE6D0F8C420002A7FF7EFAEA5
:1047D0004FF0FF31FEF70CFFD4F8C410481EC4F8A8
:1047E000C400E4E68F42FFF684AE5D196B1C3F2BDC
:1047F00001DDA5F13F03F55C3364002D7FF46EAE5F
:10480000E0185FFA87F980F8089077E604F1580815
:1048100096E63449D4F8D02020689047316869B1D1
:10482000B0462068D4F8D03098472F49D4F8D0202B
:104830002068904758F8041F0029F2D120682949C0
:10484000D4F8D0309847D4F8D0202068616D9047D4
:104850009DB92046FEF7F4FE20460021D4F8C4207E
:1048600009F0CEF98DE6D4F8C01000297FF4EDAE42
:1048700087E60CF08DF80546EAE70AA800EB870703
:1048800057F8240C0CF084F831680346EA1A2046E5
:10489000C91809F02DF97268002ADAD120461249A8
:1048A000012209F025F9D4E741462A46F0180BF019
:1048B000BFFF05F15801304661187A1B0BF0B8FFB5
:1048C00029E62068D4F8D02008499047D4F8D030A1
:1048D00020680449984744E6FEF7B2FE0023C4F876
:1048E000C43064E638120108742C0108E82001087D
:1048F0002DE9F04F85B0FF224FF6FF7382460192FB
:10490000038414460EE00F2900F0BC804FF0FF3402
:10491000AAF82040FF245046002109F049FB002856
:1049200040F0A580DAF80000DAF8101007F0E0FC9B
:10493000002840F09C80DAF814301A78002A00F041
:10494000BC80E52AD97AE1D001F00805EDB201F08A
:104950003F01002DD7D10F2900F09480002C56D1B3
:10496000D10193F801B093F8029093F8038093F883
:1049700004C05F799C79DE79029441EA520159447E
:10498000C9B24FEAC11E4EEA510159FA81FB5FFAE2
:104990008BF94FEAC91141EA590958FA89F85FFAC7
:1049A00088FE4FEACE1141EA5E085CFA88FC5FFAA5
:1049B0008CFB4FEACB1141EA5B0E57FA8EF7FFB240
:1049C000F90141EA5701029F039657FA81F1C9B2F2
:1049D000CF0147EA5101039F1E7A5D7A9C7A57FA0C
:1049E00081F1C9B2CF0147EA510156FA81F6F7B217
:1049F000F90141EA570655FA86F5EFB2F90141EAA5
:104A0000570554FA85F4019FE4B2BC422FD0DAF87E
:104A10001810CC7AE4072FD40C7894422CD15C780F
:104A20004A78944228D19C788A78944224D1DC78C0
:104A3000CA78944220D11C790A7994421CD15C79BD
:104A40004A79944218D19C798A79944214D1DC79BC
:104A5000CA79944210D11C7A0A7A94420CD15C7AB9
:104A60004A7A944208D1897A9B7A994204D1834642
:104A7000584605B0BDE8F08F4FF0FF30AAF820008F
:104A8000FF2448E7DAF81C1000293FF444AF02F095
:104A90004000C0B268B15C7BBAF806700194AAF815
:104AA000207002F0BF045F7B019A974208D0FF2478
:104AB00031E7A242F7D0FF242DE74FF0040BD7E7F0
:104AC00093F800C0324E2CF04000421E02EB420927
:104AD0004FF0010002EB890BA146044606E04FF6B9
:104AE000FF70804530D12B48864240D016F8012F08
:104AF00098189A5C90F8018042EA0828002CEED0C1
:104B0000B8F1610F23D0244D002401E090451FD05F
:104B100035F8022F0134002AF8D14446BBF1FE0FCC
:104B200012D831F81B80B8F1610F0BF1010B16D0D0
:104B3000194D002001E0904512D035F8022F0130C8
:104B4000002AF8D14445CED00197FF24E3E60024A3
:104B500041F68060C0F6010030F81440DEE7002026
:104B600041F68062C0F6010232F81080EAE70CF0EC
:104B700040022346D0B24C46994620B11BB131F8D1
:104B80001B100029E0D1631EDCB20197C3E600BF11
:104B90007F2301088C230108A01C0108AFF30080CB
:104BA0002DE9F04F0B782F2B85B08946064600F093
:104BB000AF815C2B00F0AC8100684169B16099F86D
:104BC00000301F2B40F2AD81DFF830834FF0000A38
:104BD00001E019F8013F2F2BFBD05C2BF9D01F2BE4
:104BE000F7691A4640F22E812F2B29D0B81E4D4668
:104BF000012416E0803B38F81320EAB17F2A12D94D
:104C000020F8022F15F8013F611C1F2B1A4640F2B5
:104C10001B812F2A16D05C2A14D0B1F5807F0BD0CF
:104C20000C467F2BE6D8222A06D0B34911F8013F63
:104C3000002BE5D09A42F9D1062005B0BDE8F08FEF
:104C400000240121012C89444FF0000B00F0028167
:104C5000022C00F03F81002CEED007EB4403611ED4
:104C600033F8022D202A01F0010001D02E2A1BD199
:104C7000013CE1D038B133F8021D202901D02E29A2
:104C800012D1013CD8D033F8022D202A01D02E2A8F
:104C90000AD133F8020D013C2028214601D02E28EC
:104CA00002D14C1EEFD1C7E7B56927F814A0202325
:104CB0002B706B70AB70EB702B716B71AB71EB7118
:104CC0002B726B72AB7207EB440EBA1E002532F8E2
:104CD000020F202801D02E2801D10135F7E7002D41
:104CE00040F010817346621E33F802CDBCF12E0FE6
:104CF00002F0010112D0144682B121B133F8022D25
:104D00002E2A09D10AE033F8021D2E2906D033F8E5
:104D1000022D013C2E2A01D0013CF4D10023CE46C5
:104D20001946B14608223E46013527461C467346C1
:104D300078B3202826D02E2821D0944273D2AF42B7
:104D400000F03D817F2800F2FA802B2800F00281DC
:104D5000DFF8ACC19E4602E0984200F014811CF8D6
:104D6000013F002BF8D1A0F1410CBCF1190F7346A3
:104D700000F21A8141F002015FFA80FCEEE0AF42DE
:104D800000F01D814BF0030B36F8150001350028AB
:104D9000CFD14E469946B3691878E52800F0EC80EB
:104DA000082A00F0E18001F00C020C2A00F0AD802E
:104DB00001F00300032800F0A8800BF00200C0B24D
:104DC00040B901F00301012908BF4BF0100B042A80
:104DD00000F0DB8083F80BB03046002109F048FC7E
:104DE000002861D13046FFF783FDB269D17A0028EF
:104DF0005CD101F00400C1B2002969D17369DA7A8B
:104E000002F01000C1B2002900F0E8803768DC7EB3
:104E100038789A7E032842EA042400F08980B4603E
:104E200099F80030D7E60B2A00F0CC80AF4203D0CF
:104E3000BD424BF0030BACD88C00E1B23D460B22D7
:104E40000824A1E700240121012C89444FF0040B20
:104E50007FF4FEAE38882E287FF4FFAEB369A7F842
:104E600002A01870B06920224270B169881C20230A
:104E70000370B269D370B1690B71B0694371B269E3
:104E80009371B169CB71B0690372B2695372B16940
:104E90008B72B3694BF0200B83F80BB030460021C6
:104EA00009F0E6FB00289DD0B269D17A04287FF48E
:104EB000C4AE01F02000C2B201F00403002A00F0E9
:104EC0008780D8B2C6F808A0C6F814A00028A7D0DA
:104ED0000020B2E67B882E2B7FF4BFAE38882E28C8
:104EE0007FF4BBAEB269A7F804A01070B169487036
:104EF000B369981CBBE700BF042101088042010888
:104F0000102101084BF0030BECE64BF0020B54E7C9
:104F1000002209F10109B26099F800301F2B3FF619
:104F200053AE3046002109F0A3FB0022726184E6F3
:104F3000597D1B7D43EA012744EA07446FE702914C
:104F400003920193FEF7E4FB0299039A019BF8B9DF
:104F50004BF0020B4BF0030B4FF05F0CD9F818002D
:104F600000F804C001340FE78900C9B201F00C0257
:104F70000C2A7FF41DAFC8E705201870082AB36912
:104F80007FF411AFF0E77346E4E74BF0080B21E73D
:104F900042F2600CC0F6010C60444BF0020B10F8BA
:104FA000800C0028D6D0D0E6A0F1610EBEF1190F1A
:104FB00002D8203841F001015FFA80FCCEE70B2ACD
:104FC0007FF43AAF4E464BF0030B99460B22E2E6D4
:104FD000D9B2002914BF042005202EE605202CE6B6
:104FE00038B50546202383F311880C4800F0E8FD0E
:104FF000044670B90A488268416842F8045B8A42F4
:10500000826024BF026882600648FDF709F9FCF758
:105010009FFA002383F31188204638BD90080020B2
:105020007408002084080020AFF30080AFF30080F4
:1050300040F69C03C2F2000344F2E832C2F20002DE
:10504000111D5A619A61DA604AF6B1620420196151
:10505000C0F6000200215B601B609860DA61196293
:10506000704700BFAFF30080AFF30080AFF3008064
:1050700040F65003C2F2000344F2E832C2F20002EA
:10508000101D5A619A61DA604AF6B1620021C0F6D9
:1050900000025B601B6099601861DA6119627047F9
:1050A00040F6300240F60C03C2F20003C2F20002E6
:1050B0000020526012605B601B609860704700BF08
:1050C00040F6300240F60C03C2F20003C2F20002C6
:1050D0000020526012605B601B609860704700BFE8
:1050E00040F60C03C2F2000300225B601B609A6072
:1050F000704700BFAFF30080AFF30080AFF30080D4
:1051000040F60C0240F63803C2F20002C2F200037D
:1051100000215260126091605B601B609960704773
:1051200040F60C03C2F2000300225B601B609A6031
:10513000704700BFAFF30080AFF30080AFF3008093
:1051400044F2DC03C2F2000300225B601B609A6041
:10515000704700BFAFF30080AFF30080AFF3008073
:1051600011F00C0F00D1704772B6FEE7AFF300806C
:1051700040F6740344F2E832C2F20003C2F20002C5
:1051800010B403F11C0002F1140403F11001DA6001
:105190009A6083E814001862D861052200205A62E0
:1051A00059611961986110BC704700BFAFF300806E
:1051B00040F60003C2F2000300225B601B609A60AD
:1051C000704700BFAFF30080AFF30080AFF3008003
:1051D00040F60003C2F2000300225B601B609A608D
:1051E000704700BFAFF30080AFF30080AFF30080E3
:1051F00040F60003C2F2000300225B601B609A606D
:10520000704700BFAFF30080AFF30080AFF30080C2
:1052100044F2BC03C2F2000301225B601B609A608F
:10522000704700BFAFF30080AFF30080AFF30080A2
:1052300044F2BC03C2F2000300225B601B609A6070
:10524000704700BFAFF30080AFF30080AFF3008082
:1052500044F28413C2F2000300224FF4A4711A60D6
:1052600059609A60704700BFAFF30080AFF30080D1
:105270002DE9F0473F4B404C186825780F46002138
:10528000016065B33D4E3E4C3E481E601025012F27
:1052900004602CD0226801239D423260324613DD27
:1052A000012131B1A068324602239D4242F8040F29
:1052B0000ADD54F83310581C516054F83010431C68
:1052C000916008329D42F4DC012DACBFA9464FF03D
:1052D0000109002346F829303046BDE8F0872A4E00
:1052E0002A4C1E60274B0C25012F1C60D2D1D4F80C
:1052F0000080D2F800A0404651460BF051FB80459B
:105300004FF0000932D00127BD42E2DD97B1D4F859
:105310000880514640460BF043FB804504BF46F8E9
:105320002980B9440137BD4204DCD2E708F1010706
:10533000BD42CEDD07F1010854F8377051463846BA
:105340000BF02EFB874208BF46F8297054F83870DE
:105350005146384608BF09F101090BF021FB87428D
:10536000E4D146F8297009F10109DFE7C6F80080A9
:10537000B946C8E71C400020446701203C4000209B
:10538000D408002034400020E83F00205C090020C1
:10539000044B197811B90449FDF76ABF0349FDF7B9
:1053A00067BF00BF44670120602101084021010858
:1053B0002DE9F84F9F4B1B788046002B7DD10029AB
:1053C0006DDDDFF87C9217460E469B464D46BA4689
:1053D00057F8044BD9F8001020460BF0C1FA00280A
:1053E00061D02046A9680BF0BBFA002800F0F280DB
:1053F000204629690BF0B4FA002800F0ED80204621
:10540000A9690BF0ADFA002800F0E8802046296A6F
:105410000BF0A6FA002800F0E3802046A96A0BF002
:105420009FFA002800F0DE802046296B0BF098FAE6
:10543000002800F0D9802046A96B0BF091FA0028D3
:1054400000F0D4802046296C0BF08AFA002800F086
:10545000CF802046A96C0BF083FA002800F0CA80A8
:105460002046D9F850100BF07BFA002800F0C480D9
:105470002046A96D0BF074FAA0B1BBF1000F0CD15E
:105480006D494046FDF7F4FE404657F8041CFDF711
:10549000EFFE40466949FDF7EBFE013E97D1002043
:1054A000BDE8F88F0B2009EBC00152464B6840461F
:1054B000314698474FF0010BEFE70029EFDDDFF8A9
:1054C000849117460E464FF0000B4D46BA4657F8EA
:1054D000044BD9F8001020460BF042FA00286FD098
:1054E0002046A9680BF03CFA002800F0878020468F
:1054F00029690BF035FA002800F082802046A9695E
:105500000BF02EFA00287DD02046296A0BF028FAED
:10551000002879D02046A96A0BF022FA002875D01D
:105520002046296B0BF01CFA002871D02046A96B8D
:105530000BF016FA00286DD02046296C0BF010FAFB
:10554000002869D02046A96C0BF00AFA002865D023
:105550002046D9F850100BF003FA002860D02046FE
:10556000A96D0BF0FDF900285CD02046296E0BF0E8
:10557000F7F9002858D02046A96E0BF0F1F9002861
:1055800054D02046296F0BF0EBF9002850D020466C
:10559000A96F0BF0E5F990B1BBF1000F0CD12649D2
:1055A0004046FDF765FE404657F8041CFDF760FED7
:1055B00040462249FDF75CFE013E87D16FE70F2090
:1055C00009EBC002314653684046524698474FF0B7
:1055D000010BF1E7012066E7022064E7032062E7A0
:1055E000042060E705205EE706205CE707205AE715
:1055F000082058E7092056E70A2054E70120DFE792
:105600000220DDE70320DBE70420D9E70520D7E708
:105610000620D5E70720D3E70820D1E70920CFE708
:105620000A20CDE70B20CBE70C20C9E70D20C7E708
:105630000E20C5E744670120782101088421010874
:105640005C090020D4080020AFF30080AFF3008095
:1056500011F00C0F38B5044632D1416A0B681A6854
:1056600022F01F0018601D68E807FCD4087A226A3F
:10567000496813683D2505FA00F00860196821F0B3
:105680001F0018601968C907FCD46368117A1B6889
:1056900052683D2000FA01F111609BB10422227092
:1056A000204698472378042B0CD0202181F31188C1
:1056B00004F1080007F0FCFF002282F3118838BDD6
:1056C00072B6FEE702202070EFE700BFAFF3008064
:1056D00070B5856E6B69AC691C40E20406466C616E
:1056E00031D4A10448BFD5F80818200704D5736841
:1056F000DA680AB130469047E1062ED46203D5F845
:1057000018580BD5EB0757D4A8075BD469075FD4AB
:105710002A0763D4EB0667D4A8066BD421030BD504
:10572000EA0330D4AB0334D4680338D429033CD41F
:10573000EA0221D4AB0200D470BD30460521BDE899
:105740007040FEF72DB9FEF723FA70680268002A50
:10575000C7D0304600219047C3E7202080F311884E
:10576000A96921F01003AB6106F1780007F0A0FFF2
:10577000002282F31188C1E704213046FEF710F9B8
:10578000AB02D9D5D9E700213046FEF709F9AB03C2
:10579000CAD530460121FEF703F96803C6D50221B8
:1057A0003046FEF7FDF82903C2D503213046FEF747
:1057B000F7F8EA02BED5DFE73046002107F088FFA0
:1057C000A807A3D50121304607F082FF69079FD5BE
:1057D0000221304607F07CFF2A079BD50321304683
:1057E00007F076FFEB0697D53046042107F070FFEF
:1057F000A80693D53046052107F06AFF8EE700BF63
:1058000008B541F67830C2F20000FFF761FFBDE84D
:105810000840FCF7B5B800BFAFF30080AFF30080DD
:1058200008B541F64050C2F20000FFF751FFBDE855
:105830000840FCF7A5B800BFAFF30080AFF30080CD
:10584000F0B490E834000E4922600B46076853F824
:105850001C6F7C6094686519956000244FF0FF32DE
:105860009E42C4604A6207D0B068896A4FF08043A4
:1058700042185A63F0BC70474FF08040C460F9E7AB
:1058800048670120AFF30080AFF30080AFF30080E2
:10589000F0B41C4D2E464FF0804756F81C4FD7F8F9
:1058A00024C00361012998BF0221B442C2601DD007
:1058B000AA6AA368C2EB0C0C614499423CBF8A18E7
:1058C0007A63994204D92468C91AA3688B42FAD32F
:1058D00081606368A2680460436018606060511A68
:1058E0004FF0FF30A1606862F0BC704701EB0C0321
:1058F00000227B63C5F828C03A6102226B6AFA6015
:10590000DFE700BF48670120AFF30080AFF30080FE
:1059100030B54C1C87B0054611D00B4C0B4AA3691F
:1059200001A8FFF7B5FF2846FBF79AFF049B13B1C8
:1059300001A8FFF785FFA069006A07B030BDFBF73B
:105940008FFF014CF7E700BF486701209110000866
:1059500010B4024651B1074B44689B69042083E8A8
:1059600014005360236010BCFFF7D2BF4FF0FF302C
:1059700010BC704748670120AFF30080AFF3008090
:1059800070B5202304460E4683F31188C16901B126
:105990008847A5682046314635B9FFF7D9FF00286A
:1059A000F7DA85F3118870BDA3692269013DA5600E
:1059B00013F8010B9342A36124BFE368A3610021A4
:1059C00081F3118870BD00BFAFF30080AFF300809A
:1059D0000C30FFF7D5BF00BFAFF30080AFF30080FE
:1059E0000C304FF0FF31FFF7CBBF00BFAFF30080AB
:1059F0002DE9F84F04461D46D0F81C904FF0200BBF
:105A00008BF31188002601F1010801EB020AB9F1BC
:105A1000000F01D02046C847A7682046294647B94D
:105A2000FFF796FF0028F7D087F311883046BDE8CE
:105A3000F88FA2697B1EA36012F8010B08F8010C15
:105A40002169A2618A4224BFE168A161002383F336
:105A500011880136D045E9D08BF3118808F101088F
:105A6000D5E700BFAFF30080AFF30080AFF3008055
:105A70000C30FFF7BDBF00BFAFF30080AFF3008075
:105A80000C304FF0FF33FFF7B3BF00BFAFF3008020
:105A9000F8B504460F461646202383F31188A568FF
:105AA0002046314635B9FFF753FF0028F7DA85F372
:105AB0001188F8BD6069013DA56000F8017B22698D
:105AC0006061904228BFE068E16928BF606109B168
:105AD00020468847002080F31188F8BDAFF300808E
