:020000040800F2
:100000000004002011D10008012800080128000880
:10001000012800080128000801280008012800081C
:1000200001280008012800080128000871150008AF
:1000300001280008012800080128000801280008FC
:1000400001280008811E00087137000841370008A8
:10005000012800080128000851200008212000087C
:10006000F11F0008C11F0008911F0008512300085C
:1000700021230008F1220008C12200089122000873
:100080006122000831220008012800080128000828
:10009000012800080128000801280008211F000885
:1000A000012800080128000801280008012800088C
:1000B000014F000801280008012800080128000855
:1000C000012800080128000801280008012800086C
:1000D000012800080128000801280008012800085C
:1000E000B11E0008511E0008211E0008012800084A
:1000F0000128000801280008012800080122000842
:10010000012800088165000801280008012800086E
:10011000012800080128000801280008012800081B
:10012000D1210008A1210008712100084121000807
:100130001121000801280008D13700080128000813
:10014000012800080128000801280008416500086E
:10015000E1200008B12000088120000801280008E3
:1001600001280008012800080128000801280008CB
:10017000A13700086165000801280008012800086F
:1001800001280008012800080128000801280008AB
:10019000012800080128000801280008012800089B
:1001A000012800080128000801280008012800088B
:1001B000012800080128000801280008012800087B
:1001C000A64B4FF0FF311A6900222DE980481961D2
:1001D0001A61586959615A61186AA14F60F08054D8
:1001E0001C621A62586A59625A621D6C45F0805648
:1001F0001E64396841F4807038601C6F04F44075E7
:10020000B5F5007F8DB003D04FF480361E671A67B6
:100210007B68944923F400727A6000270F603C46A3
:10022000DFF8E882904E54F8080000250C34056091
:10023000BD510837C02CF3D18C4B884FDFF8D092DA
:100240004FF0FF3BC3F808B0C3F80CB0C3F808B4D4
:10025000C3F80CB43A6B6FEA52216FEA41243C6355
:10026000386D8349834C6FEA50266FEA4623824EED
:100270003B653046049503F05BFE8048804903F0FF
:1002800057FEDFF890C27F49CDF80CC0604603F0FE
:100290004FFE7D487D4903F04BFE7D487D4903F0CC
:1002A00047FE7D487D4903F043FE7D487D4903F0CC
:1002B0003FFE7D487D4903F03BFE7D487D4903F0CC
:1002C00037FE049B7C49E362012508F1840021602C
:1002D0002571A362794A6363E3636064784C79486B
:1002E0001570E06153607848784AA06204F10C010F
:1002F0002161E160A2F800B008F19C0108F1600200
:10030000303025706360A360636122626162E062E5
:100310006F49704CE1617049636004F10C02226125
:10032000E260A16208F13002303108F1240062621B
:10033000E1626A4A6A4920624FF0A040A3606361AB
:10034000257015705360536293639362D363D362D5
:1003500013641363536453639364138153819367EA
:100360009066D166D3675F485F4A604915705360F5
:10037000536293639362D363D362136413635364CE
:10038000536393641381538193679066D166D367F7
:100390003A6CDFF884814FF080412A433A6442F29C
:1003A000CF00534A8862C1F82CB04FF080508B6167
:1003B0004B63CB604B604D610D606FF07F0182F845
:1003C0001C13C2F880011060C2F8083CD2F80C1C63
:1003D00048484FF6FF0E01EA0E010143C2F80C1C1B
:1003E000D9F80C0040F08071C9F80C10D8F8000062
:1003F000102128434FF0200AC8F8000082F81F1C83
:1004000082F822AC3C4A02F11C001062D06100214B
:100410000020C2F824B052601260936052611261F1
:100420009362D362CDF818B0CDE90A0106A805920F
:10043000079308930993049302F0C2F906A802F007
:1004400097F9059A089B2D492D48D36221F007039F
:100450002C4903602C4821F007035FE0003802407C
:1004600000700040C0460020EC3C002000600240CC
:1004700070FB0008BC58012000000240000402404C
:100480008CFB0008A8FB0008000C0240C4FB00081D
:1004900000100240E0FB000800140240FCFB0008D2
:1004A0000018024018FC0008001C024034FC000840
:1004B0000020024050FC0008B0150108A03C0020BC
:1004C000A45301200030014016000106381F00200F
:1004D00000380040F054012016000100401F0020A9
:1004E00050FB0008000004409021002030FB000871
:1004F00000E100E00003FA05186D01205B6D0120AA
:100500008C36002000C0012088360020500F0108E2
:10051000F0ED00E000080240001000E003604B49ED
:100520004B48049B016000F110014161016183614E
:100530008360C3604748002141775169026141618E
:100540005061086100F124014FF0400B416200F15D
:100550002801C0F808B0C0F83CB0836343638577D6
:100560008361C16281629061057783F3118862B60D
:10057000394892694FF4B071906100932A46374B25
:10058000374802F0B5F8D9F80C3043F08071C9F85B
:100590000C10D8F800202A43C8F8002004F050FDC1
:1005A000082171833046092203F05AFC042131836B
:1005B0003046092203F054FCDDF80CC029466046A1
:1005C000ACF81850092203F04BFC3046514640F27B
:1005D0008A2203F045FC3046594640F28A2203F055
:1005E0003FFC3046802140F28A2203F039FC8AF336
:1005F000118820781B4EA842666017D12346206AD6
:10060000194A0A2100F0FCFF2346606A174A0A21B2
:1006100000F0F6FF3D6CE66945F480433B64276AD1
:10062000646A396822680C368E60966010484568A6
:100630006F8907F4006399B2E1B9866AC26A26F449
:10064000F044846222F4F0411FE000BF111500085D
:10065000C8460020A83C002010FB000851150008E7
:1006600090360020F0FA0008F1620008314D0008D1
:10067000F0540120866AC56A26F4F04444F42052FE
:1006800025F4F043826243F42051C1629B48C5695E
:10069000002447F4417707232C602F606B602968A2
:1006A00041F0400602212E60017084F31188944FBE
:1006B000944D39830922384603F0D2FB28464FF483
:1006C000806140F28A2203F0CBFB0421384640F2DD
:1006D0008A2203F0C5FB4FF400660821384640F239
:1006E0008A2203F0BDFB0922314628466E8303F0BF
:1006F000B7FB854802F06CF884482E8302F068F856
:1007000008F07EFF0B280BD0814F04F011F838461B
:100710003C7004F055F83C78621E504250EB0204E5
:100720007C4B1C701978002900F0EA81754C8021FF
:100730002046002203F094FB20464021002203F0D3
:100740008FFB204600224FF4807103F089FB204686
:1007500000224FF4007103F083FB082501211027CC
:10076000202661832046658309226783668303F020
:1007700077FB20462946092203F072FB20463946C2
:10078000092203F06DFB20463146092203F068FB85
:1007900086F311886048614A03784260012B58D182
:1007A0005F4F6022402187F806234FF48073C7F81B
:1007B00080114FF40070396080244FF480614FF451
:1007C000000687F80723C7F880413C6087F80823B4
:1007D0000224C7F880313B6087F80923C7F88001FD
:1007E000386087F80A23C7F88011396087F8172323
:1007F000C7F880613E6087F82823C7F884317B60A2
:10080000F02387F80123C7F880413C6087F829333B
:10081000C7F8840178604FF0804087F82A23C7F832
:100820008411796087F83E230421C7F88401786039
:1008300087F84C234FF48052C7F88821BA6087F8B4
:100840000233C7F88011396087F80333C7F8805145
:100850003D60314D6868002350F83320DE005107B9
:1008600064D50F2B14D89F0803F00304A5002D496D
:10087000BC1C4FF00F0E51F824700EFA05F9C2F3AC
:10088000031827EA090708FA05F52F4341F82470F1
:1008900025494FF001048D6812F0010F04FA03F4AA
:1008A00014BF2C4325EA040412F0020F1E4A8C6088
:1008B000D4684FF0010707FA03F714BF274324EA6F
:1008C00007078619D7607568174F012155B13A6837
:1008D00001FA03F141EA02043C607E6826EA010164
:1008E000796035E07A6801FA03F141EA02047C603C
:1008F0003E6826EA01053D602AE000BFF054012071
:1009000000080240000402408020050040D5350068
:10091000E0230020146D0120A03C002080FC000892
:1009200000E100E000380140003C0140764F012426
:100930003D6804FA03F4E1430D403D607E680E40DB
:100940007E60BA680A40BA60FD682940F9607C613F
:100950000133172B80D16D4F02203870002585F3AD
:1009600011886B4C204600F0A3FE4FF0200A8AF35A
:100970001188684E684A74624FF0020BB463B46227
:10098000C4F8542284F808B0002484F31188634F1B
:10099000384600F08DFE8AF31188614D61496F621F
:1009A000AF63AF62C7F8541287F808B084F31188B8
:1009B000B36EAF6E986B20F400229A63B96B21F48A
:1009C0000023BB6341F2883006F072FF8AF311887E
:1009D0005548F4607060304634617461B461F4610C
:1009E000346204F07DFB86F800B084F31188B66EA3
:1009F000B26B42F40017B763B16B41F40023B363E9
:100A00008AF311884948EC60686028462C616C6163
:100A1000AC61EC612C6204F063FB85F800B084F3F8
:100A20001188AD6E424FAE6B46F40022AA634FF4BC
:100A30007A7006F03DFF397839B100943D483E4B5D
:100A40004FF41561402201F053FE3C4C3C48A36931
:100A500000249861254685B92D4AD2F85472396828
:100A60000B78042B0DD100953648374B4FF41561A8
:100A7000402201F03DFE054603E02E7F0F2E08BF09
:100A8000002584B9254ED6F85422176839780429F0
:100A90000DD100942D482E4B4FF41561402201F0EA
:100AA00027FE044603E0207F0F2808BF0024294EBC
:100AB000336913F0010F0CBFFA20322042F2107894
:100AC00008FB00F2511E4FF47A77B1FBF7F34FF0B9
:100AD0001009581CA6F8189006F0EAFE3069A6F82E
:100AE0001A9010F0010F0CBFFA22322208FB02F616
:100AF00006F1FF3CBCFBF7F1481C06F0D9FEAAE763
:100B000004F09EFA2DE700BF003C0140A03C00200D
:100B1000F0370020401F002000FB0008483A00206A
:100B20009021002040FB0008E0FA000860FB00086C
:100B3000146D0120E8230020B1D90008186D0120B0
:100B400070FC0008703D0020619D0008382D0020D9
:100B5000019D0008000002400000000000000000AD
:100B60002DE9F04F2DED108AC1F80CD0D0F80CD043
:100B7000BDEC108ABDE8F08F002383F3118828466E
:100B8000A0470CF05DFF0CF07BFF00DFFEE70000EC
:100B900081F0004102E000BF83F0004330B54FEA2E
:100BA00041044FEA430594EA050F08BF90EA020F9B
:100BB0001FBF54EA000C55EA020C7FEA645C7FEA2E
:100BC000655C00F0E2804FEA5454D4EB5555B8BF51
:100BD0006D420CDD2C4480EA020281EA030382EAC2
:100BE000000083EA010180EA020281EA0303362D54
:100BF00088BF30BD11F0004F4FEA01314FF4801C27
:100C00004CEA113102D0404261EB410113F0004F38
:100C10004FEA03334CEA133302D0524263EB4303EF
:100C200094EA050F00F0A780A4F10104D5F1200E8D
:100C30000DDB02FA0EFC22FA05F2801841F10001E8
:100C400003FA0EF2801843FA05F359410EE0A5F1BC
:100C500020050EF1200E012A03FA0EFC28BF4CF0ED
:100C6000020C43FA05F3C01851EBE37101F00045A3
:100C700007D54FF0000EDCF1000C7EEB00006EEBB0
:100C80000101B1F5801F1BD3B1F5001F0CD349083A
:100C90005FEA30004FEA3C0C04F101044FEA445291
:100CA00012F5800F80F09A80BCF1004F08BF5FEA18
:100CB000500C50F1000041EB045141EA050130BDF8
:100CC0005FEA4C0C404141EB010111F4801FA4F19B
:100CD0000104E9D191F0000F04BF01460020B1FAF0
:100CE00081F308BF2033A3F10B03B3F120020CDA28
:100CF0000C3208DD02F1140CC2F10C0201FA0CF006
:100D000021FA02F10CE002F11402D8BFC2F1200C6A
:100D100001FA02F120FA0CFCDCBF41EA0C01904020
:100D2000E41AA2BF01EB0451294330BD6FEA040469
:100D30001F3C1CDA0C340EDC04F11404C4F1200254
:100D400020FA04F001FA02F340EA030021FA04F366
:100D500045EA030130BDC4F10C04C4F1200220FABD
:100D600002F001FA04F340EA0300294630BD21FAFB
:100D700004F0294630BD94F0000F83F4801306BFC1
:100D800081F480110134013D4EE77FEA645C18BFB5
:100D90007FEA655C29D094EA050F08BF90EA020F4C
:100DA00005D054EA000C04BF1946104630BD91EA44
:100DB000030F1EBF0021002030BD5FEA545C05D147
:100DC0004000494128BF41F0004130BD14F5800486
:100DD0003CBF01F5801130BD01F0004545F0FE41FA
:100DE00041F470014FF0000030BD7FEA645C1ABF2F
:100DF000194610467FEA655C1CBF0B46024650EA66
:100E0000013406BF52EA033591EA030F41F4002191
:100E100030BD00BF90F0000F04BF0021704730B517
:100E20004FF4806404F132044FF000054FF00001EC
:100E300050E700BF90F0000F04BF0021704730B5AD
:100E40004FF4806404F1320410F0004548BF404282
:100E50004FF000013EE700BF42004FEAE2014FEAD7
:100E600031014FEA02701FBF12F07F4393F07F4FB2
:100E700081F06051704792F0000F14BF93F07F4FE4
:100E8000704730B54FF4607401F0004521F0004127
:100E900020E700BF50EA010208BF704730B54FF0AD
:100EA00000050AE050EA010208BF704730B511F0B2
:100EB000004502D5404261EB41014FF4806404F1EA
:100EC00032045FEA915C3FF4DCAE4FF003025FEA6C
:100ED000DC0C18BF03325FEADC0C18BF033202EBF4
:100EE000DC02C2F1200300FA03FC20FA02F001FA4E
:100EF00003FE40EA0E0021FA02F11444C1E600BFED
:100F000070B54FF0FF0C4CF4E06C1CEA11541DBF9F
:100F10001CEA135594EA0C0F95EA0C0F00F0DEF86A
:100F20002C4481EA030621EA4C5123EA4C5350EA4F
:100F3000013518BF52EA033541F4801143F48013A0
:100F400038D0A0FB02CE4FF00005E1FB02E506F031
:100F50000042E0FB03E54FF00006E1FB03569CF086
:100F6000000F18BF4EF0010EA4F1FF04B6F5007F8C
:100F700064F5407404D25FEA4E0E6D4146EB0606FE
:100F800042EAC62141EA55514FEAC52040EA5E5087
:100F90004FEACE2EB4F1FD0C88BFBCF5E06F1ED831
:100FA000BEF1004F08BF5FEA500E50F1000041EB68
:100FB000045170BD06F0004646EA010140EA020015
:100FC00081EA0301B4EB5C04C2BFD4EB0C0541EA37
:100FD000045170BD41F480114FF0000E013C00F34C
:100FE000AB8014F1360FDEBF002001F0004170BD70
:100FF000C4F10004203C35DA0C341BDC04F1140489
:10100000C4F1200500FA05F320FA04F001FA05F214
:1010100040EA020001F0004221F0004110EBD370E1
:1010200021FA04F642EB06015EEA430E08BF20EA0D
:10103000D37070BDC4F10C04C4F1200500FA04F3B0
:1010400020FA05F001FA04F240EA020001F0004142
:1010500010EBD37041F100015EEA430E08BF20EAB5
:10106000D37070BDC4F1200500FA05F24EEA020EFD
:1010700020FA04F301FA05F243EA020321FA04F02C
:1010800001F0004121FA04F220EA020000EBD370E3
:101090005EEA430E08BF20EAD37070BD94F0000FE3
:1010A0000FD101F00046400041EB010111F4801F17
:1010B00008BF013CF7D041EA060195F0000F18BFC8
:1010C000704703F00046520043EB030313F4801F04
:1010D00008BF013DF7D043EA0603704794EA0C0FBE
:1010E0000CEA135518BF95EA0C0F0CD050EA4106D4
:1010F00018BF52EA4306D1D181EA030101F0004151
:101100004FF0000070BD50EA410606BF1046194678
:1011100052EA430619D094EA0C0F02D150EA013684
:1011200013D195EA0C0F05D152EA03361CBF1046C5
:1011300019460AD181EA030101F0004141F0FE4164
:1011400041F470014FF0000070BD41F0FE4141F4E8
:10115000780170BD70B54FF0FF0C4CF4E06C1CEAE8
:1011600011541DBF1CEA135594EA0C0F95EA0C0F9D
:1011700000F0A7F8A4EB050481EA030E52EA033558
:101180004FEA013100F088804FEA03334FF0805579
:1011900045EA131343EA12634FEA022245EA1115A6
:1011A00045EA10654FEA00260EF000419D4208BF57
:1011B000964244F1FD0404F5407402D25B084FEA04
:1011C0003202B61A65EB03055B084FEA32024FF4B0
:1011D00080104FF4002CB6EB020E75EB030E22BF0D
:1011E000B61A754640EA0C005B084FEA3202B6EBCD
:1011F000020E75EB030E22BFB61A754640EA5C007C
:101200005B084FEA3202B6EB020E75EB030E22BF0B
:10121000B61A754640EA9C005B084FEA3202B6EB0C
:10122000020E75EB030E22BFB61A754640EADC00CB
:1012300055EA060E18D04FEA051545EA16754FEA2D
:1012400006164FEAC30343EA52734FEAC2025FEA4B
:101250001C1CC0D111F4801F0BD141EA00014FF0DA
:1012600000004FF0004CB6E711F4801F04BF0143AB
:101270000020B4F1FD0C88BFBCF5E06F3FF6AFAEC7
:10128000B5EB030C04BFB6EB020C5FEA500C50F157
:10129000000041EB045170BD0EF0004E4EEA1131DA
:1012A00014EB5C04C2BFD4EB0C0541EA045170BDE1
:1012B00041F480114FF0000E013C90E645EA060E25
:1012C0008DE60CEA135594EA0C0F08BF95EA0C0F53
:1012D0003FF43BAF94EA0C0F0AD150EA01347FF49B
:1012E00034AF95EA0C0F7FF425AF104619462CE772
:1012F00095EA0C0F06D152EA03353FF4FDAE1046D5
:10130000194622E750EA410618BF52EA43067FF425
:10131000C5AE50EA41047FF40DAF52EA43057FF4B5
:10132000EBAE12E70000000000000000000000002B
:101330004FEA410212F5001215D211D56FF47873FD
:10134000B3EB625212D94FEAC12343F0004343EAA0
:10135000505311F0004F23FA02F018BF404270477B
:101360004FF00000704750EA013005D111F0004005
:1013700008BF6FF0004070474FF00000704700BF9B
:101380004FEA4102B2F1E04324BFB3F5001CDCF1A7
:10139000FE5C0DD901F0004C4FEAC0024CEA5070DF
:1013A000B2F1004F40EB830008BF20F0010070470E
:1013B00011F0804F21D113F13872BCBF01F0004011
:1013C000704741F480114FEA5252C2F11802C2F143
:1013D000200C10FA0CF320FA02F018BF40F00100C4
:1013E0004FEAC1234FEAD32303FA0CFC40EA0C0076
:1013F00023FA02F34FEA4303CCE77FEA625307D1B3
:1014000050EA01331EBF4FF0FE4040F440007047E9
:1014100001F0004040F0FE4040F40000704700BF83
:101420007047000000000000000000000000000005
:1014300090F85C3003F06001202919D190F85D200C
:10144000212A0AD0222A4FF000030CD0202A0FD1E3
:10145000084907220165426507E0064B072103653D
:101460004165002301E00365436583650120704702
:10147000002070470008002000000000000000006D
:101480000379052B06D1806A4FF4007248600A6028
:10149000002070470120704700000000000000009D
:1014A0007047000000000000000000000000000085
:1014B0007047000000000000000000000000000075
:1014C0007047000000000000000000000000000065
:1014D000034B00224FF4E8711A6059609A6070471C
:1014E00008080020000000000000000000000000CC
:1014F0000020704700000000000000000000000015
:10150000014B01221A707047B41E00200000000039
:10151000202383F31188094A094BC11D1B681068F9
:1015200021F007011B1A8B4228BF41184FF000031E
:101530002CBF1160184683F3118870478C36002049
:1015400088360020000000000000000000000000BD
:10155000024B034A98698261FEE700BF186D0120C3
:1015600050E400080000000000000000000000003F
:10157000064B5A6822F001005860EFF30981683188
:1015800081F30988002383F31188704730EF00E06E
:1015900030B5827A14495409012302F01F05203422
:1015A00002F1604203FA05F502F5614241F8245068
:1015B000002182F800130D4A407A116803FA00F303
:1015C00021EA030313F0FF0F136004D10848026BF4
:1015D00022F40011016313F47F4F04D1044B186B04
:1015E00020F480021A6330BD00E100E0C046002014
:1015F0000038024000000000000000000000000071
:10160000F0B5274E447A3768012505FA04FC1CEA38
:10161000070F41D1234D45F8342005EBC404636026
:101620004CEA070313F0FF0F336004D01E4E376BF4
:1016300047F40015356313F47F4F04D01A4B1C6B2D
:1016400044F480061E6303681F6827F01F051D60B1
:101650001C6814F00105FBD1067A44683D2707FA9F
:1016600006F6266021241D605C61BAB1807A0F4ABB
:1016700000F16044090104F56144CBB284F8003301
:10168000410900F01F03012000FA03F301F160009B
:1016900042F8203042F821302846F0BD1046F0BD17
:1016A000C0460020EC3C00200038024000E100E091
:1016B0000346144A012143F8042B017200F10C0285
:1016C00000214360026100F15403C26041610E4A8F
:1016D000036200F1300143628361416300F5AA7344
:1016E00001630A49C361826243644FF48072836478
:1016F000C36300F51573C06282630364C16400654F
:10170000704700BF10F20008A1700008D1D2000895
:101710000023084A985848B1202181F31188427F5C
:1017200042F004014177002080F311880433142B28
:10173000EFD1704774560120000000000000000047
:1017400030B50D4B1A680D4B0133934205D211F899
:10175000014B1D78A542F7D001E00B783BB1084959
:10176000084A01230B7008491370086002E007491A
:10177000014A1160184630BD485601204F560120DD
:101780004456012043560120605601205056012046
:1017900041B9054A054901231370054A0B701060D1
:1017A00018467047002070474456012043560120D8
:1017B0006056012000000000000000000000000052
:1017C000202383F31188044A116801F8010B0020DB
:1017D000116080F311887047485601200000000016
:1017E00008B50078FFF7ECFF002008BD00000000FE
:1017F0004120FFF7E5BF00000000000000000000EE
:101800004220FFF7DDBF00000000000000000000E4
:101810004320FFF7D5BF00000000000000000000DB
:1018200008B50078FFF7CCFF002008BD00000000DD
:1018300010B5441E14F8011F29B1034B1868026843
:1018400093689847F6E710BD4C5601200000000051
:1018500008B5FFF7EDFF044B1868016802220B681A
:101860000249984708BD00BF4C56012026E50008F4
:101870001FB530B911490868036830219A6890474C
:101880001BE00DF101030A21B0FBF1F201FB120094
:10189000303003F8010C1C4610460133002AF2D107
:1018A0006A469442214608D9044811F8011C006890
:1018B00003689A68013C9047F2E71FBD4C5601202F
:1018C00010B52F482F4CFFF7B3FF4FF43770FFF7D9
:1018D000CFFF2046FFF7BCFF2B48FFF7A9FF4420AE
:1018E000FFF7C6FF2046FFF7B3FF2848FFF7A0FF2A
:1018F0001420FFF7BDFF2046FFF7AAFF2448FFF79B
:1019000097FF0C20FFF7B4FF2046FFF7A1FF214807
:10191000FFF78EFF0420FFF7ABFF2046FFF798FF8D
:101920001D48FFF785FF1420FFF7A2FF2046FFF7B1
:101930008FFF1A48FFF77CFF1020FFF799FF204622
:10194000FFF786FF1648FFF773FF0820FFF790FFA9
:101950002046FFF77DFF1348FFF76AFF2420FFF7BB
:1019600087FF2046FFF774FF0F48FFF761FF28202D
:10197000FFF77EFF2046BDE81040FFF769BF00BFBC
:1019800055E4000862E4000869E4000876E4000811
:1019900083E4000890E400089DE40008AAE400083D
:1019A000B7E40008C4E40008D1E400080000000027
:1019B00038B54C24074D286803682D219A68904754
:1019C000013CF7D12868016802220B680249984758
:1019D00038BD00BF4C56012026E50008000000007D
:1019E00008B52022034682F31188006810B102680E
:1019F0001A6003E0996809B158688847002383F3A7
:101A0000118808BD00000000000000000000000078
:101A1000202383F3118802461368834206D08B4249
:101A200002D10868106001E01A46F5E7002181F351
:101A30001188704700000000000000000000000056
:101A400010B50B461B688B4205D159680360416095
:101A50000860586010BD9C6882689442F2D2F4E736
:101A600010B50B461B688B4205D159680360416075
:101A70000860586010BD9C6882689442F2D2F4E716
:101A80006439411810B5C1600B64029B4B640E4B66
:101A90000B66022101770D4982600023437783633F
:101AA000436383614B69C2630122016182774361B1
:101AB00000F12402486100F12801186104464262E5
:101AC000C162816210BD00BF790B0008186D012052
:101AD0000C4B18689969026810B5012453600477AB
:101AE0001A608C68986100220A771B689A68A24283
:101AF000FBD85A680B604A6011605960BDE810401D
:101B0000FFF72EB8186D0120000000000000000053
:101B1000044B1A68986991688368994201D9FFF764
:101B2000D7BF7047186D01200000000000000000C2
:101B300010B5202383F3118808498A69D46B936810
:101B4000A34201D0984200D99060D063FFF7E0FF34
:101B5000002080F31188204610BD00BF186D0120C1
:101B6000F8B54C4DAB699C68661C3046FFF7E0FF4A
:101B7000074601203A1B51425141FFF709FE002858
:101B800040F08680A869836802209A1B5142514127
:101B9000FFF7FEFD00287BD13846FFF7C9FFB0EB09
:101BA000060CDCF1000050EB0C010320FFF7F0FD08
:101BB00000286DD1AB699A680420B2EB040EDEF107
:101BC000000151EB0E01FFF7E3FD002860D1202753
:101BD00087F31188AB699A68911C996080F311882A
:101BE000A8698368A71C0520DA1B51425141FFF701
:101BF000CFFD00284CD13046FFF79AFF001B43422F
:101C000053EB00010620FFF7C3FD002840D1AA696D
:101C100091680720B1EB070CDCF1000353EB0C01DA
:101C2000FFF7B6FD002833D1A869C26B0820B2EBDC
:101C3000060EDEF1000151EB0E01FFF7A9FD38BBE6
:101C4000E71C3846FFF774FF831B584250EB030133
:101C50000920FFF79DFDD8B9AA6991680A20CB1B1E
:101C60005A4252EB0301FFF793FD88B9A869C16B93
:101C70000B20CB1B5A4252EB0301FFF789FD38B909
:101C8000202181F31188AB699C60DC6380F31188AB
:101C9000F8BD00BF186D012000000000000000002A
:101CA000054B996908771868026853601A60986153
:101CB00001230377FEF754BF186D012000000000D8
:101CC000074B10B520209C6980F311880320FFF793
:101CD000E7FF216A0029F9D0002080F3118810BDA8
:101CE000186D01200000000000000000000000004E
:101CF00010B5202383F311880B488269946A02F19E
:101D000028018C42044602D10E20FFF7C9FFA369C7
:101D1000986A026843F8282F0D2153600177002349
:101D200083F3118810BD00BF186D01200000000072
:101D300010B5202383F3118881684A1E002A82602F
:101D40000DDA094CA3691862416818605960436054
:101D500005200B60FFF7A4FFA069006A00E00020E7
:101D6000002282F3118810BD186D012000000000D0
:101D700010B504460348FFF7DBFF2078FFF720FD8E
:101D8000002010BD18080020000000000000000026
:101D900013B5064C02ABA26943F8040D02600320A0
:101DA0001362FFF77DFFA069006B1CBD186D012059
:101DB000202383F311881248416811F400621BD07C
:101DC000F1EE103AEFF309830E49CA684FF08070C4
:101DD00043F84C0C43F8082CA3F1680080F3098801
:101DE000094A116890698968826891428CBF074AE4
:101DF000074A43F8502C704782F31188704700BFA0
:101E000000ED00E030EF00E0186D0120870B0008C6
:101E10008A0B000800000000000000000000000025
:101E2000074808B54168074B4FF480225A61D1F842
:101E3000942012219047BDE80840FFF7B9BF00BFCA
:101E4000A03C0020003C0140000000000000000019
:101E5000074808B54168074B4FF400325A61D1F882
:101E60008C2011219047BDE80840FFF7A1BF00BFBB
:101E7000A03C0020003C01400000000000000000E9
:101E8000074808B54168074B4FF480325A61D1F8D2
:101E9000842010219047BDE80840FFF789BF00BFAC
:101EA000A03C0020003C01400000000000000000B9
:101EB000194B10B55C6904F47C4260055A6104D585
:101EC000164841684B6D0A219847210504D51348EF
:101ED00042680B21D36D9847E20404D50F4841684E
:101EE0004A6E0C219047A30404D50C4843680D2189
:101EF000DA6E9047600404D5084841684B6F0E21A4
:101F00009847210404D5054842680F21D36F9847AC
:101F1000BDE81040FFF74CBF003C0140A03C002052
:101F2000164B10B55C6904F478725A61A30604D5A7
:101F300013484168CB6A05219847600604D51048CC
:101F400042680621536B9847210604D50C48416826
:101F5000CA6B07219047E20504D509484368082168
:101F60005A6C9047A30504D505484168CB6C0921FC
:101F70009847BDE81040FFF71BBF00BF003C014081
:101F8000A03C002000000000000000000000000055
:101F9000064808B54168064B10225A614A6A042176
:101FA0009047BDE80840FFF703BF00BFA03C0020FA
:101FB000003C0140000000000000000000000000A4
:101FC000064808B54168064B08225A61CA690321D0
:101FD0009047BDE80840FFF7EBBE00BFA03C0020E3
:101FE000003C014000000000000000000000000074
:101FF000064808B54168064B04225A614A69022125
:102000009047BDE80840FFF7D3BE00BFA03C0020CA
:10201000003C014000000000000000000000000043
:10202000064808B54168064B02225A61CA68012178
:102030009047BDE80840FFF7BBBE00BFA03C0020B2
:10204000003C014000000000000000000000000013
:10205000064808B54168064B01225A614A680021CA
:102060009047BDE80840FFF7A3BE00BFA03C00209A
:10207000003C0140000000000000000000000000E3
:1020800008B5084B5968880D00F03D0106488A05DF
:10209000DA60836F0BB1C06F9847BDE80840FFF767
:1020A00087BE00BF00640240EC3C0020000000003E
:1020B00008B5084B5968080C00F03D0106480A04B1
:1020C000DA60036F0BB1406F9847BDE80840FFF737
:1020D0006FBE00BF00640240EC3C00200000000026
:1020E00008B5084B5968880900F03D0106488A0187
:1020F000DA60836E0BB1C06E9847BDE80840FFF709
:1021000057BE00BF00640240EC3C0020000000000D
:1021100008B5074B074A596801F03D01D960136EB5
:102120000BB1506E9847BDE80840FFF741BE00BFB5
:1021300000640240EC3C00200000000000000000B1
:1021400008B5084B1968880D00F03D0106488A055E
:102150009A60836D0BB1C06D9847BDE80840FFF7EA
:1021600027BE00BF00640240EC3C002000000000DD
:1021700008B5084B1968080C00F03D0106480A0430
:102180009A60036D0BB1406D9847BDE80840FFF7BA
:102190000FBE00BF00640240EC3C002000000000C5
:1021A00008B5084B1968880900F03D0106488A0106
:1021B0009A60836C0BB1C06C9847BDE80840FFF78C
:1021C000F7BD00BF00640240EC3C002000000000AE
:1021D00008B5074B074A196801F03D019960136C77
:1021E0000BB1506C9847BDE80840FFF7E1BD00BF58
:1021F00000640240EC3C00200000000000000000F1
:1022000008B5084B5968880D00F03D0106488A055D
:10221000DA60836B0BB1C06B9847BDE80840FFF7ED
:10222000C7BD00BF00600240EC3C00200000000081
:1022300008B5084B5968080C00F03D0106480A042F
:10224000DA60036B0BB1406B9847BDE80840FFF7BD
:10225000AFBD00BF00600240EC3C00200000000069
:1022600008B5084B5968880900F03D0106488A0105
:10227000DA60836A0BB1C06A9847BDE80840FFF78F
:1022800097BD00BF00600240EC3C00200000000051
:1022900008B5074B074A596801F03D01D960136A38
:1022A0000BB1506A9847BDE80840FFF781BD00BFF9
:1022B00000600240EC3C0020000000000000000034
:1022C00008B5084B1968880D00F03D0106488A05DD
:1022D0009A6083690BB1C0699847BDE80840FFF771
:1022E00067BD00BF00600240EC3C00200000000021
:1022F00008B5084B1968080C00F03D0106480A04AF
:102300009A6003690BB140699847BDE80840FFF740
:102310004FBD00BF00600240EC3C00200000000008
:1023200008B5084B1968880900F03D0106488A0184
:102330009A6083680BB1C0689847BDE80840FFF712
:1023400037BD00BF00600240EC3C002000000000F0
:1023500008B5074B074A196801F03D0199601368F9
:102360000BB150689847BDE80840FFF721BD00BF9A
:1023700000600240EC3C0020000000000000000073
:10238000002303778168054B1B689A688A42FBD259
:10239000596803604160086058607047186D0120FB
:1023A0000D4A10B59469202282F31188216300F14F
:1023B00028012162037FC26A21600E2B6260C46221
:1023C000146001D1FFF7DCFF0C20FFF769FC206AE5
:1023D000002181F3118810BD186D0120000000005C
:1023E00010B541210446FFF7DBFF42212046FFF7ED
:1023F000D7FF20464321FFF7D3FF002010BD000088
:10240000436B027F19430A2A416303D1026A1142D6
:1024100006D170470B2A07D1036A1940994203D1AC
:1024200000210162FFF7ACBF704700000000000010
:1024300070B5046805460E46AC420DD0E36846EA26
:102440000300E06016B12269104203D06068A16801
:10245000FFF7D6FF2468EFE770BD00000000000022
:10246000124B10B520209C6980F31188A16BC1B17B
:10247000A36B1868DA689842A26309D00268816B7E
:102480001A6053609860D9608363FFF779FF01E0B9
:1024900000218160A06B0028EAD1E36BA360FFF705
:1024A00037FB002282F3118810BD00BF186D012098
:1024B000114A03469169C2680068984230B58A6340
:1024C00016D0CC6B42B11568954203D0AD68AC42D2
:1024D00038BF2C46D268F5E78C60826B01681960C2
:1024E0004B609860DA608363BDE83040FFF748BF17
:1024F0000023836030BD00BF186D01200000000084
:1025000082680346501C0028986007DC1868016840
:1025100019604B6000230362FFF732BF7047000071
:1025200008B5202282F311888168002901DCFFF7B9
:10253000E7FFFFF7EDFA002080F3118808BD0000E7
:1025400008B5FFF7EDFF002008BD00000000000007
:1025500038B58568816004460135002D09DC606866
:10256000436863601C60FFF70BFF6FF001010162BD
:10257000F2E738BD0000000000000000000000008D
:1025800038B5202383F311880B4C2068A569816836
:10259000AA6891420CD30368012101775C60A061B5
:1025A00028462360FFF7ECFEA0692946FEF7D8FA1B
:1025B000002080F3118838BD186D01200000000054
:1025C00010B50446FFF7DCFFFFF7DAFFFFF7D8FF8F
:1025D000FFF7D6FF23680649181D8A692060537FDC
:1025E00003F00400C1B20029ECD0002010BD00BFF0
:1025F000186D012000000000000000000000000035
:1026000038B50C4D0162AB6981689A689142044605
:1026100003D8BDE83840FFF7B3BE1846FFF7B0FE59
:102620000146012020772046AC61BDE83840FEF726
:1026300097BA00BF186D01200000000000000000E4
:10264000134A38B592690346202181F31188C16885
:1026500000689163984215D0D46B41B10D688D42EA
:1026600003D0AD68AC4238BF2C46C968F5E794602A
:1026700002681A605360826B9860DA608363FFF7C8
:10268000BFFF01E000238360002080F3118838BD84
:10269000186D012000000000000000000000000094
:1026A00008B52022034682F311888068411C002966
:1026B000996006DC1868026800211A605360FFF711
:1026C0009FFF002383F3118808BD00000000000075
:1026D00010B5044C2046FFF72BFB2046FFF7E0FF28
:1026E000002010BD180800200000000000000000BD
:1026F00013B5202484F31188049C0094FFF7C0F9DB
:1027000000210446FFF77CFF002383F31188204655
:102710001CBD0000000000000000000000000000E0
:1027200008B5202383F31188027F0023072A11D8DC
:10273000DFE802F0161010040B07100B026A13609A
:1027400008E0016A8B685A1C8A6090E80C001A60E5
:1027500001684B604FF0FF330362FFF711FE002367
:1027600083F3118808BD0000000000000000000095
:102770000E4B0F4A5968C36810B5D46A5A1C836857
:10278000C260C91AD0E90423091B521843F100039F
:10279000C0E9042342688160914201D9416010BDC3
:1027A0000368994238BF016010BD00BF001000E00F
:1027B000186D012000000000000000000000000073
:1027C000014B596881607047001000E00000000074
:1027D0000A4B59684018094A8842536803D98B420A
:1027E00003D2002307E08B4204D283422CBF002394
:1027F000012300E00123002BEDD17047001000E021
:10280000FEE70000000000000000000000000000E3
:102810002DE9F04FAC49AD4CADF5357D054609F0DD
:10282000FFFD2846AA4909F0FBFDE369A949009389
:10283000A0690190626A236A284609F0F1FDA64961
:10284000284609F0EDFD642005F032F8204600210D
:10285000A24A012305F0ECF8064610B12846A0492B
:1028600064E1A049284609F0DBFD642005F020F86A
:102870009D49284609F0D4FD642005F019F8314639
:1028800020469A4A012305F0D3F801460028E5D1F5
:102890002046974A012305F0CBF801460028DDD1F8
:1028A0002046944A012305F0C3F806460028D5D1F6
:1028B0008C49284609F0B4FD642004F0F9FF8E49E4
:1028C000284609F0ADFD642004F0F2FF552083494D
:1028D00001F04EF85520894901F04AF8204631466A
:1028E0007E4A082305F0A4F80028B7D12846844979
:1028F00009F096FD4FF47A747448804A0021082349
:1029000005F096F80028A9D174487C494FF480520C
:102910000BF0BEF810B128467A4907E128467A49FB
:1029200009F07EFD013CE7D16E49284609F078FDAB
:10293000642004F0BDFF7549284609F071FD64204C
:1029400004F0B6FF5520654901F012F855206B4997
:1029500001F00EF85D48654A2146082305F068F845
:1029600000287FF47BAF4FF47A745848684A0021FE
:10297000082305F05DF800287FF470AF57485F49E1
:102980004FF480520BF084F80028C4D1013CECD104
:102990005449284609F044FD642004F089FF5D494C
:1029A000284609F03DFD642004F082FFAA204B492F
:1029B00000F0DEFF4548494A2146012304F0A8FF04
:1029C00010B128465449B1E04C4900F0D1FF3F48CE
:1029D0004A4A2146012305F02BF800287FF43EAF38
:1029E0003E4846494FF400720BF052F8002892D14D
:1029F00028463C4909F014FD4849284609F010FDD5
:102A0000642004F055FFFF20344900F0B1FF2F4847
:102A1000364A2146012304F07BFF0028D1D13749F3
:102A200000F0A6FF29483A4A2146012305F000F8A4
:102A300000287FF413AF2D4835494FF400720BF096
:102A400027F800287FF467AF2846264909F0E8FCFC
:102A50002846334909F0E4FC642004F029FF2749A3
:102A6000AA2262540134B4F5805FF8D14FF4803467
:102A70001648224A2146082304F04AFF002853D171
:102A80000834B4F5883FF3D14FF480340F48134A2B
:102A90002146082304F0CCFF002845D10F481749F0
:102AA0004FF480520AF0F4FF00283DD10834B4F509
:102AB000883FEBD128460B4909F0B2FC194B14AA08
:102AC00003F110063AE000BFDD0B0108BC580120FD
:102AD00000E500081AE5000829E50008045901206E
:102AE00040E50008DC0B01084DE500080559012010
:102AF000065901200759012066E50008600B0020F7
:102B000080E5000884E5000882E5000890E50008FB
:102B1000610B0020ACE50008C4E50008D2E5000820
:102B2000ECE50008A7E80008A649284609F078FC6B
:102B300007F0EEFA0DF5357DBDE8F08F186859689D
:102B4000144603C40833B3422246F7D118689E499D
:102B50002060284609F064FC642004F0A9FE9B482C
:102B600007F0B6FA064610B128469949F1E2994BAA
:102B7000012119702846984909F052FC97492846C6
:102B800009F04EFC642004F093FE954A0FA80F92C2
:102B900000F03EFF0028C0F2DB83924C54F8204046
:102BA000002C00F0D78310F0FF02267005D18E496B
:102BB0000B79581F18BF012000E00220C10700F167
:102BC000CB83002A40F06A828748836A7F2B40F2D9
:102BD0006582A3F13F094FF4FA66B9FBF6F0834929
:102BE00031F81260B04201D20132F8E7804830F883
:102BF0001220510A08BF0121B9FBF1F840F6F57621
:102C0000B045049140F2AC8306F57046B04540F201
:102C1000BA8308F182084FEA880202F1FF310020EE
:102C20004FEA5128032605904FF0200B059A02EB3E
:102C30000801049A0BF13F0A3F3A01EB0A00111810
:102C40008945C0F08B8300F1FF0222F0FF01081AD2
:102C5000032E0CBF83448044CBEB0902059908BFC7
:102C60008244C8EB0200421A0498022EB2FBF0F133
:102C7000069106D1069940F6F572914240F26E83B4
:102C800014E0032E08D106984FF6F572904240F2F8
:102C900065834FF00C0C10E0012E07D1B9F5803F91
:102CA00034BF4FF0010C4FF0060C06E0B9F5803F41
:102CB0002CBF4FF0060C4FF0040C04F134073846DB
:102CC00000214FF400720393CDF808C000F0E8FE35
:102CD0000020012384F8F33184F8F43184F8F501FD
:102CE000DDF808C0FE2284F8F6C184F8F721039BC2
:102CF00084F8FB0143F6C161B3FBF1F18A0842F0AD
:102D00003F0384F8F83184F8F911C9F30722C9F3B5
:102D100007433F2184F8FA115FFA89FC84F8FF2108
:102D200084F800324FEA1961079208935522AA23CA
:102D300084F8011284F8322284F8333284F8FC01DA
:102D400084F8FD0184F8FEC1099101233946024649
:102D5000CDF808C004F02CFE0346002840F09E8108
:102D6000194638464FF40072039300F099FE0B2287
:102D70003846204900F09CFE0398049A84F83F00EE
:102D8000022184F842B0012384F84500CBF3072BDD
:102D9000032E14BF0220002084F8401084F8412044
:102DA00084F843B084F8443084F84600B9F5803F95
:102DB000DDF808C020D2079884F847C084F848009E
:102DC00025E000BF6FE800087EE800088856012073
:102DD00013E60008F0530120DD0B010824E600088B
:102DE00028E500085C0B0020BC580120E0E4000846
:102DF000C0E8000833E600080799089A099B84F8A0
:102E000054C084F8551084F8562084F857300023B5
:102E1000F8213F22FF20032E84F8491084F84C202B
:102E200084F84D3084F84E0084F84F3084F85020F8
:102E300084F8513084F8523084F853304FF0210137
:102E400032D184F87910C8F307214FEA18424FEACB
:102E5000186084F85910022184F8773084F87830AB
:102E600084F87A3084F85A2084F85B0084F8601083
:102E70000620292184F8613084F8623084F86330B8
:102E8000012284F8653084F86730802384F8660076
:102E900084F8761084F8588084F8642084F87430BC
:102EA00004F17B00B14916E0292084F85B3084F8F6
:102EB0005C3084F85D1084F85E30C8F3072280230C
:102EC000AB4984F85A0084F84A8084F84B2084F88F
:102ED000583004F15F00132200F0EAFD5522AA20C9
:102EE00084F8322284F83302394600203F2201233D
:102EF00004F05EFD002840F0D180032E04D1394655
:102F00004522012304F054FD002138464FF400729D
:102F100000F0C6FD4FF0FF014FF0F803032E84F8D8
:102F2000343084F8351084F8361005D0012E08BFEF
:102F3000002184F8371012E00F2284F8371084F84B
:102F4000381084F8391084F83A1084F83B1084F86B
:102F50003C1084F83D1084F83E1084F83F20394638
:102F600000205246012304F023FD0AF10109014625
:102F7000002840F0938038464FF4007200F090FD36
:102F8000CAEB090040450BD2002039464A460123CE
:102F900009F1010B04F00CFD00287FD1D946EFE7C1
:102FA000DDF814B0049BCA46032E08BF9B4609F106
:102FB000010E002039464A460123CDF808E004F00E
:102FC000F7FCDDF808C08046002867D10BEB0A014A
:102FD0006145E146EBD1F21E564206980499CDF8C0
:102FE00044C05641831B01FB03C909F1FF3211A8FC
:102FF000129205F015F8002E3CD0522084F83400CF
:1030000084F83500069884F82182612341227221D8
:1030100084F8363084F81B32431E84F8372084F855
:10302000181284F8191284F81A22190CC3F3072213
:10303000180E84F81C3284F81D2284F81E12022314
:103040005522AA2184F81F0284F8203284F8322203
:1030500084F8331240223946012384F8228284F80E
:103060002382404604F0A4FC404639464622012310
:1030700004F09EFC28463F4909F0D2F93E49284613
:1030800009F0CEF9642004F013FC0EA80DA907F096
:10309000A7F9024630B128463849C3E00122284644
:1030A0003749BFE028463349364C09F0B9F90E9A42
:1030B000A3783549354C500258430090284609F012
:1030C000AFF93349284609F0ABF9642004F0F0FB6E
:1030D00012222BA8214607F0C3FB024628460AB15C
:1030E0002C499FE0234909F09BF92B49284609F018
:1030F00097F9642004F0DCFB14222BA814A90CAB74
:1031000004F0C6FA024628460AB124498AE0194961
:1031100009F086F92846224909F082F92BA804F023
:103120001FFA024628460AB11E497BE0114909F000
:1031300077F928461C4909F073F92BA8214601228A
:1031400007F08EFB0646642004F0B2FB1EB1114965
:103150002846324666E02BA8144914220BAB04F033
:1031600027FE38B328461249E0E400BF3FE60008D6
:1031700053E60008DD0B010867E600088CE600084E
:103180007CE60008885601209FE60008FDE600085E
:10319000E0E600080AE700081AE7000834E700083C
:1031A00045E7000861E7000872E70008300A0020E0
:1031B00096E7000814A87E4914220AF069FC00284A
:1031C0007FF4A9AB28467B4909F02AF928467A49B9
:1031D00009F026F919A810A90122109406F0F0FDB3
:1031E0000446E0B94FF4007105F09AFE8046A8B19C
:1031F000209011AB19A810991F9302F049FE0446C4
:1032000038B91F9AD17A01F02004E0B2002835D0F5
:103210000624404609F05CFA3CB100E011246749FD
:103220002846224609F0FCF882E46549284609F060
:10323000F7F8204606F04CFF28465E4909F0F0F802
:103240002846604909F0ECF8642004F031FB5E4840
:1032500004F07EFF10B128465C4967E428465C49CB
:1032600009F0DEF828465B4909F0DAF828465A49A1
:1032700009F0D6F8642004F01BFB59E41E9F37B117
:10328000FE7A16F0010F0CBF0024072400E006248C
:10329000199B3946187800F0ABFB0646002CB8D1D4
:1032A000FA7A02F01001CCB2002C3DD0012837D9B7
:1032B00022A819A9242200F0FBFB22A802212496AF
:1032C00004F026FE04460028A3D122A804F0C8F882
:1032D000044638B3199843699E4223D0042C98D1F0
:1032E00022E0214619A804F043F8044660BB19986F
:1032F0001D9904F005FC044630BB20221E9821468F
:1033000000F0CEFB1E99E520087019980123037187
:10331000BDF86A20BA42E4D3002E44D0012E38D83A
:10332000022476E7072474E7BDF86A70BDF88410BC
:103330004FF6FF7219A8914208BF394604F0E8FD24
:1033400004460028D3D064E7042C08BF022460E7B9
:103350000B22A4E60C22A2E60322A0E60E229EE6A1
:10336000032000FB08F202F101014FEA510A0AEBC7
:10337000000C01260CF2FF1E20204FEA5E2805906B
:103380004FF0010B52E408F1020B4FEA4B0C0226FE
:10339000F0E78469A642C3D2314604F039F9044605
:1033A00000287FF436AF199804F07AFE044630E71F
:1033B000300A0020DD0B0108A2E70008BFE7000883
:1033C000D1E70008E7E70008BC58012002E8000840
:1033D000DC0B010815E800084EE8000800000000BA
:1033E0000369C2689A4205D04168CA5C013303612F
:1033F000104670476FF001007047000000000000A9
:10340000C36882689A4206D04268D154C1684B1C96
:10341000C360002070476FF001007047000000009B
:10342000034B1A68501C1860024B01211960704749
:10343000001F00208C1E0020000000000000000083
:1034400002290CD0032904D00748012918BF002005
:103450007047032A05D8054800EBC20070470448AE
:1034600070470020704700BFA0EC000830ED000856
:1034700000EA00080000000000000000000000005A
:1034800002290CD0032904D00748012918BF0020C5
:103490007047032A05D8054800EBC200704704486E
:1034A00070470020704700BFA0ED0008E0E9000869
:1034B000E0E800080000000000000000000000003C
:1034C0000020704700000000000000000000000025
:1034D0000120704700000000000000000000000014
:1034E0000079053818BF0120704700000000000077
:1034F00038B5C36885680446ED1A4068AA4238BFEB
:1035000015462A46C0180AF0D3FAE1684A19E26063
:10351000284638BD00000000000000000000000048
:1035200038B50369C568ED1AAA4238BF1546426826
:1035300004460846D1182A460AF0BAFA2069411909
:103540002161284638BD0000000000000000000096
:1035500038B505460C4669B108460AF059FB40F2F9
:10356000FE33411E9942024604D82868214603686A
:103570002846984738BD0000000000000000000009
:1035800010B523490446FFF7E3FF20462149FFF722
:10359000DFFF20462049FFF7DBFF20461F49FFF7EA
:1035A000D7FF20461E49FFF7D3FF20461D49FFF7EE
:1035B000CFFF20461C49FFF7CBFF20461B49FFF7F2
:1035C000C7FF20461A49FFF7C3FF20461949FFF7F6
:1035D000BFFF20461849FFF7BBFF20461749FFF7FA
:1035E000B7FF20461649FFF7B3FF20461549FFF7FE
:1035F000AFFF20461449FFF7ABFF20461349FFF702
:10360000A7FF13492046BDE81040FFF7A1BF00BF48
:1036100010EA00082DEA000846EA000866EA0008F9
:1036200089EA0008A9EA0008C4EA0008E5EA0008F7
:1036300001EB00081FEB000843EB00086EEB0008ED
:103640008AEB0008BBEB0008E4EB00080AEC00087A
:1036500039EC00080000000000000000000000003D
:1036600010B519490446FFF773FF20461749FFF7C5
:103670006FFF20461649FFF76BFF20461549FFF7FD
:1036800067FF20461449FFF763FF20461349FFF701
:103690005FFF20461249FFF75BFF20461149FFF705
:1036A00057FF20461049FFF753FF20460F49FFF709
:1036B0004FFF20460E49FFF74BFF0E492046BDE85D
:1036C0001040FFF745BF00BF10EA00082DEA0008D0
:1036D00046EA000866EA000889EA0008A9EA000844
:1036E000C4EA0008E5EA000801EB00081FEB000847
:1036F00043EB00086EEB0008000000000000000033
:1037000010B505490446FFF723FF04492046BDE8EC
:103710001040FFF71DBF00BF74EC000879EC0008F3
:10372000836E890141F0200018611A699206FCD469
:103730000C20FFF74DB80000000000000000000062
:10374000074808B54168074B4FF480025A61D1F829
:10375000B42016219047BDE80840FEF729BB00BF02
:10376000A03C0020003C01400000000000000000E0
:10377000074808B54168074B4FF400125A61D1F869
:10378000AC2015219047BDE80840FEF711BB00BFF3
:10379000A03C0020003C01400000000000000000B0
:1037A000074808B54168074B4FF480125A61D1F8B9
:1037B000A42014219047BDE80840FEF7F9BA00BFE5
:1037C000A03C0020003C0140000000000000000080
:1037D000074808B54168074B4FF400225A61D1F8F9
:1037E0009C2013219047BDE80840FEF7E1BA00BFD6
:1037F000A03C0020003C0140000000000000000050
:1038000030B585B00C4610220021054668460AF006
:103810007FF9002C04DD68461021084A234604E0A5
:1038200005D0074A6846102163420AF079F9D5F8B5
:10383000D03028686946984705B030BD88EC00084C
:103840007DEC000800000000000000000000000007
:1038500010B5044686B0406D0AF0DAF903460090D0
:103860001021673302A8054A0AF05AF9D4F8D0307B
:10387000206802A9984706B010BD00BF83EC00087D
:1038800008B50349D0F8D0300068984708BD00BF9C
:1038900026E5000800000000000000000000000015
:1038A00010B50446D0F8D030064900689847206823
:1038B000616DD4F8D0209047D4F8D0302068024908
:1038C000984710BD8EEC000894EC00080000000042
:1038D000002330B504461846E51895F8585025B928
:1038E0008B4201DA0133F7E730BD8B4215DA03F181
:1038F0005805651942F82050013031280BDCE518D5
:1039000095F8585025B18B4201D00133F7E730BD0F
:103910008B42E1DB30BD4FF0FF3030BD00000000D6
:10392000F0B5002B08BF0B4600F10B0C00F10A07A5
:10393000B1FBF2F602FB161101F13005392DC8BFBB
:1039400001F13705B3FBF2F33C463D703146013FD0
:10395000002BEDD1C4EB0C02E15CC1540133934266
:10396000FAD1C018F0BD0000000000000000000007
:103970000023C8540133B3F5805FFAD170470000CB
:1039800007B503680DF107015B680122984708B984
:103990008DF807009DF807000EBD00000000000034
:1039A0000023074931F8131081429AB203D0013342
:1039B000802BF6D11A4602F18000C0B2704700BFDA
:1039C000B0FD000800000000000000000000000042
:1039D000836902399A1E914204D28278C06A02FB3E
:1039E0000100704700207047000000000000000048
:1039F000CA7E8B7E032843EA022305D1487D097DD8
:103A000041EA002243EA02431846704700000000E2
:103A1000036870B504461BB31A4619460D4611F8E3
:103A2000010B1F2818D93A28F8D1187830380928FE
:103A300002D8591C8D4216D00D4812F8013B10F8DF
:103A4000011FA3F16106192E01D8203BDBB229B971
:103A50000135AA4204D12260002070BD9942ECD009
:103A60004FF0FF3070BD0028FAD19A1C226070BD63
:103A700098EC0008000000000000000000000000BA
:103A8000002310B5044618464208E15C42EAC01023
:103A9000013351FA80F20B2BD0B2F5D110BD0000EA
:103AA0008218904202D000F8011BFAE7704700002C
:103AB00010B50023934203D0CC5CC4540133F9E722
:103AC00010BD000000000000000000000000000029
:103AD000036A10B51C68E260826A616042F4806328
:103AE000426A2360C06A1368064ADA605960186047
:103AF000216841F001022260186840F0010119605C
:103B000010BD00BF381F00200000000000000000B2
:103B100000EB810310B5DC6863695A681A612AB941
:103B2000806E4FF4002300EB41110FE019B9402AD9
:103B300001D940225A605B68228A806E5C1EA418FC
:103B4000B4FBF2F243EAC24300EB4111C1F8103971
:103B500010BD000000000000000000000000000098
:103B600000EB810310B5DC68A3695A681A6119B9C2
:103B7000402A01D940225A605A68638A806E42F016
:103B8000C044013AD218B2FBF3F300EB411144EA0E
:103B9000C342C1F8102B10BD00000000000000005F
:103BA000F8B5866E06EB41130446D3F8087B3A0756
:103BB0000D46C3F8087B08D5D6F81428130704D59A
:103BC00000EB8103DA6853689847F8072BD5D6F8DD
:103BD0001408C10727D504EB8501CA6893695968A1
:103BE0001869814214D2461A5E6000269E60204603
:103BF0002946FFF7B5FF202383F311885835A16EBE
:103C00006D01485940F080624A5186F31188F8BD31
:103C10006189D268012303FA05F321EA0300608178
:103C2000294620469047F8BD000000000000000033
:103C30002DE9F041074650690D46164618B100219E
:103C4000142209F065FFB06918B10021142209F0AF
:103C50005FFF07EB85033068DE6000F00303022B93
:103C6000BC6E08D0032B09D03E4A3F49012B0CBF44
:103C70008846904604E0DFF8F88001E0DFF8F48041
:103C800004EB4510F2680023C0F8103B05F1580121
:103C90006AB1738A490148EA0302625005F11000D3
:103CA000D4F81C28012303FA00F010430DE048016A
:103CB0000121235823F40042225005F11003D4F8C7
:103CC0001C0801FA03F220EA0200C4F81C0804EB05
:103CD0004511B0680022C1F8102930B3B28B318A87
:103CE0003B6F8808012A88BF504305F13F02C11885
:103CF00043EA004004EB820339675860384607EB1B
:103D000085072946FFF70CFDF968088A05F1480385
:103D100040EA8552580142EA080121500122D4F8B4
:103D20001C1802FA05F50D4317E005F13F0304EBFB
:103D300083010E4A38464A602946FFF7F1FC05F137
:103D400048004301E15821F40042E2500123D4F835
:103D50001C0803FA05F520EA0505C4F81C58BDE85F
:103D6000F08100BF008000100080041000040002F9
:103D70000080081000800C1000000000000000000F
:103D800070B50446002602230370A0F8646080F832
:103D9000676006814681C660066146618661C661CC
:103DA000066284F8666084F84C603146856EFFF7E1
:103DB000B7FCE36E986806F1480251014FF00062CB
:103DC0006A5006F1580149016A5005EB4612013666
:103DD000FF218642C2F80819C2F8081BEBD91B68FC
:103DE000A16E4FF0FF304FF001121026C5F81808F1
:103DF000C5F81C2823676B620E61086910F0100675
:103E0000FBD10C20FEF7E4FCD5F8002822F4FE6379
:103E1000C5F80038A96941F4402040F01002092398
:103E2000AA610B49C5F81038C5F81438236F094842
:103E3000E16003F1100243F48011C5F8106BC5F87E
:103E4000000BC5F81069C5F800092267A96270BDAA
:103E500000FF00084080001000000000000000008B
:103E60002DE9F043002302F00304C2F38007C2F3FC
:103E7000C106C2F34115C2F3C31211F0010F4AD0BB
:103E800003F007084FEA88084FF00F0902FA08FC10
:103E9000072B09FA08F86FEA080808D8D0F820902C
:103EA00008EA090848EA0C0CC0F820C007E0D0F87E
:103EB000249008EA090848EA0C0CC0F824C0D0F89D
:103EC00004904FF0010808FA03FC29EA0C0949EABA
:103ED0000708C0F804804FEA430C4FF00309D0F8FC
:103EE000088009FA0CFC6FEA0C0C0CEA080848EA96
:103EF0000608C0F80880D0F80C800CEA080848EAE8
:103F00000508C0F80C80D0F800800CEA080C4CEAD8
:103F1000040CC0F800C0490805D07F00B600AD0011
:103F2000A4000133A9E7BDE8F08300000000000011
:103F30004B688A684360CB6882600A69C3604261EB
:103F40004B698A6909680362426201607047000038
:103F500001F001038A0748BF43F002034A0748BF44
:103F600043F008030A0748BF43F00403CA0648BFEA
:103F700043F010038A0648BF43F020038A05426BD2
:103F800048BF43F0400342EA030141637047000029
:103F900038B50B4C41F48861A260E160616B084A5E
:103FA00011F04505FAD011F00504956303D0FFF731
:103FB000CFFF012038BD50691860204638BD00BFD2
:103FC000002C014000000000000000000000000084
:103FD0002DE9F047446C174B67680546207A9046F8
:103FE0003D2202FA00F620688946596B3E6003685C
:103FF00023F01F020260066816F00106FBD1207A4A
:104000003D2303FA00F20B480B4B3A608363C6630F
:10401000C6622846FFF79CFFB9F1010F07D9284671
:104020000C2132464346BDE8F047FFF7B1BFBDE87B
:10403000F08700BF002C0140FF07C0000000000017
:104040002DE9F041202304460F46164683F31188DC
:104050001748C16B054619B104F13C00FDF798FE05
:104060006A6B12F4807304D183F311880120BDE8D8
:10407000F081606C01680D6815F00102FBD1017AD6
:1040800043683D2000FA01F119600948094B836338
:10409000C26282F31188012F06D920460C213346D3
:1040A000BDE8F041FFF774BF1046BDE8F08100BFE6
:1040B000002C0140FF07C0000000000000000000CD
:1040C00073B51D46436C04461868236CC2606A02CF
:1040D0000E46910841600360016841F001030360EE
:1040E0001549164840F22A338163C36382629B22DA
:1040F000C262206BC10658BF7602012D204601D94D
:10410000122100E01121324601ABFFF741FF18B93F
:104110000B49019B194031B12046294601AAFFF7FE
:1041200057FF012006E02046294601AAFFF788FF35
:104130000028F1D17CBD00BFFF07C000002C01406A
:1041400008E0FFFD0000000000000000000000008B
:1041500073B51D46436C04461868236CC2606A023E
:104160000E469108416043F040010160036843F04E
:1041700001010160154B164840F21A318363C16397
:104180008262226BD00658BF7602012D204601D9EB
:10419000192100E01821324601ABFFF7F9FE18B9EA
:1041A0000C48019B184030B12046294601AAFFF770
:1041B0000FFF012009E0064A9921D16220462946D5
:1041C00001AAFFF73DFF0028EED17CBDFF07C0002C
:1041D000002C014008E0FFFD00000000000000008E
:1041E00073B5002001A908F0ABFD0020102104F0F8
:1041F00097FE011C18BF012104460120FDF7C8FAF3
:104200000546002840F00A81204608F061FA6FF068
:10421000FF01284604F084FED0F1010138BF0021DF
:104220000220FDF7B5FA002840F0F88001A97C488B
:1042300008F086FD10217A4804F072FE1021054630
:10424000774804F06DFE10210446754804F068FEBE
:104250000646284608F03CFA204608F039FA30466F
:1042600008F036FA69466E4808F06AFDB0F1010EB2
:10427000DEF1000151EB0E010320FDF789FA002861
:1042800040F0CC801021664804F04AFE102104461C
:10429000634804F045FE10210546614804F040FEE5
:1042A00008F016FA284608F013FA204608F010FA2B
:1042B00069465B4808F044FD0138424252EB000178
:1042C0000420FDF765FA002840F0A8801121544829
:1042D00004F026FE10210446514804F021FE054654
:1042E000204608F0F5F969464D4808F029FD831E7F
:1042F000594259410520FDF74BFA002840F08E80C5
:104300001021474804F00CFE69460446444808F072
:1043100017FD012808D04248694608F011FD02380F
:10432000424252EB000300E00346062003F0010185
:10433000FDF72EFA002871D1284608F0C9F9204669
:1043400008F0C6F96946364808F0FAFCB0F1010CED
:10435000DCF1000151EB0C010720FDF719FA0028F0
:104360005CD110212E4804F0DBFD102105462C48BD
:1043700004F0D6FD0446284608F0AAF96946284804
:1043800008F0DEFCB0F1020EDEF1000050EB0E0191
:104390000820FDF7FDF9002840D12021204804F035
:1043A000BFFD08F095F9204608F092F969461C48CF
:1043B00008F0C6FC421E534253EB02010920FDF7F0
:1043C000E7F958BB6946164808F0BAFC009914484A
:1043D00004F0A6FD69460446114808F0B1FCD0F18E
:1043E000010138BF00210A20FDF7D2F9B0B92046FB
:1043F00008F06EF969460A4808F0A2FC013841420B
:1044000041410B20FDF7C4F940B99DE80A000C209A
:10441000CA1A534253EB0201FDF7BAF97CBD00BF43
:10442000A01B0020000000000000000000000000B1
:10443000F7B50D4617461E4604F072FD044690B1CE
:10444000202383F31188089C294600943A4633467A
:10445000FDF716FB0121417700210446FEF7D0F855
:10446000002080F311882046FEBD000000000000FF
:104470004B4B13B598694B4982684B4B0091013AFD
:104480004FF4E8714948FFF7D3FF837F04460120CA
:10449000B3EB000EDEF1000252EB0E01FDF778F9EE
:1044A00000287BD1202181F31188A37F5A1CA27799
:1044B00080F31188A17F02200B1A5A4252EB0301AC
:1044C000FDF766F9002869D1204608F041F9A17F7F
:1044D00003204B1E5A4252EB0301FDF759F9002805
:1044E0005CD1204608F0D4FB01460420FDF750F9CA
:1044F000002853D1204608F0CBFB01460520FDF7EC
:1045000047F900284AD1204608F022F9A17F062069
:10451000D1F1010138BF0021FDF73AF900283DD162
:10452000237F0720D3F1010138BF0021FDF730F9C7
:10453000002833D1204608F0ABFB01460820FDF7E8
:1045400027F900282AD1204608F0A2FB01460920BD
:10455000FDF71EF910BB4FF4FA7003F0A9F9227FA2
:104560000A20B2F10F0CDCF1000151EB0C01FDF758
:104570000FF998B9204608F08BFB01460B20FDF798
:1045800007F958B9204608F083FB80F00103D9B23F
:104590000C2002B0BDE81040FDF7FAB802B010BD23
:1045A000186D0120D0ED0008E1170008801B0020E5
:1045B0007FB5324B324C986903A98568314808F0C1
:1045C000BFFB3149314B00916A1E4FF4E8712D4811
:1045D000FFF72EFF2E4A2D4B206000924FF4E8711A
:1045E000AA1E2848FFF724FF02A96060254808F0AA
:1045F000A7FB0299234804F093FC264B4FF4E87183
:1046000006460093EA1E214B1E48FFF711FFA060EB
:10461000304608F05DF8216861B1616851B1A16868
:1046200039B9E06830B92169D1F1010138BF002101
:1046300000E0002101200140FDF7AAF8E8B908F0E8
:10464000D7F802201449FDF77BF8B0B902A90D484C
:1046500008F076FB421E534253EB02010320FDF7A4
:1046600097F850B90299039A0420B1EB020CDCF1DF
:10467000000353EB0C01FDF78BF87FBD186D012093
:1046800074560120801B0020D0ED0008E1170008BF
:10469000D3ED000822F70008D2ED0008000000006A
:1046A00013B50C4B9A69009004464FF41471002026
:1046B0009268094BFFF7BCFE30B90849204602B0AA
:1046C000BDE8104007F0BCBD02B0BDE8104008F0E6
:1046D0006FB800BF186D0120D1C90008D5ED0008E2
:1046E00038B503780E4D044623F0600060F07F017A
:1046F0002170284602F07CFC02F0AAF80120214635
:1047000003F04EFD0120214603F04AFD02F088F837
:10471000A820FEF75DF82846BDE83840FDF790BFB9
:10472000FC54012000000000000000000000000018
:1047300002480F230370FFF7D3BF00BFE8530120E7
:1047400070B50B4C0E460546204602F051FC02F0B7
:104750007FF83046294603F023FD02F061F8A820D7
:10476000FEF736F82046BDE87040FDF769BF00BF90
:10477000FC540120000000000000000000000000C8
:1047800038B50E4D0446284602F032FC02F060F8BF
:10479000237803F01F0020702146012003F000FD64
:1047A0000120211803F0FCFC02F03AF8A820FEF7E3
:1047B0000FF82846BDE83840FDF742BFFC54012001
:1047C00070B5174E0446304602F012FC02F040F875
:1047D000237803F05F0040F0400121700120214662
:1047E00003F0DEFC202282F31188A6F10C050323DE
:1047F00028460121224606F80C3CFFF769F905F12D
:104800000800FDF7C5FA002080F3118802F008F8CF
:10481000A820FDF7DDFF3046BDE87040FDF710BF72
:10482000FC54012000000000000000000000000017
:1048300010B50B4C2046002300F8013F2370FFF712
:10484000BFFF607800F03F0141F020022046627017
:10485000FFF796FF0348BDE81040FDF7B9BF00BF62
:10486000E853012080610F000000000000000000FC
:1048700010B5084C2046002300F8013F2370FFF7D5
:104880009FFF607800F01F0120466170BDE8104076
:10489000FFF776BFE8530120000000000000000091
:1048A000F8B5184E044630460F4602F0A1FB01F061
:1048B000CFFF237803F07F0040F0600121700120DA
:1048C000214603F06DFC202282F31188A6F10C052D
:1048D000032328463946224606F80C3CFFF7F8F831
:1048E00005F10800FDF754FA002080F3118801F06B
:1048F00097FFA820FDF76CFF3046BDE8F840FDF7B4
:104900009FBE00BFFC54012000000000000000001A
:10491000F8B59C4C9C49054607F092FD00232046C3
:104920002370FFF74DFF22789849284607F088FD4D
:10493000012020702046FFF743FF22789449284643
:1049400007F07EFD022720462770FFF739FF227807
:104950009049284607F074FD032120462170FFF797
:104960002FFF28468C49227807F06AFD0422204652
:104970002270FFF725FF22788849284607F060FD5E
:10498000052620462670FFF71BFF2278844928461B
:1049900007F056FD062320462370FFF711FF22780B
:1049A0008049284607F04CFD072020702046FFF77D
:1049B00007FF22787C49284607F042FD082120465F
:1049C0002170FFF7FDFE28467849227807F038FD70
:1049D000092220462270FFF7F3FE22787449284608
:1049E00007F02EFD0A2620462670FFF7E9FE227802
:1049F0007049284607F024FD0B2320462370FFF75B
:104A0000DFFE22786C49284607F01AFD0C200D269F
:104A10002070394620466670FFF742FF22786749CA
:104A2000284607F00DFD20462670FFF7C9FE2278C4
:104A30006349284607F004FD0E2120462170FFF748
:104A4000BFFE28465F49227807F0FAFC0F22204675
:104A50002270FFF7B5FE22785B49284607F0F0FC8C
:104A6000102320462370FFF7ABFE227857492846D3
:104A700007F0E6FC112020702046FFF7A1FE227807
:104A80005349284607F0DCFC122120462170FFF72D
:104A900097FE28464F49227807F0D2FC1322204681
:104AA0002270FFF78DFE22784B49284607F0C8FC9C
:104AB000142320462370FFF783FE227847492846B7
:104AC00007F0BEFC152020702046FFF779FE227803
:104AD0004349284607F0B4FC162120462170FFF711
:104AE0006FFE28463F49227807F0AAFC182220468C
:104AF0002270FFF765FE22783B49284607F0A0FCAC
:104B0000192320462370FFF75BFE22783749284699
:104B100007F096FC1A2020702046FFF751FE2278FD
:104B20003349284607F08CFC1B2120462170FFF7F3
:104B300047FE28462F49227807F082FC1C22204697
:104B40002270FFF73DFE22782B49284607F078FCBB
:104B50001D2320462370FFF733FE2278274928467D
:104B600007F06EFC1E2020702046FFF729FE284625
:104B70002349227807F064FC22492846BDE8F84022
:104B800007F05EBC701B0020E5ED000805EE000894
:104B900021EE00083DEE000860EE000883EE0008FC
:104BA000A5EE0008C6EE0008E6EE00080FEF0008CC
:104BB0002CEF00084EEF000871EF00088EEF0008A0
:104BC000A9EF0008D6EF0008FAEF000821F000086E
:104BD00044F0000867F0000881F000089BF000082E
:104BE000BFF00008D9F00008FDF0000828F1000827
:104BF0004CF100086BF100088AF10008A6F10008EA
:104C0000C6F10008E6F10008000000000000000006
:104C100006480749074B406000225B601B6000604C
:104C20008260496009608A60704700BF3C080020CC
:104C300024080020340800200000000000000000CC
:104C40000448054B406000225B601B60006082608E
:104C5000704700BF3C08002034080020000000001E
:104C60000448054B406000225B601B60006082606E
:104C7000704700BF3C0800203408002000000000FE
:104C8000024B00225B601B609A6070473C0800206A
:104C9000044B05485B6000221B609A604060006026
:104CA000826070473C0800202408002000000000BB
:104CB000024B00225B601B609A6070473C0800203A
:104CC000024B00225B601B609A60704764560120B3
:104CD000074B084A5B60101D5A619A61DA60064A08
:104CE0001B60002199601861DA611962704700BF8A
:104CF00074080020084A0020C114000800000000C9
:104D0000074B08485B6004229A60074A5861011DFE
:104D10009861D86000201B601961DA6118627047E1
:104D200050080020084A0020C114000800000000BC
:104D300011F00C0F01D072B6FEE7704700000000C2
:104D4000094B0A4A03F11C00DA609A601A601432B7
:104D50005A60186203F11002D861052100205962DF
:104D60005A611A619861704798080020084A00202B
:104D7000024B00225B601B609A607047180800209D
:104D8000024B00225B601B609A607047180800208D
:104D9000024B00225B601B609A607047180800207D
:104DA000024B01225B601B609A6070472C1F002041
:104DB000024B00225B601B609A6070472C1F002032
:104DC00010B5FCF795FF2023046B83F3118821466F
:104DD000FDF716FC002080F31188002CF1D120464D
:104DE00010BD0000000000000000000000000000F6
:104DF00038B5324B0522202181F31188304C2068D0
:104E000023601860002181F311886468013A23440B
:104E1000F1D105242A48FCF7E3FD011C18BF01214C
:104E20000120FCF7B5FC002846D1013CF2D1244812
:104E3000FCF7D6FDD0F1010138BF00210220FCF7BC
:104E4000A7FC002838D11F4D2021605981F311881B
:104E50001B4B1A6800250260186085F31188043422
:104E6000142CF0D10525164C2046FCF7B9FD011C89
:104E700018BF01210320FCF78BFCE8B9013DF2D1FA
:104E80002046FCF7ADFDD0F1010138BF0021042020
:104E9000FCF77EFC80B910200B4960602046A160C1
:104EA0002560FCF79DFDD0F1010138BF00210520F0
:104EB000BDE83840FCF76CBC38BD00BF084A002094
:104EC0000808002040000108F1140008000000005C
:104ED00008B5064B9869417F01F00402D3B21BB9B3
:104EE0000348FCF725FFF4E7002008BD186D0120FA
:104EF0002C1F002000000000000000000000000047
:104F0000F8B54FF0804300221A61202080F3118809
:104F100016495D6A8C6A2C1B144AD3699968A142B0
:104F200013D8966A186877189762641A02F11C07FA
:104F30000021DE684760D960D06181F3118818696B
:104F4000B047202383F31188E6E71C3293424FF0E9
:104F500080404FF0000216BF4919C260416382F3DE
:104F60001188BDE8F840FCF723BF00BF186D012091
:104F7000224B2DE9F0471868214D002404602C785D
:104F800020482CB1204D214C05601C60102504E008
:104F90001F4D1D601F4B0C2503600129194817493F
:104FA00016D10024D2F80080D0F80090D1F800A0EB
:104FB000264659F836704146384608F031FEB84268
:104FC00004BF4AF8240001340136AE42F1DB0DE0A3
:104FD0000C680168002351F8332044F82320013382
:104FE000AB42F8DB012DACBF2C460124034800681E
:104FF000002140F82410BDE8F08700BF3C1C0020D1
:10500000146D0120C01B0020D4080020F81B0020D4
:10501000C41B00205C09002000000000000000000C
:1050200038B504460D462068A04206D003682360C8
:105030005C600562FDF7A4F9F5E738BD00000000EB
:1050400010B51F4C012120460022FEF709FF204623
:1050500010211922FEF704FF10236383202080F320
:105060001188184C18492379184AE162012B2264EF
:1050700019D1002213460921606CFCF7C1FA606C5B
:10508000134A016813488A6007234B614FF40032CA
:105090009021114B80F83113C0F884214260586C84
:1050A00040F4006159640D4A064900230220136050
:1050B0005360D3625362087183F3118810BD00BF3F
:1050C00000000240BC58012030F200082054A30820
:1050D000802C014000E100E000380240002C01403B
:1050E0000378012BF7B50546846E40F0B5805B4828
:1050F000854210D15A4F7B6B43F0800078637E6904
:10510000002246F08001574E79617A61E02786F8E7
:10511000437308221BE054498D421BD1504E326B21
:1051200042F0005737633369002143F0805030610B
:105130003161326B22F080473763336D23F080405A
:105140003065484EE02186F84D134FF40052C6F802
:105150008821B2604548464E00234FF450216B67CA
:10516000E060C4F800682020C4F8003EAE6EA16381
:10517000FDF72EFB012232613769FF07FCD40C20BA
:10518000FDF726FB3369002BFCDAE86EAB6E866810
:105190000022A26002F148014F01D859002809DA23
:1051A0004FF08040D85103EB4217D7F80819880711
:1051B000F9D501E00021D95103EB421100204FF055
:1051C000FF37C1F81009C1F8087902F15801490107
:1051D0005F58874209DA4FF08040585003EB421184
:1051E000D1F8087BF906F9D500E0585003EB4210DE
:1051F000013200214FF0FF37B242C0F8101BC0F857
:10520000087BC7D94FF00110C3F81C086B68C4F8BD
:105210001018C4F81418C4F81C18D96811B94FF440
:10522000405201E043F20802EB6FA2614FF0FF3001
:1052300060616BB94FF4E87102220E4B009505F1E5
:105240008000FCF71DFCE867FDF79AF8FCF760FCAE
:10525000A16841F00102A260FEBD00BF401F002016
:105260000038024000E100E090210020401400409E
:1052700003002002B1BC0008000000000000000094
:1052800070B5194D03612E46C26056F81C3F4FF0B1
:105290008042012998BF0221B342546A07D1AC620F
:1052A0000C195463002414610224D46007E0AD6A31
:1052B000641B09199C68A14201D24D1955639A6873
:1052C0008A4202D2891A1B68F9E75A688160036032
:1052D0004260106058609868411A9960024B4FF024
:1052E000FF325A6270BD00BF186D0120000000003F
:1052F00003688268996810B58C1841689C600B60DF
:1053000000240368C4600948596003464FF0FF3227
:1053100053F81C1F426299424FF0804201D1D46081
:1053200010BD8968806A0B18536310BD186D012089
:1053300008B50B4B00221A70202080F31188094811
:10534000C16809B1FFF7D4FF0648074A42F210715D
:105350000023FFF795FF002282F3118808BD00BFEC
:10536000B41E0020401C00200115000800000000B1
:1053700010B54B1C86B004460ED00B4B0B4A9B69F4
:1053800001A8FFF77DFF2046FCF78AFC049828B1AE
:1053900001A8FFF7ADFF01E0FCF782FC02498A6932
:1053A000106A06B010BD00BF186D0120212700084B
:1053B00049B1064B42689B6918605A6043600420FB
:1053C0001360FFF7D5BF4FF0FF307047186D012015
:1053D00070B5202304460E4683F31188C16901B1DC
:1053E0008847A56845B920463146FFF7E1FF002808
:1053F000F7DA85F3118870BDA3692269013DA560C4
:1054000013F8010B9342A36124BFE368A361002159
:1054100081F3118870BD0000000000000000000052
:1054200002484FF0FF31FFF7D3BF00BF901E0020AE
:1054300008B54FF4FA610248FFF7CAFF002008BD23
:1054400074080020000000000000000000000000C0
:105450000C30FFF7BDBF000000000000000000009E
:105460000C304FF0FF31FFF7B3BF00000000000029
:105470002DE9F0479A46044688469146C76920239D
:1054800083F3118800250FB12046B847A66846B9B6
:1054900020465146FFF78CFF0028F7D086F311888D
:1054A00016E0A069013EA66010F8011B08F805107F
:1054B0002269A061904224BFE268A261002383F3C5
:1054C00011880135A94503D0202686F31188DAE733
:1054D0002846BDE8F0870000000000000000000042
:1054E0000C30FFF7C5BF0000000000000000000006
:1054F0000C304FF0FF33FFF7BBBF0000000000008F
:10550000F8B504460E461746202383F31188A56894
:1055100045B920463946FFF74BFF0028F7DA85F3F7
:105520001188F8BD6069013DA56000F8016B226932
:105530006061904228BFE068E16928BF606109B1FD
:1055400020468847002080F31188F8BD0000000045
:1055500008B500214FF4FA620248FFF7D1FF00209E
:1055600008BD00BF5008002000000000000000003F
:105570003030FFF7C5BF0000000000000000000051
:1055800030304FF0FF32FFF7BBBF000000000000DB
:105590002DE9F0479A46044689461646D0F81C8005
:1055A000202383F311880027A56845B9204651467A
:1055B000FFF7FEFE0028F7D085F311881BE0013DC0
:1055C000A56019F8010B656905F8010B2169656192
:1055D0008D4224BFE1686161B8F1000F01D020461F
:1055E000C047002282F311880137013E03D02023F7
:1055F00083F31188D8E73846BDE8F0870000000043
:105600003030FFF7C5BF00000000000000000000C0
:1056100030304FF0FF33FFF7BBBF00000000000049
:1056200083685A1E002A10B50C46826011DA19B937
:1056300083604FF0FF3010BD074B9B6918624268D2
:1056400018605A60436005201360BDE81040FFF702
:105650008FBE002010BD00BF186D012000000000AB
:1056600038B50546202383F311880D48FFF7D8FF8E
:10567000044678B90B48C268436852F8041B9A4242
:105680002960C26024BF0268C2600748FCF738FF87
:10569000FCF73EFA002080F31188204638BD00BF99
:1056A000A808002098080020B4080020000000008E
:1056B00073B5202686F31188954CA1680120D1F19D
:1056C000010138BF0021FCF763F8054640BB80F3B9
:1056D000118886F311884121204603F011FF4221F1
:1056E000204603F00DFF4321204603F009FF20462A
:1056F000442103F005FF85F3118886F31188626960
:10570000A3699A4204D1A5682C1C18BF012400E0AB
:105710002C4604F001010220FCF73AF8044618B1C7
:10572000002181F31188F0E080F31188202080F3BC
:1057300011887748214603F0E3FE043014BF0021AE
:1057400001210320FCF724F810B184F31188DCE078
:1057500080F3118804246E4D4FF0FF312846FFF787
:1057600037FEC0B2FCF72CF8013CF4D1202686F3BA
:105770001188A9680420D1F1010138BF0021FCF78C
:1057800007F884F31188002840F0BF8005206149A4
:10579000FBF7D6FF002840F0B88086F3118841213E
:1057A000284603F0ADFE4221284603F0A9FE43211E
:1057B000284603F0A5FE2846442103F0A1FE84F309
:1057C00011880822544928462346FFF751FEB0F1BC
:1057D000040EDEF1000252EB0E010620FBF7D8FFAB
:1057E000002840F0928086F31188AB680720D3F13F
:1057F000010138BF0021FBF7CBFF84F3118800289B
:1058000040F0838086F311884121284603F078FE1A
:105810004221284603F074FE4321284603F070FE1F
:105820002846442103F06CFE84F311883A49022291
:1058300028462346FFF71CFE02384142414108201A
:10584000FBF7A6FF002860D13349022223462846F1
:10585000FFF70EFE821E534253EB02010920FBF7B5
:1058600097FF002851D186F31188A9680A20D1F149
:10587000010138BF0021FBF78BFF84F3118800285A
:1058800043D186F311882146284603F039FE284685
:1058900006F00EFE84F3118886F31188AA680B20A7
:1058A000D2F1010138BF0021FBF772FF84F31188A8
:1058B00000282AD11948836919489A6800944FF43E
:1058C000E8710132174BFCF713FF1749086086F3A4
:1058D0001188AB680C20D3F1010138BF0021FBF720
:1058E00057FF84F3118880B906F082FF0A21084827
:1058F000FFF76EFDB0F1FF30424252EB00010D2088
:1059000002B0BDE87040FBF743BF02B070BD00BFFE
:105910007408002020F40008D84B0020186D0120E6
:10592000084A00203154000874560120000000008D
:105930002DE9F041B4B0457901910446002D5AD0CB
:10594000C9B25B2901D1012239E00379012B3AD197
:1059500037390D2900F2CD81DFE811F03000330036
:10596000CB01CB01CB01CB01CB01CB01CB01CB01D7
:105970000E00100014002300002100E0012101F0BE
:1059800087F9B6E1D0F8C410D0F8C000814280F2A7
:10599000B08120460121FDF733FFD4F8C430581CF4
:1059A00026E0D0F8C430002B40F3A3814FF0FF3144
:1059B000FDF726FFD4F8C420501E19E00222227100
:1059C000B0E10322FBE77E2940F09381022B03D153
:1059D000FDF73EFF00200BE0032B40F08A81D0F85A
:1059E000C020D0F8C410511AFDF70AFFD4F8C00047
:1059F000C4F8C4007DE10A2900F094811ADC05296D
:105A000000F025810DDC022900F03A81032900F025
:105A10005581012940F05881FDF71AFFC4F8C450A0
:105A200080E1082900F03E8100F39380062940F0D0
:105A30004B8116E1102900F02F8111DC0D2919D0BE
:105A40000E2900F02B810B2940F03E81D0F8D020A8
:105A5000AF4900689047D4F8C400C4F8C00061E1C1
:105A60001B2900F0E8807F2900F01C81152940F0F7
:105A70002B81E2E0FDF704FFD4F8C050002D3CDD9F
:105A80003E2D3ADC04F10802176CD65D002E00F0C2
:105A90003B81516CB942C1EB070301DB3F3300E0AE
:105AA000013BAB4240F32881E36CC3F13F0604F1B4
:105AB000080703F10103B54204F1580107EB0300A5
:105AC00001DA2A4607E0324607F0F2FF06F15801F4
:105AD00038466118AA1B07F0EBFFE06C221815721C
