:020000040800F2
:100000000004002091040108E1250008E125000812
:10001000E1250008E1250008E1250008E1250008A8
:10002000E1250008E1250008E1250008111100087C
:10003000E1250008E1250008E1250008E125000888
:10004000E125000851C4000861C3000831C300085D
:10005000E1250008E125000831C6000801C60008B6
:10006000D1C50008A1C5000871C5000831C9000844
:1000700001C90008D1C80008A1C8000871C800085B
:1000800041C8000811C80008E1250008E125000862
:10009000E1250008E1250008E125000801C5000868
:1000A000E1250008E1250008E1250008E125000818
:1000B00041660008E1250008E1250008E125000867
:1000C000E1250008E1250008E1250008E1250008F8
:1000D000E1250008E1250008E1250008E1250008E8
:1000E00081C4000821C40008F1C30008E12500080C
:1000F000E1250008E1250008E1250008E1C7000826
:10010000E1250008E1790008E1250008E125000863
:10011000E1250008E1250008E1250008E1250008A7
:10012000B1C7000881C7000851C7000821C70008EF
:10013000F1C60008E1250008C1C30008E125000858
:10014000E1250008E1250008E125000801A70008D5
:10015000C1C6000891C6000861C60008E125000874
:10016000E1250008E1250008E1250008E125000857
:1001700091C3000821A70008E1250008E125000837
:10018000E1250008E1250008E1250008E125000837
:10019000E1250008E1250008E1250008E125000827
:1001A000E1250008E1250008E1250008E125000817
:1001B000E1250008E1250008E1250008E125000807
:1001C0004FF46053C4F2020300224FF0FF3118696C
:1001D0002DE9804819611A61586959615A61186A94
:1001E00060F080541C621A62586A59625A621D6C2F
:1001F0004FF4E046C4F2000645F080571F643168B2
:1002000041F4807030601C6F04F44075B5F5007FD8
:100210009DB003D04FF480361E671A6746F270080F
:1002200046F2580146F2880C08F56E704FF4E04E25
:10023000C4F2000E01F56E7400F178080CF56E71D1
:100240004FF4C04001F1780CC4F20200DEF8043033
:1002500013907834ACF58C6C46F27000C4F2020C4A
:10026000C4F20200A4F58964CDF814C00790C4F26A
:10027000020446F2A00C46F2B8000494C4F2020C48
:10028000C4F2020046F28804CDF828C00B90C4F2F4
:10029000020446F2284C46F240400894C4F2020C94
:1002A000C4F2020046F21044CDF834C00E90C4F2FD
:1002B000020446F2704C46F2884009930C94C4F252
:1002C000020CC4F2020046F25844CDF840C011902E
:1002D000C4F2020409980F944FF4605CC4F2020C5B
:1002E00046F2B844CDF818C0C4F2020420F4007CF1
:1002F00046F2100946F2280BBE4A1294C4F20209D3
:10030000CEF804C0C4F2020BDFF810E3DDF81CC025
:100310000898B94BDFF808A3B84DB94EB94F00247F
:10032000CEF80040C9F800401460DDF81090CBF81A
:100330000040DDF814B09460C9F800401461CBF8B7
:1003400000409461CCF8004014620460DDF828E0BD
:10035000DDF82C90DDF830B00D989462DDF838C0EF
:10036000CEF80040C4F202081463DDF83CE0C9F89E
:1003700000409463DDF84090CBF8004014640460C2
:1003800011989464CCF800401465CEF80040946550
:10039000C9F80040146604609466C8F80040DDF8AF
:1003A000488014674FF4C841C8F80040C4F2020105
:1003B0009467139A4FF0FF309060D0608860DDF84A
:1003C00018B0C860DBF830106FEA51206FEA4022A5
:1003D000CBF830204FF48052C4F20202DBF8501008
:1003E00002924FF4A052C4F2020204924FF4E0527F
:1003F0000891C4F2020207924FF4C05E089AC4F258
:10040000020ECDF814E06FEA522E45F25452C4F2B7
:1004100015020A924FF48072C2F680220B9245F2C6
:100420005552C0F255020C922246CCF60C420D9267
:100430004FF6FF72CFF655520E924CF6CC42C0F2F8
:100440000C020F922246C0F2AA2210924FF44052A0
:10045000C4F2010211921622C0F2016209924622F0
:10046000C0F2016212924FF46052C4F200024FF0E7
:1004700001091392162269F31F421492462269F36E
:100480001F421592A046069AC4F202086FEA4E2E49
:10049000C2F850E04FF4614E4FF0FF32CDF820E04B
:1004A000C8F80440C8F808200A9AC8F80C204FF68B
:1004B000EF72C8F814204FF42A22C8F820404FF4F5
:1004C0008060C8F824200B9AC4F20200C8F800200B
:1004D0004FF0FF32446082600C9AC2604FF6FF72A8
:1004E00042610D9A04624FF4006B42624FF0224267
:1004F0000260C4F2020B0E98CBF804404FF0553264
:10050000CBF808004FF44061CBF80C204EF2FF000E
:100510000F9ACBF81400C4F202011098CBF82040D7
:10052000CBF824201022CBF800004C604FF4406040
:100530008A60CA6020224C6108624C620A6002999B
:100540004FF4005C4C608C60CC604C610C62049891
:10055000059A4C62C4F2020C0C60079944608460F6
:10056000C460446104624462046054600F2094607B
:10057000D460546114625462146003224C60886039
:10058000CC604A610C624C620C60CCF80440CCF840
:100590000840CCF80C40CCF81440CCF82040CCF803
:1005A0002440CCF8004046F2E00CC2F2010C16499F
:1005B000164ACCF80010164883F800904FF0FF312F
:1005C0001180119A1349CCF8440003F10C00186112
:1005D000D860DA611962099A5C6001F13C001299F5
:1005E000586213989A62D9620B4A9C6042F6046181
:1005F00018E000BF282F0020244E0120C81C002036
:10060000901E002060670120F04601082829002084
:100610002444010800440108C4430108C41C00200C
:100620009C5001205C61CAF81C000AF10C03C2F264
:1006300000011498CAF81030CAF80C3002F10C030B
:100640008CF80490CCF83440CCF82C40CCF82840FE
:10065000CCF83C40CAF8202081F800904C60CAF8E1
:1006600024308AF80090CAF80440CAF80840CAF852
:100670001440964BCAF82800159AEB664FF0A0413B
:10068000CAF82C20A96685F800906C606C62AC6397
:10069000AC62EC63EC622C642C636C646C63AC64E1
:1006A0002C816C81AC67EC6786F800907460746292
:1006B000B463B462F463F462346434637464746382
:1006C000B46434817481DDF818C08148DCF84010CE
:1006D000F0664FF46142CEF20002089222464FF0DB
:1006E000804341EA0901C4F20402B266B467F467C8
:1006F00042F2CF02CCF840104FF46D4E4FF0FF3174
:100700009A62CEF2000ED9629C615C63DC605C6030
:10071000C3F81490C3F80090089B4FF080506FF01E
:100720007F0283F81C23C3F880011860CEF80840CC
:10073000DEF80C004FF6FF014FF440720140C0F2AA
:10074000FA524EF6F05C41EA0203CEF2000CCDF80C
:1007500010C0CEF80C30DCF80C00049A4FF4805C2A
:10076000CEF2000C40F08071D160DCF8003043EA3A
:100770000901CCF8001007F11C03202110228EF88B
:100780001F208EF822103B62FB614FF0FF337F6029
:1007900000227B6216A83F6016930023CDE91A233E
:1007A000BC607F613F61BC62FC621794CDF80CC0F5
:1007B0001894199401F0F4FE16A801F0C9FE454BF7
:1007C000454A78691899586102F11000506110612A
:1007D0004248D3F814C0F96220F0070E40489461F3
:1007E000C0F800E03F48946020F0070E3E48D46017
:1007F000C0F800E03D481F611060402003F128016F
:1008000098600022D86303F124007B615A77CCF80A
:1008100010309C635C6383F81E909C615862D962BF
:100820009962BB6183F81C9084F3118862B63049E9
:10083000BA69304B9161304800944A46D82100F0A3
:10084000E7FF049CDDF80CC0E36843F08070E060D3
:10085000DCF8002042EA0901CCF80010082409F075
:10086000FFFA40462146A8F81A40092206F0F0FA9D
:1008700004231946A8F818304046092206F0E8FA81
:10088000584649460922ABF8189006F0E1FA40466E
:10089000202140F28A2206F0DBFA4046402140F255
:1008A0008A2206F0D5FA4046802140F28A2206F0DC
:1008B000CFFA4FF0200888F311889AF800000F4B08
:1008C0004845CAF8043000F0798319E0002B01088C
:1008D000502B01080C2E002030290020A367012096
:1008E0005820002000C0012050290020511000088D
:1008F000302B0108F1100008502E0020102B0108A9
:100900005A89DAF8281002F4006083B2002B00F054
:100910004783DAF82C4021F4F04024F4F04340F40B
:10092000205143F42054CAF82810CAF82C40DAF8B1
:100930001C404FF0000B42F441720720A4F800B0B5
:100940002280A08021888BB243F040024FF0020E3B
:1009500022808AF800E08BF311884FF4006AC4F219
:10096000020A4FF480647146AAF818E0C4F2020447
:100970000922504606F06CFA4FF4806140F28A2258
:10098000204606F065FA0421504640F28A2206F01D
:100990005FFA4FF400680821504640F28A2206F0C0
:1009A00057FA092241462046A4F81A8006F050FA68
:1009B0004FF40250C0F2050001F0FAFD4DF2405034
:1009C000C0F23500A4F8188001F0F2FD04F070FCCC
:1009D0000B280ED07A4C09F033FA204684F800B088
:1009E00004F0F6FB94F800B0BBF10100414251EB7A
:1009F000000B46F25C7CC2F2010C8CF800B09CF853
:100A00000030002B40F0FC8009F02AFADFF8E88182
:100A100040460CF0BDF94FF0200A8AF3118869496D
:100A2000C5F824800224C8F85412C5F83880C5F8E7
:100A3000288088F808404FF0000B8BF31188DFF80E
:100A4000BC9148460CF0A4F98AF311885E4BC6F8B5
:100A50002490C9F85432C6F83890C6F8289089F81E
:100A600008408BF31188A86EB36E826B22F40021CC
:100A70008163986B20F400229A6341F288300AF077
:100A800007FB8AF31188514B51486B60C5F80CB0D5
:100A9000C5F810B0C5F814B0C5F818B0C5F81CB04A
:100AA000C5F820B009F034FA2C708BF31188AD6EC4
:100AB000A96B41F40010A863AA6B42F40023AB6356
:100AC0008AF31188434D44487560C6F80CB0C6F8E7
:100AD00010B0C6F814B0C6F818B0C6F81CB0C6F806
:100AE00020B009F015FA34708BF31188B66EB46B30
:100AF00044F400214FF47A70B1630AF0C9FA46F267
:100B00005C70C2F201000278002A4FD10025BF6953
:100B1000324B2C462E46BB61C4F202042EB3317F09
:100B20000F2908BF0026002D30D02B7F0F2B08BFC8
:100B30000025236940F6C41713F0010F4FF0100A87
:100B40000CBF38464FF4FA70A4F818A00AF0A0FAC7
:100B50002169A4F81AA011F0010F0CBF38464FF418
:100B6000FA700AF095FA002ED9D1D8F8540202682A
:100B70001778042FD7D1009619481A4B40F6C801B0
:100B8000402200F045FE0646002DCED1D9F8541281
:100B900008680278042ACCD100951348134B40F61C
:100BA000C801402200F034FE0546C2E7CDF800B08F
:100BB0000F4B104840F6C801402200F029FEA5E77F
:100BC000A82F0020302A0108702B0108202B0108D3
:100BD000C81C0020602B0108901E0020802B0108FB
:100BE0006020002001E5000878380020A1E400081A
:100BF00001070108B02F002054290020AC2B002051
:100C00004FF48068C4F2020840468021002206F0BA
:100C10001FF940464021002206F01AF94046002202
:100C20004FF4807106F014F9404600224FF4007131
:100C300006F00EF9082401214FF0100A4FF02009A8
:100C4000A8F81A104046A8F81A400922A8F81AA0D5
:100C5000A8F81A9006F0FCF840462146092206F052
:100C6000F7F840465146092206F0F2F84046494658
:100C7000092206F0EDF889F3118842F6046EC2F2FB
:100C8000000ECD4A9EF80000CEF80420012865D160
:100C90004FF46143CEF2000360224FF400704FF432
:100CA00080614FF4807E4FF0F00C4FF040094FF020
:100CB00080084FF4000A4FF0020B83F80623C3F8B4
:100CC0008091C3F8009083F80723C3F88081C3F8AC
:100CD000008083F80823C3F880E1C3F800E083F8BC
:100CE0000923C3F88001186083F80A23C3F8801130
:100CF000196083F81723C3F880A1C3F800A083F814
:100D00002823C3F884E1C3F804E083F80123C3F87F
:100D100080B1C3F800B083F829C3C3F884015860D8
:100D20004FF0804083F82A23C3F88411596083F878
:100D30003E230421C3F88401586083F84C234FF408
:100D40008052C3F888219A6083F802C3C3F88011E7
:100D5000196083F803C3C3F880411C6042F6046441
:100D60004FF46050C2F200044FF47053C4F201001B
:100D7000D4F804B0DFF840A205900022C4F20103C9
:100D8000012191E00F2A1ED84FEA920E02F00300D3
:100D90000EF1020C4FEA800E059850F82C000490DA
:100DA000C4F3031006904FF00F0909FA0EF80498E7
:100DB000DDF8189020EA080809FA0EFE059848EABE
:100DC0000E0840F82C80E00740F1C480D3F808906A
:100DD00001FA02FE4EEA090CC3F808C06FEA0E0CD5
:100DE0000AEBC20A14F0020FDC68DAF8040014BF40
:100DF0004EEA04040CEA0404DC60002800F0A18040
:100E00001C684EEA040018605C680CEA0400586034
:100E10000132172A6DD05BF832C01CF0040F72D07B
:100E20000F2A18D894080234DDF8148002F0030E5B
:100E30004FEA8E0E58F824800F2000FA0EFACCF3F9
:100E4000031909FA0EFE28EA0A08DDF8149048EAA8
:100E50000E0A49F824A01CF0010F00F09680D3F888
:100E600008E001FA02F444EA0E09C3F808906FEAB8
:100E700004001CF0020F00F08180D3F80CA044EABB
:100E80000A0EC3F80CE00BEBC209D9F804C0BCF1A0
:100E9000000F6AD0D3F800A044EA0A041C605C6822
:100EA000204058600132DA465AF8324060073FF578
:100EB00069AFD3F800C001FA02FE6FEA0E0000EA43
:100EC0000C09C3F80090D3F8048000EA080AC3F8BC
:100ED00004A0D3F808C000EA0C09C3F80890D3F8BE
:100EE0000C80013200EA0804172ADC60C3F814E021
:100EF00091D142F60462C2F2000202231370002173
:100F000081F3118882E5D3F8008001FA02FE6FEACE
:100F10000E0404EA0809C3F80090D3F804A004EA18
:100F20000A0CC3F804C0D3F8088004EA0809C3F81F
:100F30000890D3F80CA004EA0A00D860C3F814E0C3
:100F4000B0E75C684EEA040058601C680CEA0400D4
:100F500018605DE7D3F8089001FA02FE6FEA0E0C04
:100F60000CEA0908C3F808803AE7D3F8048044EA99
:100F700008045C601C682040186093E7D3F80CC03C
:100F800000EA0C08C3F80C807DE7D3F8088001FA6A
:100F900002F46FEA040000EA080AC3F808A068E750
:100FA000DAF82C0021F4F04120F4F043CAF82810BC
:100FB000CAF82C30BBE400BF402A01080A21114ABC
:100FC000DAF8200053460BF07BFE0F4ADAF82400D3
:100FD0000A2153460BF074FEDDF81880DAF8201071
:100FE000DAF82430D8F84040DAF81C20086819688C
:100FF000DAF804300C3244F48044C8F8404082608F
:101000008A607DE481A6000891A10008AFF300800A
:101010002DE9F04FC1F80CD0D0F80CD0BDE8F08F1E
:10102000002383F311882846A0470FF0C1FB0FF07F
:10103000E7FB00DFFEE7000000000000000000000A
:1010400041F68433C2F2000301221A70704700BFD8
:10105000202383F31188094A094913680968073076
:1010600020F00700C91A88429ABF181810600023A0
:10107000002282F311881846704700BF58200020D4
:1010800050290020AFF30080AFF30080AFF3008061
:10109000202383F31188017F07290ED8DFE801F0B0
:1010A0001D0D0D2108040D08036A9A68511C9960F2
:1010B00090E80C001A60026853604FF0FF32026241
:1010C00081680A4B002202771B689A688A42FBD229
:1010D00059680360416008605860002080F31188FF
:1010E0007047036A00211960E7E700BF60670120CD
:1010F000024B034A98698261FEE700BF60670120E6
:10110000D0110108AFF30080AFF30080AFF300808F
:10111000EFF30983203383F30988002080F31188DB
:10112000704700BFAFF30080AFF30080AFF30080E3
:101130001E4B1A684AB1202181F31188507F40F07C
:1011400004015177002282F31188586848B12021A8
:1011500081F31188427F42F004014177002080F33F
:1011600011889A684AB1202181F31188507F40F09C
:1011700004015177002282F31188D86848B12021F8
:1011800081F31188427F42F004014177002080F30F
:1011900011881B694BB1202282F31188597F41F0DD
:1011A00004005877002383F311887047604A0020B9
:1011B00010B4202383F311884FF080440023646A25
:1011C00083F31188641A511A8C4209D3054A0649DF
:1011D00001231370054A0B701060184610BC70474D
:1011E0001846FBE77C1C0020C01C0020981C002037
:1011F000DFF874C0F0B4184FDCF80060F21BD207BF
:101200003B4614D5BE4217D911F8012B3C787B1C04
:1012100094420CD016E01B7812F8015BAB4204F14B
:1012200001030FD14D782478511CAC420AD19E4263
:101230000A4603F10104EED80B781BB9CCF8007014
:10124000184607E0054A064B01211170054A19703E
:1012500010600846F0BC7047881C00207C1C0020F1
:10126000C01C0020981C0020801C0020AFF30080D0
:1012700041B9054A054901231370054A0B701060F6
:1012800018467047002070477C1C0020C01C0020BE
:10129000981C0020AFF30080AFF30080AFF3008014
:1012A000202383F3118841F68041C2F200010A68CD
:1012B00002F8010B00200A6080F31188704700BF1C
:1012C0004120FFF7EDBF00BFAFF30080AFF3008018
:1012D0004220FFF7E5BF00BFAFF30080AFF300800F
:1012E0004320FFF7DDBF00BFAFF30080AFF3008006
:1012F00008B50078FFF7D4FF002008BDAFF30080E9
:1013000038B50178084D41B10446286803689A68E9
:10131000904714F8011F0029F7D128680349036892
:1013200002221B68984738BD841C0020581201080F
:1013300038B5017849B1054D0446286803689A68B4
:10134000904714F8011F0029F7D138BD841C0020F4
:10135000F0B585B0002837D00DF101054CF6CD462B
:101360002B46CCF6CC46A6FB0012D40804EB840135
:10137000A0EB41003030C1B2204603F8011C1C46EE
:1013800001330028EFD16A4694421BD9601BC00785
:10139000114F11D5386803689A68904714F8021CF9
:1013A000013C09E0386814F8021C0368661E9A685C
:1013B000904716F8021C023C386803689A68904708
:1013C000AC42EFD105B0F0BD034908680368302195
:1013D0009A689047F6E700BF841C0020AFF30080B6
:1013E00038B50B4D4C24286803682D219A68904726
:1013F00028680168013C8B682D219847013CF2D197
:10140000034804490068026813680222984738BDFF
:10141000841C002058120108AFF30080AFF3008055
:1014200008B52022034682F31188006828B10268BB
:101430001A60002383F3118808BD99680029F8D049
:1014400058688847F5E700BFAFF30080AFF300802E
:10145000202383F31188024600E01A461368834272
:1014600003D08B42F9D108681060002181F3118804
:10147000704700BFAFF30080AFF30080AFF3008090
:1014800038B5202383F311880F4B18689969826857
:101490008C68A24203D2002080F3118838BD026814
:1014A000012553601A609861002305770B77034686
:1014B0001B689A689442FBD95A680B604A601160B5
:1014C0005960FFF7A5FDE6E760670120AFF30080F4
:1014D0002DE9F00346F26075C2F20105A1F1240C7A
:1014E00000EB0C076969C76040F80C30069B7B6015
:1014F00041F221039046C0F600033B62002600F152
:1015000028020561416100F12409C0F80880022326
:10151000686108610121044603774677C0F83C8082
:101520008663466381778661C0F82490C2628262D6
:10153000BDE8F003704700BFAFF30080AFF3008059
:101540000D4B18689969026830B453608C681A6052
:1015500001259861002305770B77034600E01B689F
:101560009A68A242FBD85A680B604A6011605960C1
:1015700030BCFFF74DBD00BF60670120AFF30080B6
:10158000044B1A68986991688368994200D870473B
:10159000FFF7D6BF60670120AFF30080AFF3008094
:1015A00010B5202383F3118808498A69D46B9368A6
:1015B0009C4201D0834200D29060D063FFF7E0FFED
:1015C000002080F31188204610BD00BF6067012015
:1015D000F8B54F4EB3699C68651C2846FFF7E0FFDD
:1015E000B0EB040CDCF1000151EB0C0107460120CB
:1015F000FFF73EFE00B1F8BDB06982680220B5EB8E
:10160000020EDEF1000353EB0E01FFF731FE00285E
:10161000F1D13846FFF7C4FF281A41424141032067
:10162000FFF726FE0028E6D1B26993680420E21A8B
:1016300051425141FFF71CFE0028DCD1202787F3DF
:101640001188B3699A68911C996080F31188B06918
:101650008368A71C0520FA1A51425141FFF708FE82
:101660000028C8D12846FFF79BFFB0EB040CDCF143
:10167000000050EB0C010620FFF7FAFD0028BAD15C
:10168000B3699A680720B7EB020EDEF1000151EB57
:101690000E01FFF7EDFD0028ADD1B069C36B082046
:1016A000EA1A51425141FFF7E3FD0028A3D1E71C9C
:1016B0003846FFF775FF281A434253EB0001092013
:1016C000FFF7D6FD002896D1B26991680A20B7EBE2
:1016D000010CDCF1000353EB0C01FFF7C9FD0028FE
:1016E00089D1B069C26B0B20B7EB020EDEF10001AD
:1016F00051EB0E01FFF7BCFD00287FF47CAF2023E7
:1017000083F31188B1698C60CC6380F3118872E730
:1017100060670120AFF30080AFF30080AFF300807B
:10172000F0B4144F8568BE690446B0682162002396
:1017300085420CD82377394609688A689542FBD9D7
:1017400048682160606004604C60F0BC704733778B
:10175000394609688A689042FBD9486831607060F0
:1017600006604E600123204631462377BC61F0BC01
:10177000FFF74EBC60670120AFF30080AFF300803D
:1017800038B5154B04462021986981F311882568E6
:10179000E368AC4283631BD0C16B4BB11A689342C0
:1017A00003D09268914238BF1146DB68002BF5D117
:1017B0002B68AA6B8160236028465C600021A560CD
:1017C000E260AC63FFF7ACFF002080F3118838BD06
:1017D0000022A260F8E700BF60670120AFF300803D
:1017E00008B52022034682F311888068411C002935
:1017F000996003DD002383F3118808BD186802682F
:1018000000211A605360FFF78BFFF3E7AFF300800E
:101810002DE9F04198460446202383F3118846F2CF
:101820006076C2F2010624394718D6F814E0C76082
:1018300040F801800699796041F22101C0F600016B
:101840003962002500F12803826000F1240CC26394
:10185000022701220661C0F814E02946706107776B
:10186000CEF8100045778563456382778561C0F8BF
:1018700024C0C3628362FFF753FF85F311882046BB
:10188000BDE8F081AFF30080AFF30080AFF30080DC
:1018900046F26073C2F2010310B41A6899691468C1
:1018A000087701201077104663601C609A6110BCB5
:1018B000FFF7AEBBAFF30080AFF30080AFF3008063
:1018C00010B5202383F311880B4CA269134653F8FB
:1018D000280F984208D0016891620D224B60027770
:1018E000002383F3118810BD0E20FFF7D1FFA269FA
:1018F000134653F8280FEEE760670120AFF300802E
:1019000010B50346202282F311888068411E002909
:10191000996004DB0020002282F3118810BD074C7F
:10192000A269136259681360516005205A600A6009
:10193000FFF7AEFFA369186AEDE700BF60670120FB
:1019400010B5044640F60000C2F20000FFF7D8FFD1
:101950002078FFF7A5FC002010BD00BFAFF300808A
:1019600010B540F60004C2F200042046FFF7C8FF9D
:101970002046FFF735FF002010BD00BFAFF3008009
:1019800010B546F2607482B002ABC2F2010443F8B3
:10199000040DA269026003201362FFF779FFA069BA
:1019A000006B02B010BD00BFAFF30080AFF300804A
:1019B000202383F311884FF46D40CEF2000041687C
:1019C00011F4006202D182F311887047EFF30983AA
:1019D0004FF0807043F8040CA3F1200181F30988D3
:1019E000054A106892698168906881428CBF0348FB
:1019F000034843F8080C7047606701202F10000867
:101A000032100008AFF30080AFF30080AFF3008026
:101A100000228168054B02771B689A688A42FBD2D4
:101A20005968036041600860586070476067012032
:101A30000E4A70B59469202585F3118800F12805B8
:101A40002562067FC26A25600E2E21636260C46231
:101A5000146007D00C20FFF71BFF206A002181F3E0
:101A6000118870BDFFF7D4FFF4E700BF6067012065
:101A700010B541210446FFF7DBFF42212046FFF766
:101A8000D7FF20464321FFF7D3FF002010BD00BF42
:101A9000426B037F11430A2B41630AD00B2B00D00A
:101AA0007047026A11408A42FAD100210162FFF7B1
:101AB000AFBF036A1942F8D1704700BFAFF300808F
:101AC00070B50468A04206460D460ED0E36845EAAC
:101AD0000300E06015B12269104203D06068A1687C
:101AE000FFF7D6FF2468A642F0D170BDAFF30080A7
:101AF000134B70B520209C6980F31188A36BD3B180
:101B000000260BE01168956B196010464B609A60D7
:101B1000DD609363FFF77CFFA36B43B11A68D9685C
:101B20009342A163EED19E60A36B002BF6D1E06BD4
:101B3000A060FFF725FD002282F3118870BD00BF71
:101B400060670120AFF30080AFF30080AFF3008047
:101B500030B40446114A2568C3689069AC42836377
:101B600017D0C16B4BB11A68934203D0926891426F
:101B700038BF1146DB68002BF5D12B68AA6B81605A
:101B8000284623605C60A560E260AC6330BCFFF770
:101B90003FBF0023A36030BC704700BF60670120D7
:101BA000F8B52F4A836894690546002B51D0A16887
:101BB0009868814206D91A7F9960062A31D0072A8F
:101BC0001CD092B128460068854203D08368A16882
:101BD0008B42F8D242682060626044600620146044
:101BE0002562BDE8F840FFF753BE93E80600116098
:101BF000196818464A60FFF70BFFE3E758681F684B
:101C00001E6A07601F68324678601268964202D0EA
:101C100090688842F9D251681A6059600B6053602D
:101C2000D0E758681F681E6A07601F6832467860F0
:101C30001268964212D090688842F9D251681A60B0
:101C400059600B605360B368A1689A688A42B2D346
:101C5000B8E7A36B8460C360A063F8BD3246EDE7CC
:101C600060670120AFF30080AFF30080AFF3008026
:101C700008B5202383F31188FFF792FF002080F33B
:101C8000118808BDAFF30080AFF30080AFF3008090
:101C900038B540F60C040546C2F200042046FFF7B2
:101CA000E7FF2878FFF7FCFA2046FFF769FD0020E0
:101CB00038BD00BFAFF30080AFF30080AFF300800A
:101CC00038B540F620040546C2F200042046FFF76E
:101CD000CFFF2878FFF7E4FA2046FFF751FD0020F8
:101CE00038BD00BFAFF30080AFF30080AFF30080DA
:101CF000F8B50E4C002818BF044604F11006304613
:101D00000F46FFF7B5FFA3686BB10022144628CB3E
:101D100001345219002BFAD107B13A603046FFF76F
:101D20002FFD2046F8BD1A461C46F5E73029002055
:101D3000F8B550F8085C05F110070646A0F1080454
:101D400008353846FFF794FF2B46AB421A6801D09E
:101D5000A34202D21AB1944201D31346F5E756F8D2
:101D6000041C46F8082C1C6001F1080256F8085CB7
:101D7000A018A8420AD05A6802F1080019188C422B
:101D800012D03846BDE8F840FFF7FABC4068A258C8
:101D90000918083146F8041C46F8082C5A6802F164
:101DA000080019188C42ECD156F8040C56F8081C9F
:101DB0001218083283E80600E3E700BFAFF30080A3
:101DC00030B40346202181F31188827F541EE2B291
:101DD0008277002484F3118812B9047F0F2C01D07C
:101DE00030BC7047447F04F00304012C0FD0022C58
:101DF000F6D144690569006C25611D696C6181F348
:101E0000118801681960036082F31188E8E742696C
:101E10000169116103695A6130BCFFF789BF00BFD6
:101E200038B50446202383F31188007F0F2807D09C
:101E30000849626A8D6909202A606562FFF728FDFA
:101E4000256A002383F311882046FFF7B9FF28464F
:101E500038BD00BF60670120AFF30080AFF30080A2
:101E600010B5124C206818B1FFF7DAFF0023236089
:101E7000606820B1FFF7D4FF0C4800224260A068E0
:101E800020B1FFF7CDFF094B00219960E06820B138
:101E9000FFF7C6FF05480022C260206920B1FFF7A6
:101EA000BFFF024B0021196110BD00BF604A002036
:101EB00070B5284E2848B369284D9C6882B0FFF75A
:101EC000D7FE274A274B00924FF4A471621C264884
:101ED000FFF79EFC28602548224B0090A21C4FF47F
:101EE000A4712348FFF794FC686022481D4B0090C2
:101EF000E21C4FF4A4712048FFF78AFCA8601F4839
:101F0000184B0090221D4FF4A4711D48FFF780FC70
:101F1000E8601C48134B00904FF4A471621D1A48EE
:101F2000FFF776FC28610C48FFF72AFCFFF798FFC3
:101F3000B1698B680120E21A51425141FFF798F9CB
:101F400008B102B070BD1149022002B0BDE8704076
:101F5000FFF74EB9606701200C080020604A00209E
:101F6000E4110108911C0008F8430020241C01081A
:101F7000404500209C27010888460020D811010810
:101F8000D0470020DC11010818490020E0110108A9
:101F9000F0B546F26077C2F2010783B0BB6944F244
:101FA000F8359A6841F2F12641F2E410C2F20005D8
:101FB000C0F60006C0F60100053A334600904FF423
:101FC000A4712846FFF724FC44F66024C2F2000402
:101FD000B9698B68206041F624404FF4A471C0F6C3
:101FE00001001A1F009033466818FFF711FCBA6908
:101FF0006060936842F29C70C0F60100DA1E0090A7
:1020000033464FF4A47105F52470FFF701FCB9695C
:10201000A0608A6841F2D810C0F60100023A334647
:1020200000904FF4A47105F57670FFF7F1FBBB69E2
:10203000E0609A6841F2DC10C0F601004FF4A47130
:10204000013A3346009005F5A460FFF7E1FB2061FB
:10205000FFF706FF41F2E0110120C0F6010103B0D5
:10206000BDE8F040FFF7C4B8AFF30080AFF30080E5
:102070002DE9F04146F26076C2F2010682B0B36902
:1020800039489A6841F2F12541F62441C0F600052D
:10209000C0F60101043A2B4600914FF4A471FFF7FA
:1020A000B7FB44F66024C2F20004B769BB68606005
:1020B00044F2F83741F2E410C2F20007C0F6010022
:1020C0005A1F00902B4638464FF4A471FFF7A0FB2F
:1020D000B2692060916841F2DC10C0F601004A1E2E
:1020E0002B4600904FF4A47107F5A460FFF790FB16
:1020F000B36920619A6841F2D811C0F601010091DC
:1021000007F576704FF4A471023A2B46FFF780FB77
:102110004FF02008E06088F31188B06942F29C73A8
:102120008268C0F60103009307F524702B464FF434
:10213000A471033AFFF7CCF90025A06085F311885C
:10214000A06888F31188FFF763FC85F31188FFF717
:1021500087FE41F2E0110120C0F6010102B0BDE8A6
:10216000F041FFF745B800BF40450020AFF30080C5
:1021700010B5202383F31188074904698C4209D0E4
:10218000A27F531CA377002181F31188FFF718FE6B
:10219000204610BD0024F6E760670120AFF3008001
:1021A000F8B5224E002818BF064606F11007073181
:1021B000384621F0070506F10804FFF759FD00E055
:1021C0001C4623680BB358688542F9D805F108010D
:1021D000814217D84FF6F87ECFF6FF7EC5EB0E0290
:1021E00003EB010C12181868CCF8042058505D60FD
:1021F000C4F800C01C46384644F8086BFFF7C0FA24
:102200002046F8BD19682160F4E73846FFF7B8FAB0
:1022100032684AB105F10800904728B100F108047E
:10222000066045602046F8BD0024E9E7302900201B
:1022300070B582B001A90020FFF75AFD10210020DF
:10224000FFF7AEFF011C18BF012104460120FFF774
:102250000FF8054608B102B070BD2046FFF768FDD3
:102260006FF0FF012846FFF79BFFD0F1010138BF57
:1022700000210220FEF7FCFF0028ECD101A97F48D5
:10228000FFF736FD10217D48FFF78AFF1021054634
:102290007A48FFF785FF102104467848FFF780FF52
:1022A00006462846FFF744FD2046FFF741FD30462D
:1022B000FFF73EFD69467148FFF71AFDB0F1010CCA
:1022C000DCF1000151EB0C010320FEF7D1FF0028E7
:1022D000C1D110216948FFF763FF10210446674808
:1022E000FFF75EFF102105466448FFF759FFFFF72F
:1022F0001FFD2846FFF71CFD2046FFF719FD694624
:102300005E48FFF7F5FCB0F1010EDEF1000050EB86
:102310000E010420FEF7ACFF00289CD11121574884
:10232000FFF73EFF102104465448FFF739FF0546EA
:102330002046FFF7FDFC69465048FFF7D9FC821E96
:10234000534253EB02010520FEF792FF002882D191
:1023500010214A48FFF724FF694604464748FFF723
:10236000C7FC012800F0888069464448FFF7C0FC9C
:102370000238414241410620FEF77AFF00287FF4EF
:102380006AAF2846FFF7D4FC2046FFF7D1FC694628
:102390003A48FFF7ADFC421E534253EB02010720BF
:1023A000FEF766FF00287FF456AF10213348FFF791
:1023B000F7FE102105463148FFF7F2FE0446284695
:1023C000FFF7B6FC69462D48FFF792FCB0F1020C0E
:1023D000DCF1000050EB0C010820FEF749FF00285B
:1023E0007FF439AF20212548FFF7DAFEFFF7A0FC84
:1023F0002046FFF79DFC69462048FFF779FCB0F1C5
:10240000010EDEF1000151EB0E010920FEF730FF55
:1024100000287FF420AF69461848FFF769FC00994F
:102420001648FFF7BDFE694604461448FFF760FCF6
:10243000D0F1010138BF00210A20FEF719FF002862
:102440007FF409AF2046FFF773FC69460B48FFF79E
:102450004FFC421E534253EB02010B20FEF708FFD4
:1024600000287FF4F8AE9DE80A000C20CA1A5142F9
:102470005141FEF7FDFEEEE601467CE7581C0020C8
:10248000F0B583B00D4617461E46FFF789FE044699
:1024900090B1202383F31188089C29463A4633469D
:1024A0000094FFF715F80121417700210446FFF75A
:1024B00037F9002080F31188204603B0F0BD00BF3B
:1024C00082680346501C0028986000DD70471A6837
:1024D0001168104619604B6000231362FFF798BA29
:1024E000F8B5876881600137002F044629DC406811
:1024F000436863601C60FFF78BFA6FF0010607F01A
:10250000010106627D1CEFB149B1606842686260FA
:102510001460FFF77DFA0135012D066213D0606863
:10252000436863601C60FFF773FA06626068416885
:1025300061600C60FFF76CFA6A1C06620235002AC3
:10254000EDD1F8BDF8BDF8BDAFF30080AFF300806A
:102550004FF48053CEF200030E4A5968F0B48668F7
:10256000D76AC5684468D0E90423891BC91B0135B3
:10257000521843F10003A142C5608160C0E9042301
:1025800005D80368994238BF0160F0BC70474160CC
:10259000FBE700BF60670120AFF30080AFF300806E
:1025A0004FF48053CEF2000359688160704700BF3A
:1025B0004FF48053CEF2000319465A6880189042B7
:1025C0004B6802D99A4202D970479A42F7D9984289
:1025D00094BF00230123002BF1D17047AFF300809B
:1025E000FEE700BFAFF30080AFF30080AFF30080E1
:1025F0002DE9F04F8449854DADF5377D044603F054
:102600002FFB2046824903F02BFBEE69A8696A6A1A
:102610002B6A804900960190204603F021FB7E49F9
:10262000204603F01DFB642008F032FD28460021FF
:102630007A4A012308F06CFE0646A8B9784920467C
:1026400003F00EFB642008F023FD7649204603F0DA
:1026500007FB642008F01CFD31462846724A01231E
:1026600008F056FE014648B12046704903F0F8FADA
:102670000CF0C6FB0DF5377DBDE8F08F28466C4A9F
:10268000012308F045FE01460028EDD12846694A9D
:10269000012308F03DFE0028E6D16149204603F001
:1026A000DFFA642008F0F4FC6349204603F0D8FA0E
:1026B000642008F0EDFC614B552103F580555A1C50
:1026C00059700233AB425170F9D15D4A552002F581
:1026D0008056511C50700232B2424870F9D14B48BA
:1026E0004E4A0021082308F013FE0028BCD12046E2
:1026F000544903F0B5FA4FF47A781EE047480EF0DB
:1027000087F807465049204637BB03F0A9FA3946F7
:102710004E4A3E48082308F0FBFD4C494FF48052D6
:102720000028A1D13D480EF073F84749A0B92046D2
:1027300003F096FAB8F1010815D00021434A334856
:10274000082308F0E5FD08F1FF384FF480523F49B7
:102750000028D3D088E7444620463D4903F080FA5C
:102760000CF04EFB86E72E49204603F079FA6420F0
:1027700008F08EFC2046374903F072FA642008F016
:1027800087FC2E4B5520591C587002339D424870CF
:10279000F9D12B4955204A1C487002318E425070A5
:1027A000F9D11A48204A0021082308F0B1FD002879
:1027B0007FF45AAF4FF47A77A04616E017480EF030
:1027C00027F804460146244A10480823002CC2D1A9
:1027D00008F09EFD1D494FF4805290B90F480EF04D
:1027E00017F80028B7D1013F38D000211A4A07480E
:1027F000082308F08DFD013F14494FF48052002852
:10280000DCD0444630E700BFC4440108E06001204A
:10281000301201084C1201085C120108D05001204E
:102820001442010884120108D150012074120108D9
:10283000D2500120D3500120A0120108CF50012016
:102840005B0B0020BC120108281301085C0B002060
:10285000C0120108CC1201085D0B0020AD494046B2
:1028600003F0FEF9642008F013FC4046AA4903F087
:10287000F7F9642008F00CFCA84B4446AA205A1C27
:10288000587002339D425070F9D1A548A54A0021E5
:10289000012308F035FC002840F0B380A24A01462D
:1028A000501C5170023296424170F9D19C489F4AA7
:1028B0000021012308F02CFD00287FF4D5AE9948B3
:1028C0009A494FF400720DF0A3FF00287FF444AF43
:1028D0009049204603F0C4F92046954903F0C0F919
:1028E000642008F0D5FB8F4BFF20187003F8010F10
:1028F000591C587002339D424870F9D188488D4A5E
:102900000021012308F0FCFB00287AD187490870D8
:1029100001F8010F0246481C4A7002318E42427093
:10292000F9D17F48844A0021012308F0F1FC0028F6
:102930007FF49AAE7F4880494FF400720DF068FF33
:1029400000287FF409AF7349204603F089F9204637
:102950007A4903F085F9642008F09AFB724BAA25A6
:102960005A1C5D7002339E425570F9D14FF4803588
:102970002946082305F108066C4A6948F51808F04D
:10298000BFFB3146694A0823002841D1644808F05A
:10299000B7FB00283CD1B5F5883FE9D14FF480352D
:1029A0005F4F604A294608233846ED1808F0B0FC0E
:1029B0005E494FF4805258BB5A480DF029FF38BB8E
:1029C000B5F5883FECD15E4E5249204603F048F9F8
:1029D0000FCE16AD0FC530685A492860204603F067
:1029E0003FF9642008F054FB57480CF0E9F906461B
:1029F000A8B120465549324603F032F90CF000FAEE
:102A000038E62046524903F02BF90CF0F9F931E68B
:102A10002046504903F024F90CF0F2F92AE64E4A18
:102A20004E494FF0010882F80080204603F018F963
:102A30004B49204603F014F9642008F029FB49496A
:102A400011A8119103F004FF002812DB464D55F840
:102A500020501DB310F0FF032E701DD138790528CA
:102A600009D003222046414903F0FAF80CF0C8F9D6
:102A700000E60B22F6E7B86A7F280DD9A0F13F08DF
:102A80004FF4FA673A4AB8FBF7F732F81360B742E7
:102A900006D20133F9E754460122E3E70C22E1E7CD
:102AA000344A32F81330590A14BF8A464FF0010AEB
:102AB000B8FBFAF740F6F57297421BD902F570425F
:102AC000974240F294818237B9004B1E00225F0A80
:102AD0004FF0030905924FF0200C05990CF13F0BC4
:102AE0007B1803EB0B01AAF13F025318984543D220
:102AF0000E22B7E7032101FB07F77B1C5F087B1859
:102B00004FF0010903F2FF1720227F0A05924FF0D0
:102B1000010CE2E714420108E8120108CF5001203D
:102B2000E0600120D05001205B0B00205C0B0020F6
:102B300010130108D15001205D0B00202C13010857
:102B400014160108C0150108286501205413010856
:102B500000130108B01501081C4E0120C4440108EF
:102B600068130108602101086C1B0020EC150108A6
:102B7000F01101081012010801F1FF0222F0FF0319
:102B8000B9F1030FC1EB030100F042817F18CCEBD8
:102B900008020599D31B5A1AB2FBFAF3B9F1020FD6
:102BA000069300F02981B8F5803F34BF012106214A
:102BB000002305F134069E4606F803E001330022A7
:102BC000B3F5007FF8D143F6C16EB0FBFEFE4FEACD
:102BD0009E00CDF80CE040F03F00C8F3072ECDF882
:102BE0001CE00B9085F8F6115FFA88FEFE21CDF807
:102BF00020E085F8F711C8F3074E0B99CDF824E0D3
:102C0000104685F8F52185F8FB2185F8FC2185F82B
:102C1000FD214FEA186E089ACDF828E085F8F811E2
:102C2000DDF80CE085F8FE213F2185F8FA110A9ABB
:102C3000099985F8F9E1DDF81CE085F80012012317
:102C400085F801225521AA2285F8321285F833220F
:102C500085F8F33185F8F43185F8FFE13146024615
:102C6000CDF810C08DF81CE008F002FBDDF810C0B4
:102C700000287FF411AF0346F0540133B3F5007F11
:102C8000FAD1A84A0020815C315401300B28FAD1D6
:102C90000023CCF30721B9F1030F14BF02221A4617
:102CA000022085F843100121B8F5803F85F83F30B8
:102CB00085F8400085F841A085F842C085F84410A9
:102CC00085F8453085F8462080F0B580089B9DF852
:102CD0001CE085F8473085F848E000233F22F820C3
:102CE000FF21B9F1030F85F8490085F84C2085F8DC
:102CF0004D3085F84E1085F84F3085F8502085F816
:102D0000513085F8523085F8533000F0A280C7F377
:102D10000722212085F85D0085F84B20292080229C
:102D2000814985F8582085F85B3085F85C3085F856
:102D30005E3085F84A7085F85A0005F15F02585CEC
:102D4000D0540133132BFAD15521AA2285F832121F
:102D500085F83322002031463F22012308F088FA0B
:102D600000287FF499AE0020024632540130B0F5BD
:102D7000007FFAD1FF23B9F1030F00F0B880B9F159
:102D8000010F14BF18460020F82185F8341085F88B
:102D9000353085F8363085F83700002031465A4600
:102DA000012308F065FA0BF1010800287FF474AEE6
:102DB00003460246F2540133B3F5007FFAD1D446FC
:102DC000A246CBEB080401230020A742424631462D
:102DD00008EB030440F2AC80CDF810C008F048FACC
:102DE000DDF810C000287FF456AEA046E9E7B91C14
:102DF0004B004FF0020985E6069A40F6F5718A42CB
:102E00007FF676AEB8F5803F2CBF06210421CFE6D1
:102E10008C44CCEB0803DDF814E0DA1BCEEB0203A4
:102E2000B3FBFAF28B444FF6F5718A4206927FF6B5
:102E30005FAE0C21BCE6089B9DF81C2009980A99FE
:102E400085F8543085F8552085F8560085F85710D8
:102E500043E7C7F30720390C3A0E85F8590085F887
:102E60005A10022001214FF0210E85F85B2085F8D1
:102E70006000062285F8641080202921DFF8ACC0AC
:102E800085F8662085F8773085F8783085F879E020
:102E900085F87A3085F8587085F8613085F86230A9
:102EA00085F8633085F8653085F8673085F87400FB
:102EB00085F8761005F17B0213F80C00D05401332D
:102EC000132BF9D15523AA2185F8323285F8331214
:102ED000002031463F22012308F0CAF900287FF480
:102EE000DBAD31464522012308F0C2F93BE7F8216A
:102EF0000F2285F8341085F8353085F8363085F89E
:102F0000373085F8383085F8393085F83A3085F82B
:102F10003B3085F83C3085F83D3085F83E3085F80B
:102F20003F203AE778130108981301088413010839
:102F3000059FB9F1030F08BF674654464744E24670
:102F4000424600203146012308F092F908F10108B9
:102F500000287FF4A1ADB845F2D18346B9F1030052
:102F6000D0F10009DDF818C059EB0009C9EB0C01DC
:102F700013AF0AFB0182531E3846C7F800807B60FE
:102F800008F056FBB9F1000F3FD0069885F821B242
:102F9000431E612241214FF0520E72204FEA136C02
:102FA000C3F307294FEA134885F8362085F8371010
:102FB00085F81A1285F81B2285F81C325522022347
:102FC000AA2185F8180285F8190285F8203285F8BB
:102FD000322285F8331240223146012385F834E04D
:102FE00085F835E085F81D9285F81E8285F81FC2A8
:102FF00085F822B285F823B2584608F039F95846C8
:1030000031464622012308F033F99749204602F061
:1030100027FE9649204602F023FE642008F038F887
:1030200010A80FA90BF024FF024638B120469049A2
:1030300002F016FE0BF0E4FEFFF71CBB20468A49A7
:103040008C4D02F00DFE8C48109A83788B4950020B
:1030500003FB00F00090204602F002FE8849204663
:1030600002F0FEFD642008F013F812222DA8294674
:103070000AF0D6F8024638B12046824902F0F0FD47
:103080000BF0BEFEFFF7F6BA7749204602F0E8FDE6
:103090007D49204602F0E4FD642007F0F9FF142288
:1030A0002DA816A90EAB0AF08BFF024638B12046B8
:1030B000764902F0D5FD0BF0A3FEFFF7DBBA6A49B3
:1030C000204602F0CDFD2046714902F0C9FD2DA831
:1030D0000AF0C6FE024638B120466E4902F0C0FD35
:1030E0000BF08EFEFFF7C6BA5F49204602F0B8FD2E
:1030F0002046694902F0B4FD2DA8294601220AF0B4
:103100008FF80646642007F0C3FF46B120465D49AC
:10311000324602F0A5FD0BF073FEFFF7ABBA2DA807
:103120005E4914220DAB0BF06BF808BB16A85B4987
:1031300014220DF06DFB00287FF40EAB4A492046A7
:1031400002F08EFD1BAE2046554902F089FD304647
:1031500012A9012212950BF003FA054680B1204610
:1031600050492A4602F07CFD0BF04AFEFFF782BA76
:1031700020464D4902F074FD0BF042FEFFF77ABA8B
:103180004FF40071FFF70CF8804698B13046129961
:10319000C6F81C80B76100F06BFE054630B9B56912
:1031A000EB7A03F02002D1B231B106254046FEF79A
:1031B000BFFDD4E71125D2E77069002852D0C77A45
:1031C00017F0010F0CBF002507253368C77E1A785A
:1031D000817E032A41EA072705D1437D017D41EA2B
:1031E000032247EA0247CDB9C07A00F01003D9B2F2
:1031F00000296FD0012F40F2B8800DF19009725D67
:1032000009F805200135242DF9D148460221C9F8D5
:1032100008700BF0EDF8054600284FD04046FEF749
:1032200087FD002D9BD12149204602F019FD28463B
:103230000BF0C6FD20460C4902F012FD20461C4949
:1032400002F00EFD642007F023FF1A4808F0A8FAE8
:10325000002871D02046184902F002FD0BF0D0FD85
:10326000FFF708BA0625B0E7C4440108FC150108B9
:10327000AC1301082414010828650120C0130108BB
:1032800004140108341401084414010860140108EE
:103290007414010890140108A4140108300A0020D5
:1032A000D4140108F4140108C81401080815010811
:1032B00020150108E06001203C150108484605F092
:1032C00057FD0546002852D0306843699F424ED0D2
:1032D000042DA3D1B6F80690318C4FF6FF75A942A4
:1032E00008BF494630460BF083F8054600287FF4B6
:1032F0005DAFAB464FF0E50A3068316908F0D0F8B1
:10330000A0B9716901F800B001302028FAD17269C2
:1033100082F800A0306801230371F588A9451ED901
:10332000304600210AF004FD0028E5D004280546B7
:103330007FF43CAF022539E72046144902F090FCA7
:103340002046134902F08CFC2046124902F088FC0A
:10335000642007F09DFE0BF053FDFFF78BB947B9D2
:10336000306808F0B5F9054658E7022556E7072505
:1033700054E7012FDED981698F42DBD239460AF04A
:10338000CFFD054600287FF411AFE9E7144201089C
:10339000501501088C150108AFF30080AFF30080D1
:1033A0002DE9F041202682B086F31188A54CA16852
:1033B0000120D1F1010138BF0021FDF759FF054679
:1033C00008BB80F3118886F311884121204601F063
:1033D0000FFE4221204601F00BFE4321204601F062
:1033E00007FE2046442101F003FE85F3118886F391
:1033F00011886269A3699A4252D029460220FDF7DA
:1034000037FF054628B1002282F3118802B0BDE8DB
:10341000F08180F311884FF0200888F31188894EDD
:103420000146304601F0E4FD043014BF00210121C3
:103430000320FDF71DFF074678BB80F311884FF08E
:10344000FF31304607F064FAC0B2FDF729FF4FF0B4
:10345000FF31304607F05CFAC0B2FDF721FF4FF0B4
:10346000FF31304607F054FAC0B2FDF719FF4FF0B4
:10347000FF31304607F04CFAC0B2FDF711FF88F378
:103480001188B1680420D1F1010138BF0021FDF796
:10349000EFFE50B187F31188B8E785F31188B5E7DF
:1034A000A068011C18BF0121A8E780F3118805203E
:1034B0006549FDF79DFE05460028A7D188F31188D0
:1034C0004121304601F094FD4221304601F090FD4B
:1034D0004321304601F08CFD3046442101F088FD47
:1034E00085F3118808222B465849304607F058FAD0
:1034F000B0F1040CDCF1000555EB0C010620FDF7E2
:10350000B7FE0546002881D188F31188B7680720E7
:10351000D7F1010138BF0021FDF7AAFE07460028B8
:10352000BBD180F3118888F311884121304601F026
:103530005FFD4221304601F05BFD4321304601F042
:1035400057FD3046442101F053FD87F311880222D4
:103550003E493B46304607F023FAB0F1020EDEF159
:10356000000252EB0E010820FDF782FE00287FF4D6
:103570004DAF022203463549304607F011FA831E4B
:10358000584250EB03010920FDF772FE0746002860
:103590007FF43CAF88F31188B1680A20D1F10101B2
:1035A00038BF0021FDF764FE054600287FF472AFA6
:1035B00080F3118888F311880146304601F018FD28
:1035C000304606F0B5FB85F3118888F31188B268A0
:1035D0000B20D2F1010138BF0021FDF749FE002880
:1035E0007FF411AF002585F311881948194B8169C3
:1035F00019488A6800954FF4A4710132FEF708F962
:10360000164B1860202080F31188A1680C204A1BFB
:10361000534253EB0201FDF72BFE00287FF43DAF30
:1036200080F31188FEF71CFC0A21064807F070F9A8
:10363000B0F1FF30414241410D2002B0BDE8F04100
:10364000FDF716BE900800209018010840450020A4
:103650006067012061A90008F8430020604A00204B
:103660002DE9F0438BB0437901910446002B40F0E3
:10367000FE80481E7E2800F24B81DFE810F06E01CC
:103680005F01E0014901D30139014901C501890107
:10369000EA007F0149017F007A0149017501490172
:1036A000490149014901EF00490149014901490125
:1036B00049015C01490149014901490149014901A7
:1036C00049014901490149014901490149014901AA
:1036D000490149014901490149014901490149019A
:1036E000490149014901490149014901490149018A
:1036F000490149014901490149014901490149017A
:103700004901490149014901490149014901490169
:103710004901490149014901490149014901490159
:103720004901490149014901490149014901490149
:103730004901490149014901490149014901490139
:103740004901490149014901490149014901490129
:103750004901490149014901490149014901490119
:103760004901490149014901490149014901490109
:1037700049014901490149014901C501D4F8D02055
:103780002068B4499047D4F8C070002F40F3A68158
:103790003E2F00F3A381A36CE26CE01804F108064D
:1037A000057A002D00F09581C2F1400E991A03EBC5
:1037B0000E0001380139934200F37C81874280F288
:1037C0007C815FFA87F9002D00F08281C2F13F050C
:1037D000531CAF4204F1580880F2CE81F0184146E4
:1037E0003A460DF025F8E06C3F187D1C3F2DE5644E
:1037F000C8BFA7F13F0504EB000204EB0503C8BFF7
:10380000E564002182F808901972D4F8C07021652F
:103810003946204602AA02F0ABFF431C014600F0E5
:10382000B881002805DDD4F8C85015B1206802AA77
:10383000A84700252068616DD4F8D0209047C4F8CF
:10384000C050C4F8C4504046294665220DF020F807
:1038500025650BB0BDE8F08304F0CAFAD4F8C420A3
:10386000002A2046F8DC002104F0EAFAF1E7C9B2A8
:103870005B293AD00379012B04D07E2924D0002182
:103880006171E6E737390D29F9D801A252F821F024
:103890004F3A0008913A00087F3800087F38000846
:1038A0007F3800087F3800087F3800087F3800081C
:1038B0007F3800087F380008893A0008813A0008FC
:1038C000613A0008973A0008022B00F06D81032B43
:1038D000D5D1D0F8C020D0F8C410511A02F008FF9A
:1038E000D4F8C000C4F8C400C9E701202071B0E7D3
:1038F000D4F8C400D4F8C0309842AADA0121204696
:1039000002F0F6FED4F8C4104A1CC4F8C420A0E7A4
:10391000202900F010811F299BDD204601A90122EA
:1039200004F006FA002894D0D4F8C4202046511E92
:1039300004F086FA8DE7012161718AE7D4F8C4109A
:10394000002986D020464FF0FF3102F0D1FED4F896
:10395000C430581EC4F8C4007BE7204602F0F0FED5
:103960000022C4F8C42074E72046002104F0A0FA25
:103970006FE72046012104F09BFA6AE72068D4F83B
:10398000D03035499847D4F8C400C4F8C00060E787
:10399000D4F8CC1000293FF45CAF02AA2046D4F83A
:1039A000C41002F0E5FED4F8C460A219074692F8EC
:1039B000573033B90AA800EB8701284E013741F888
:1039C000206CD4F8CC302068394602AA98470646C5
:1039D000006800283FF43DAF7268002A00F0B18013
:1039E00001200025411E5AB156F82130515D5B5D22
:1039F0008B4276D1002B74D00135411E002AF3D1C1
:103A0000013056F82020EDE7D4F8C410002904DD79
:103A1000204604F0EDF9D4F8C41020460A4604F01C
:103A20000FFA16E7D4F8C010D4F8C4302046C91AEB
:103A300002F05EFED4F8C000C4F8C40009E7D4F870
:103A4000D420002A3FF405AF2068904701E7022305
:103A50000371FEE658120108B01801086021010840
:103A6000D0F8C420D0F8C0309A42BFF608AF012188
:103A700002F03EFED4F8C410481CC4F8C400FEE6B0
:103A8000012104F015FAFAE6002104F011FAF6E635
:103A900003220271DDE6D0F8C420002A7FF7EFAEE2
:103AA0004FF0FF3102F024FED4F8C410481EC4F8D1
:103AB000C400E4E68F42FFF684AE5D196B1C3F2B19
:103AC00001DDA5F13F03F55C3364002D7FF46EAE9C
:103AD000E0185FFA87F980F8089077E604F1580853
:103AE00096E63449D4F8D02020689047316869B10F
:103AF000B0462068D4F8D03098472F49D4F8D02069
:103B00002068904758F8041F0029F2D120682949FD
:103B1000D4F8D0309847D4F8D0202068616D904711
:103B20009DB9204602F00CFE20460021D4F8C420A6
:103B300004F086F98DE6D4F8C01000297FF4EDAECC
:103B400087E60CF025FF0546EAE70AA800EB8707A1
:103B500057F8240C0CF01CFF31680346EA1A204683
:103B6000C91804F0E5F87268002ADAD12046124933
:103B7000012204F0DDF8D4E741462A46F0180CF0A3
:103B800057FE05F15801304661187A1B0CF050FEC3
:103B900029E62068D4F8D02008499047D4F8D030DE
:103BA00020680449984744E602F0CAFD0023C4F89F
:103BB000C43064E658120108242A01089818010844
:103BC0002DE9F04F85B0FF224FF6FF738246019238
:103BD000038414460EE00F2900F0BC804FF0FF3440
:103BE000AAF82040FF24504600210AF0A1F800283E
:103BF00040F0A580DAF80000DAF8101007F050FC69
:103C0000002840F09C80DAF814301A78002A00F07E
:103C1000BC80E52AD97AE1D001F00805EDB201F0C7
:103C20003F01002DD7D10F2900F09480002C56D1F0
:103C3000D10193F801B093F8029093F8038093F8C0
:103C400004C05F799C79DE79029441EA52015944BB
:103C5000C9B24FEAC11E4EEA510159FA81FB5FFA1F
:103C60008BF94FEAC91141EA590958FA89F85FFA04
:103C700088FE4FEACE1141EA5E085CFA88FC5FFAE2
:103C80008CFB4FEACB1141EA5B0E57FA8EF7FFB27D
:103C9000F90141EA5701029F039657FA81F1C9B22F
:103CA000CF0147EA5101039F1E7A5D7A9C7A57FA49
:103CB00081F1C9B2CF0147EA510156FA81F6F7B254
:103CC000F90141EA570655FA86F5EFB2F90141EAE2
:103CD000570554FA85F4019FE4B2BC422FD0DAF8BC
:103CE0001810CC7AE4072FD40C7894422CD15C784D
:103CF0004A78944228D19C788A78944224D1DC78FE
:103D0000CA78944220D11C790A7994421CD15C79FA
:103D10004A79944218D19C798A79944214D1DC79F9
:103D2000CA79944210D11C7A0A7A94420CD15C7AF6
:103D30004A7A944208D1897A9B7A994204D183467F
:103D4000584605B0BDE8F08F4FF0FF30AAF82000CC
:103D5000FF2448E7DAF81C1000293FF444AF02F0D2
:103D60004000C0B268B15C7BBAF806700194AAF852
:103D7000207002F0BF045F7B019A974208D0FF24B5
:103D800031E7A242F7D0FF242DE74FF0040BD7E72D
:103D900093F800C0324E2CF04000421E02EB420964
:103DA0004FF0010002EB890BA146044606E04FF6F6
:103DB000FF70804530D12B48864240D016F8012F45
:103DC00098189A5C90F8018042EA0828002CEED0FE
:103DD000B8F1610F23D0244D002401E090451FD09D
:103DE00035F8022F0134002AF8D14446BBF1FE0F0A
:103DF00012D831F81B80B8F1610F0BF1010B16D00E
:103E0000194D002001E0904512D035F8022F013005
:103E1000002AF8D14445CED00197FF24E3E60024E0
:103E200041F23060C0F6010030F81440DEE70020B7
:103E300041F23062C0F6010232F81080EAE70CF07D
:103E400040022346D0B24C46994620B11BB131F80E
:103E50001B100029E0D1631EDCB20197C3E600BF4E
:103E6000FF3901080C3A0108D0180108AFF30080AF
:103E70002DE9F04F0B782F2B85B08946064600F0D0
:103E8000AF815C2B00F0AC8100684169B16099F8AA
:103E900000301F2B40F2AD81DFF830834FF0000A75
:103EA00001E019F8013F2F2BFBD05C2BF9D01F2B21
:103EB000F7691A4640F22E812F2B29D0B81E4D46A5
:103EC000012416E0803B38F81320EAB17F2A12D98A
:103ED00020F8022F15F8013F611C1F2B1A4640F2F3
:103EE0001B812F2A16D05C2A14D0B1F5807F0BD00D
:103EF0000C467F2BE6D8222A06D0B34911F8013FA1
:103F0000002BE5D09A42F9D1062005B0BDE8F08F2C
:103F100000240121012C89444FF0000B00F00281A4
:103F2000022C00F03F81002CEED007EB4403611E11
:103F300033F8022D202A01F0010001D02E2A1BD1D6
:103F4000013CE1D038B133F8021D202901D02E29DF
:103F500012D1013CD8D033F8022D202A01D02E2ACC
:103F60000AD133F8020D013C2028214601D02E2829
:103F700002D14C1EEFD1C7E7B56927F814A0202362
:103F80002B706B70AB70EB702B716B71AB71EB7155
:103F90002B726B72AB7207EB440EBA1E002532F81F
:103FA000020F202801D02E2801D10135F7E7002D7E
:103FB00040F010817346621E33F802CDBCF12E0F23
:103FC00002F0010112D0144682B121B133F8022D62
:103FD0002E2A09D10AE033F8021D2E2906D033F823
:103FE000022D013C2E2A01D0013CF4D10023CE4603
:103FF0001946B14608223E46013527461C467346FF
:1040000078B3202826D02E2821D0944273D2AF42F4
:1040100000F03D817F2800F2FA802B2800F0028119
:10402000DFF8ACC19E4602E0984200F014811CF813
:10403000013F002BF8D1A0F1410CBCF1190F7346E0
:1040400000F21A8141F002015FFA80FCEEE0AF421B
:1040500000F01D814BF0030B36F8150001350028E8
:10406000CFD14E469946B3691878E52800F0EC8028
:10407000082A00F0E18001F00C020C2A00F0AD806B
:1040800001F00300032800F0A8800BF00200C0B28A
:1040900040B901F00301012908BF4BF0100B042ABD
:1040A00000F0DB8083F80BB0304600210AF0A0F965
:1040B000002861D13046FFF783FDB269D17A00282C
:1040C0005CD101F00400C1B2002969D17369DA7AC8
:1040D00002F01000C1B2002900F0E8803768DC7EF1
:1040E00038789A7E032842EA042400F08980B4607C
:1040F00099F80030D7E60B2A00F0CC80AF4203D00D
:10410000BD424BF0030BACD88C00E1B23D460B2214
:104110000824A1E700240121012C89444FF0040B5D
:104120007FF4FEAE38882E287FF4FFAEB369A7F87F
:1041300002A01870B06920224270B169881C202347
:104140000370B269D370B1690B71B0694371B26920
:104150009371B169CB71B0690372B2695372B1697D
:104160008B72B3694BF0200B83F80BB03046002103
:104170000AF03EF900289DD0B269D17A04287FF474
:10418000C4AE01F02000C2B201F00403002A00F026
:104190008780D8B2C6F808A0C6F814A00028A7D017
:1041A0000020B2E67B882E2B7FF4BFAE38882E2805
:1041B0007FF4BBAEB269A7F804A01070B169487073
:1041C000B369981CBBE700BFB4180108503A010856
:1041D000C01801084BF0030BECE64BF0020B54E760
:1041E000002209F10109B26099F800301F2B3FF657
:1041F00053AE304600210AF0FBF80022726184E6DB
:10420000597D1B7D43EA012744EA07446FE7029189
:104210000392019302F0FCFA0299039A019BF8B908
:104220004BF0020B4BF0030B4FF05F0CD9F818006A
:1042300000F804C001340FE78900C9B201F00C0294
:104240000C2A7FF41DAFC8E705201870082AB3694F
:104250007FF411AFF0E77346E4E74BF0080B21E77A
:1042600041F6100CC0F6010C60444BF0020B10F844
:10427000800C0028D6D0D0E6A0F1610EBEF1190F57
:1042800002D8203841F001015FFA80FCCEE70B2A0A
:104290007FF43AAF4E464BF0030B99460B22E2E611
:1042A000D9B2002914BF042005202EE605202CE6F3
:1042B00038B50546202383F311880C4806F058FCD6
:1042C000044670B90A488268416842F8045B8A4231
:1042D000826024BF026882600648FEF7F1F8FDF7AD
:1042E0004FF9002383F31188204638BD6008002071
:1042F0004408002054080020AFF30080AFF3008092
:10430000124B9A6959699868914210B518D0441CAB
:104310009C6012F8014B18699A6182420B490CD2D9
:1043200018680A4A984206D0036800215A60016260
:104330001360FDF76DFB204610BDCA688A61EFE788
:104340000028E4D06FF0020010BD00BF6C08002010
:10435000F8B5D0F8543200F10C06044630461D681A
:1043600005F0E6FC04F1300005F0F2FC201D01210F
:10437000FDF7A6FBD4F85402417905EB81022846EB
:10438000D7687A8ABB6901275A6000221F70DE60F5
:104390009A6002F05DFBD4F8541249792846BDE8D2
:1043A000F84002F0D5BA00BFAFF30080AFF3008051
:1043B000022938B50C46054602D0032913D038BD72
:1043C000202282F311880121104A02F0E9FB2846DD
:1043D00021460F4A02F0E4FB0E48FFF7B9FF002325
:1043E00083F3118838BD0378042BE8D1202181F3B1
:1043F000118802F085FC084805F09AFC074805F092
:10440000A7FC002080F31188D9E700BF103A01080B
:10441000F01A010854290020602900208429002076
:10442000022938B50C46054602D0032913D038BD01
:10443000202282F311880121104A02F0B1FB2846A4
:1044400021460F4A02F0ACFB0E48FFF781FF002324
:1044500083F3118838BD0378042BE8D1202181F340
:10446000118802F04DFC084805F062FC074805F091
:104470006FFC002080F31188D9E700BF8039010864
:10448000201B0108AC2B0020B82B0020DC2B0020C7
:1044900038B5202585F3118840F6B410C2F200002B
:1044A0000021FDF70DFB0024FDF76AF884F3118865
:1044B0004FF4FA7006F0ECFD85F3118840F6B81061
:1044C000C2F200002146FDF7FBFAFDF759F884F32C
:1044D0001188204638BD00BFAFF30080AFF30080E5
:1044E0002DE9F0413B4DAB6920209E6880F3118897
:1044F000394CA168002960D00021002080F3118888
:104500000120FCF7B5FE08B1BDE8F081202787F354
:104510001188A168304B002956D00121002787F36C
:1045200011880220FCF7A4FE07460028ECD12021C8
:1045300081F31188DFF8A0804046FDF709FB87F37F
:10454000118823680320B3EB040EDEF1000252EB66
:104550000E01FCF78DFE0028D6D1D8F808100420F3
:10456000D1F1010138BF0021FCF782FE0028CBD138
:10457000A86983680520F21A51425141FCF778FE80
:104580000028C1D14046FDF773FBFDF7B1FAD8F81A
:1045900000300620B3EB080251425141FCF768FE9F
:1045A0000028B1D1D8F808300720D3F1010138BF75
:1045B0000021BDE8F041FCF75BBEAB699A6BA360DC
:1045C000E2609C63012198E7AA69906B9A60D860C9
:1045D0009363A3E7606701200C080020AFF300801D
:1045E000F0B5124B124F986983B0866804F0F8F862
:1045F00006F006FB0024013625464FF4A471009511
:104600000C480D4B3246FDF703F939780134002987
:10461000F3D00A48FCF78CFE2046FCF799FE0848C8
:1046200003B0BDE8F040FCF76BBE00BF606701203F
:10463000841B0020F8430020E1C20008601B010831
:10464000701B0108AFF30080AFF30080AFF3008070
:10465000F0B5202383B083F31188994D6A69A86966
:10466000824200F0828000210120FCF701FE074613
:10467000002859D180F31188914C412120464FF0F8
:10468000FF3206F0DDF9422120464FF0FF3206F0FE
:10469000D7F9432120464FF0FF3206F0D1F92046EA
:1046A00044214FF0FF3206F0CBF9202686F3118823
:1046B000AD680220D5F1010138BF0021FCF7D8FD1B
:1046C0000546002835D180F3118886F31188FFF75D
:1046D00017FE85F31188C0B2FCF7E2FD86F311885E
:1046E000FFF70EFE85F31188C0B2FCF7D9FD86F303
:1046F0001188FFF705FE85F31188C0B2FCF7D0FDE5
:1047000086F31188FFF7FCFD85F31188C0B2FCF732
:10471000C7FD86F311886269A3699A422AD02946A7
:104720000320FCF7A5FD38B1002282F3118803B005
:10473000F0BD87F31188FAE780F3118804206149FE
:10474000FCF756FD04460028F1D1202585F3118899
:10475000FFF7D6FD033014BF002101210520FCF72F
:1047600087FD60B184F31188E1E7A968003118BFC3
:10477000012179E7A068011C18BF0121D0E780F36F
:1047800011884F4C504908220346204606F0A0F9F4
:10479000061F714271410620FCF76AFD064600289B
:1047A000C5D185F31188A7680720D7F1010138BF6B
:1047B0000021FCF75DFD074610B186F31188B6E7CE
:1047C00080F31188414A424B96694248B26800978B
:1047D0004FF4A4710132FDF71BF83F4B186085F3CD
:1047E00011882069E168A668421A931B0820B3F17A
:1047F000040CDCF1000151EB0C01FCF739FD06461D
:10480000002896D180F31188FDF72AFB85F31188E3
:10481000204605F09DFA86F3118885F311882069FA
:10482000E268A368811A0920B1EB030EDEF10002F1
:1048300052EB0E01FCF71CFD03460028BDD180F3AE
:10484000118802222049204606F042F902384342EC
:1048500053EB00010A20FCF70BFD034600287FF410
:1048600066AF19490222204606F032F9821E5142F3
:1048700051410B20FCF7FCFC00287FF458AF85F376
:104880001188A3680C20D3F1010138BF0021FCF787
:10489000EFFC00287FF448AF002181F311880A2241
:1048A000074806F0CDF8B0F1FF3CDCF1000050EB1A
:1048B0000C010D2003B0BDE8F040FCF7D9BC00BFEF
:1048C0006C08002090180108404500206067012016
:1048D00091AA0008F8430020604A0020AFF300804E
:1048E000F0B5154985B0064601F042F8202383F360
:1048F000118812480469A17F4A1CA277002585F31C
:1049000011880F4FA068E3680090A27F0D49551EE3
:104910000195207F57F820200292A5692246304653
:10492000039501F025F82046FDF722FC04460028F7
:10493000E8D105B0F0BD00BF7C1B01086067012015
:10494000B01A0108A81B0108AFF30080AFF3008084
:1049500070B546F26073C2F2010382B09869826852
:10496000009041F6712344F2F8300132C0F60003A2
:104970004FF4A471C2F20000FCF74AFF44F6602134
:10498000C2F2000120240860FCF79AFF066B84F352
:1049900011883146FCF7C4FE002585F31188F0B27A
:1049A000FCF77EFCFCF78CFF066B84F31188314624
:1049B000FCF7B6FE85F31188F0B2FCF771FCFCF74A
:1049C0007FFF066B84F311883146FCF7A9FE85F35F
:1049D0001188F0B2FCF764FC41F6C8310120C0F642
:1049E000010102B0BDE87040FCF702BCAFF30080EB
:1049F0002DE9F041202582B085F31188B44C0021C7
:104A0000204606F0B5F80023014683F31188012003
:104A1000B1F1FF3251425141FCF72AFC10B102B012
:104A2000BDE8F081236802201A1B51425141FCF776
:104A30001FFC0028F3D1A6680320D6F1010138BF7E
:104A40000021FCF715FC06460028E8D1A148A24B3E
:104A50008769A248BA6800964FF4A471013AFCF73E
:104A6000D7FE9F4B186085F3118841F288312046AC
:104A700006F07EF8074686F31188FDF7F1F9042069
:104A8000D7F1010138BF0021FCF7F2FB0028C6D1A5
:104A900021680520B1EB040CDCF1000252EB0C01A3
:104AA000FCF7E6FB0028BAD1A6680620D6F1010182
:104AB00038BF0021FCF7DCFB06460028AFD103F02D
:104AC0008FFE85F311884FF08040D0F8248086F364
:104AD00011884120FCF7E4FB85F3118841F288310D
:104AE000204606F045F8034686F311880720B3F107
:104AF000FF3EDEF1000151EB0E01FCF7B9FB00288F
:104B00008DD122680820131B59425941FCF7B0FB94
:104B1000002884D1A6680920D6F1010138BF002100
:104B2000FCF7A6FB064600287FF479AF4220FCF78D
:104B3000B7FB85F3118841F28831204606F018F85A
:104B4000024686F311880720B2F1FF3359425941DA
:104B5000FCF78EFB00287FF462AF22680820B2EBDE
:104B6000040CDCF1000353EB0C012546FCF780FB41
:104B700000287FF454AFA7680920D7F1010138BF9E
:104B80000021FCF775FB074600287FF448AF43205F
:104B9000FCF786FB202686F3118841F288312046F7
:104BA00005F0E6FF014687F311880720B1F1FF3ECB
:104BB000DEF1000252EB0E01FCF75AFB00287FF4F5
:104BC0002EAF236808201A1B51425141FCF750FBBD
:104BD00000287FF424AFA7680920D7F1010138BF6E
:104BE0000021FCF745FB074600287FF418AF44205E
:104BF000FCF756FB86F3118841F28831204605F018
:104C0000B7FF034687F311880720B3F1FF32514203
:104C10005141FCF72DFB00287FF401AF23680820E9
:104C2000B3EB040CDCF1000252EB0C01FCF720FBAF
:104C300000287FF4F4AEA7680920D7F1010138BF3E
:104C40000021FCF715FB074600287FF4E8AE45205D
:104C5000FCF726FB86F3118841F28831204605F0E7
:104C600087FF014687F311880720B1F1FF3EDEF18F
:104C7000000353EB0E01FCF7FBFA00287FF4CFAEE4
:104C800022680820131B59425941FCF7F1FA002809
:104C90007FF4C5AEA2680920D2F1010138BF00211E
:104CA000FCF7E6FA00287FF4BAAE0A200D49FCF7BB
:104CB0009FFA00287FF4B3AE08F5C34202F1280141
:104CC0000B205A3202B0BDE8F041FCF771BA00BFC8
:104CD000000800206067012061830008F84300207D
:104CE000604A0020E0110108AFF30080AFF30080BC
:104CF0002DE9F041324C8AB02021246081F31188E3
:104D0000304A236896690AAD012745F8283D4FF0DF
:104D1000FF3000232560019602970393049083F3EC
:104D2000118881F311882168926908930AAE4FF0C7
:104D3000020846F8141D06922660CDF81C800990E2
:104D400083F311882368191B18BF01213846FCF72B
:104D50008FFA10B10AB0BDE8F08120466946FCF731
:104D600077FB2168091B18BF01214046FCF780FA38
:104D70000028EFD120463146FCF76AFB2268032069
:104D8000B2EB040EDEF1000353EB0E01FCF770FAF8
:104D90000028DFD10C4E0725044601E0013455B14F
:104DA00007FA04F12942F9D056F82420204625EAD2
:104DB00001059047F2E704200449FCF719FAC9E716
:104DC000B409002060670120501B0108C81B0108BE
:104DD000F8B503F005FD202686F311884FF08045D5
:104DE00000236C6A83F311884FF47A7006F050F94F
:104DF000012004F57A7104F2E932FCF7D9F900B127
:104E0000F8BD86F311886C6A80F311884FF47A70CC
:104E100006F03EF9022004F57A7104F2E932FCF75B
:104E2000C7F90028ECD186F311886C6A80F31188E9
:104E300042F2107006F02CF904F51C5202F1100138
:104E400003201132FCF7B4F90028D9D186F3118878
:104E50006F6A80F3118807F57A7486F31188696A9E
:104E6000611A0AD1002080F311880420214607F23C
:104E7000E932BDE8F840FCF79BB9082005F010FDC9
:104E8000F0E700BFAFF30080AFF30080AFF3008026
:104E900038B503F0A5FC05F0B3FE144D002414480A
:104EA000FCF7E6FE1248FCF76BFC1148FCF7E0FE4D
:104EB0000F48FCF765FC0E48FCF7DAFE0C48FCF7DF
:104EC0005FFC0B48FCF7D4FE0948FCF759FC2B7833
:104ED0000134002BE3D00748FCF72AFAA000FCF7C6
:104EE00037FA0548BDE83840FCF70ABA841B0020B1
:104EF000C81B0020601B0108CC1B0108AFF3008019
:104F000038B503F06DFC05F07BFE144D0024144809
:104F1000FCF7F6FC1248FCF763FC1148FCF7F0FCC8
:104F20000F48FCF75DFC0E48FCF7EAFC0C48FCF768
:104F300057FC0B48FCF7E4FC0948FCF751FC2B78C4
:104F40000134002BE3D00748FCF7F2F9A000FCF78E
:104F5000FFF90548BDE83840FCF7D2B9841B0020B2
:104F6000881B0020601B0108DC1B0108AFF30080D8
:104F7000F8B503F035FC05F043FE0024144F20265D
:104F8000254686F31188012100231248124A05F0B4
:104F9000FFFB42F21071104A1048002305F0F8FBA5
:104FA0000C4805F0CDFB0D4805F0CAFB85F31188D0
:104FB0003B780134002BE4D00948FCF7B9F96000D4
:104FC000FCF7C6F90748BDE8F840FCF799B900BFFF
:104FD000841B0020701B0020D1C20008EC1B0020A5
:104FE000601B0108EC1B0108AFF30080AFF30080E9
:104FF000034642698069824210B598681BD001302F
:10500000986002F8011B19695A618A420CD21A6829
:1050100093420ED011680024196010464B60146250
:10502000FCF7F6FC204610BDDA685A611A68934214
:10503000F0D1002010BD0028E1D06FF0030010BDBA
:10504000F8B5264A264B274F5B60002402F1100179
:105050001B609C605A619A61DA601961DC611C62B4
:1050600003F0BEFB05F0CCFD2026254686F3118813
:1050700000211B48FFF7BCFF01211948FFF7B8FFCB
:1050800002211748FFF7B4FF03211548FFF7B0FFCF
:1050900085F311884FF0FF31114805F039FC4FF0CE
:1050A000FF310F4805F034FC4FF0FF310C4805F09C
:1050B0002FFC0B484FF0FF3105F02AFC3878013403
:1050C0000028D3D00848FCF733F9A000FCF740F9DA
:1050D0000648BDE8F840FCF713B900BFB81B002034
:1050E000941B0020841B0020601B0108F81B010892
:1050F00041F6584344F2F832C2F20003C2F2000211
:1051000010B4002103F110004FF4CC6419609A60D0
:10511000D9601160546058611861996110BC704782
:1051200041F6A04344F2F832C2F20003C2F2000298
:1051300010B4002103F110004FF4CC6419609A60A0
:10514000D9601160546058611861996110BC704752
:1051500090F84C30032B10B504462AD0042B16D0FF
:10516000A36E6268D3F80019126841F40010C3F806
:105170000009D3F8001B41F40010C3F8000B12B172
:10518000204605219047062384F84C3010BD0021AD
:10519000052280F84C200A4602F02AFD202080F3E8
:1051A00011880021204601F0B3FB002181F3118812
:1051B00010BDC3689A6991680029D1D1836D03B18C
:1051C0009847002084F84C0010BD00BFAFF300806A
:1051D00070B5184E05463046FCF74AFD05F0A0FDB7
:1051E0002B7803F05F0040F0400129700120294630
:1051F00005F066FD202282F3118845F29C04C2F27C
:1052000001040323204601212A46237001F060FB9C
:1052100004F10800FCF7B4FB002080F3118805F0CE
:1052200037FDA820FDF7C4F93046BDE87040FCF713
:10523000A7BA00BFA8500120AFF30080AFF30080F1
:1052400010B545F29804C2F201042046002300F88C
:10525000013F2370FFF7BCFF607800F03F0141F091
:1052600020022046627004F083FD4FF4C340C0F278
:105270000F00BDE81040FDF79BB900BFAFF3008001
:1052800010B545F29804C2F201042046002300F84C
:10529000013F2370FFF79CFF6178204601F01F0259
:1052A0006270BDE8104004F063BD00BFAFF3008042
:1052B000F0B583B002AC032604F8046D204604F078
:1052C00097FD002520468DF8045004F091FD49F229
:1052D0004000C0F20200FDF76BF9092720468DF867
:1052E0000470FFF775FF9DF80430912B00F00181E9
:1052F00020468DF8046004F07BFD20468DF80450B4
:1053000004F076FD49F24000C0F20200FDF750F9CA
:1053100020468DF80470FFF75BFF9DF8040091288C
:1053200000F0F38020468DF8046004F061FD204613
:105330008DF8045004F05CFD49F24000C0F2020018
:10534000FDF736F920468DF80470FFF741FF9DF810
:105350000410912900F0DB8020468DF8046004F0F1
:1053600047FD20468DF8045004F042FD49F240000C
:10537000C0F20200FDF71CF920468DF80470FFF71B
:1053800027FF9DF80420912A00F0C38020468DF865
:10539000046004F02DFD20468DF8045004F028FD33
:1053A00049F24000C0F20200FDF702F920468DF8F4
:1053B0000470FFF70DFF9DF80430912B00F0AB80D7
:1053C00020468DF8046004F013FD20468DF804504B
:1053D00004F00EFD49F24000C0F20200FDF7E8F8CB
:1053E00020468DF80470FFF7F3FE9DF80400912825
:1053F00000F0938020468DF8046004F0F9FC20460C
:105400008DF8045004F0F4FC49F24000C0F20200B0
:10541000FDF7CEF820468DF80470FFF7D9FE9DF811
:10542000041091297BD020468DF8046004F0E0FC44
:1054300020468DF8045004F0DBFC49F24000C0F235
:105440000200FDF7B5F820468DF80470FFF7C0FEA6
:105450009DF80420912A64D020468DF8046004F061
:10546000C7FC20468DF8045004F0C2FC49F240000D
:10547000C0F20200FDF79CF820468DF80470FFF79B
:10548000A7FE9DF80430912B4DD020468DF8046086
:1054900004F0AEFC20468DF8045004F0A9FC49F25B
:1054A0004000C0F20200FDF783F820468DF804703A
:1054B000FFF78EFE9DF80400912836D020468DF827
:1054C000046004F095FC20468DF8045004F090FC34
:1054D00049F24000C0F20200FDF76AF820468DF85C
:1054E0000470FFF775FE9DF80430912B14BF0B2557
:1054F0000A252046092121228DF804108DF8052067
:1055000004F036FC284603B0F0BD0125F1E7022582
:10551000EFE73546EDE70425EBE70525E9E7062546
:10552000E7E70725E5E70825E3E70925E1E700BF09
:10553000F8B5184E054630460F46FCF799FB05F0C6
:10554000EFFB2B7803F07F0040F060012970012011
:10555000294605F0B5FB202282F3118845F29C0410
:10556000C2F201040323204639462A46237001F083
:10557000AFF904F10800FCF703FA002080F311886A
:1055800005F086FBA820FDF713F83046BDE8F8408B
:10559000FCF7F6B8A8500120AFF30080AFF300800D
:1055A0002DE9F04F83B0DFF83CB201929DF8342032
:1055B00000938F239DF830508BF80030002A40F084
:1055C000B78090238BF801300A090B013D24202974
:1055D0008BF802408BF803208BF8043000F2C28075
:1055E000D9B1067801234F1E99428BF8056007F068
:1055F000010412D02CB14678794A0223994256719F
:105600000BD0C75C0BEB03045E1C6771875D0BEB73
:105610000602731C99425771F3D105317148724CDF
:10562000C9B204F0C5FB41F62440C2F200000027D5
:1056300005EB850507606E002760002D6BD0D4F860
:1056400000A0BAF1010F4FF00C084FF00D0900F067
:105650008B8044F2A0100125FCF7AAFFB5425AD076
:105660005DB1D4F800A0AA4500F0918044F2A010EA
:105670000135FCF79DFFB5424DD0B2460DE044F236
:10568000A010FCF795FF2668012E28D044F2A01048
:105690000135FCF78DFF55453DD02668012E05F1FB
:1056A0000105ECD141F62843C2F2000302214D4826
:1056B0001F608BF800808BF80190FFF739FF9BF893
:1056C0000020402A00F08380802AD8D104F0B8FB63
:1056D00044F2A010FCF76CFF2668012ED6D141F6EB
:1056E0002841C2F200013F480F6002218BF8008080
:1056F0008BF80190FFF71CFF9BF80000402866D054
:105700008028C3D104F09CFB013544F2A010FCF7C3
:105710004FFF5545C1D141F62442C2F20002116843
:10572000324A49B911600846216003B0BDE8F08FE4
:1057300091248BF8014047E700232A4813601C217D
:1057400023608BF80010FFF743FD9BF8004004F046
:105750007F00009C8BF80000844228BF04466CBB8D
:105760002046E2E70020E0E702211E4827608BF890
:1057700000808BF80190FFF7DBFE9BF80030402B98
:1057800026D0802B7FF465AF04F05AFB61E741F629
:105790002841C2F2000113480F6002218BF80080FB
:1057A0008BF80190FFF7C4FE9BF8000040280FD053
:1057B00080287FF45BAF04F043FB57E7019A1F2377
:1057C000104613702146FFF7B3FE2046ADE7B24600
:1057D00041F62443C2F20003C3F800A09BE700BFD8
:1057E0002D1C00202C1C0020281C0020241C002024
:1057F0002DE9F04F85B0474DDFF81CA101908F23B4
:1058000000268DF8083090223D240F27262302A879
:1058100008218DF80A408DF80B608DF80C708DF81A
:1058200009208DF80D30B04604F0C2FA6424CAF89D
:105830000060A9462E600C270D260EE044F2A01051
:10584000FCF7B6FED5F800B0BBF1010F1FD044F253
:10585000A010FCF7ADFE013C31D0D5F800B0BBF193
:10586000010F04F1FF34E9D1022102A8C9F8008038
:105870008DF808708DF80960FFF75AFE9DF8080052
:10588000402841D08028D9D104F0DAFAD6E70221A5
:1058900002A8C9F800808DF808708DF80960FFF73C
:1058A00047FE9DF8081040292ED08029CFD104F062
:1058B000C7FA44F2A010FCF77BFE013CCDD1DAF828
:1058C0000030154A33B913601C462B60204605B0E2
:1058D000BDE8F08F00211C2402A811608DF808405B
:1058E0002960FFF775FC9DF8080000F07F04142C78
:1058F0008DF808400BD91424019A1F231370104609
:105900002146FFF715FEE1E7CAF800B0D7E7002C03
:10591000DCD0F1E7281C0020241C0020AFF300801D
:105920000CB430B542F2803587B00BABC0F6010540
:1059300041F6904100241A460290019501A8C0F654
:105940000101FF25009303950494059404F030F8B9
:10595000019901A88A68214690470498013807B048
:10596000BDE8304002B07047AFF30080AFF3008075
:105970000EB400B582B003AB53F8041B1A46019372
:1059800004F016F802B05DF804EB03B0704700BFF6
:1059900030B583B0044601A90020FCF7A9F942F60E
:1059A000501142F25803C2F20001C2F200030A6829
:1059B0001B6841F69841D21A0546C0F601012046FF
:1059C000FFF7D6FF41F6B84120462A46C0F601014E
:1059D000FFF7CEFF41F6D0412046C0F60101019A03
:1059E000FFF7C6FF03B030BDAFF30080AFF3008018
:1059F0002DE9F041884682B0164667494246044682
:105A0000FFF7B6FFB8F1000F29DD0022012520467F
:105A10006249336808F1FF37FFF7AAFF454507EAF7
:105A200005071CD04FB12A4620465C4956F8043F72
:105A30000225FFF79DFF454511D0371D2A467368A3
:105A400056496E1C2046FFF793FF0235324620462A
:105A500052497B68FFF78CFF3E1D4545EDD150490B
:105A6000504A20464FF48055FFF782FFCEF20005E2
:105A70004AF28020C0F219006E68FCF799FD6B684D
:105A80004949981B48F21962C708C1F66102A2FB96
:105A900007E257088DE8810032462046FFF768FF8D
:105AA00020464249FFF764FF20464149FFF760FF67
:105AB0004FF40053CEF204034FF46D46CEF20006CD
:105AC0006A683C491B682046FFF752FF33686A68E2
:105AD00039492046FFF74CFF47F61420C1F6FF7006
